{
  "address": "0x3fDfb0F7b1f17d39DD5e326A929541Cd2C0Cbc36",
  "abi": [
    {
      "inputs": [
        {
          "internalType": "address",
          "name": "_oracle",
          "type": "address"
        },
        {
          "internalType": "contract IUnlockV12",
          "name": "_unlockContract",
          "type": "address"
        },
        {
          "internalType": "bytes32",
          "name": "_donID",
          "type": "bytes32"
        },
        {
          "internalType": "uint64",
          "name": "_subscriptionId",
          "type": "uint64"
        }
      ],
      "stateMutability": "nonpayable",
      "type": "constructor"
    },
    {
      "inputs": [],
      "name": "EmptySource",
      "type": "error"
    },
    {
      "inputs": [],
      "name": "NoInlineSecrets",
      "type": "error"
    },
    {
      "inputs": [],
      "name": "OnlyRouterCanFulfill",
      "type": "error"
    },
    {
      "anonymous": false,
      "inputs": [
        {
          "indexed": true,
          "internalType": "address",
          "name": "owner",
          "type": "address"
        },
        {
          "indexed": true,
          "internalType": "address",
          "name": "spender",
          "type": "address"
        },
        {
          "indexed": false,
          "internalType": "uint256",
          "name": "value",
          "type": "uint256"
        }
      ],
      "name": "Approval",
      "type": "event"
    },
    {
      "anonymous": false,
      "inputs": [
        {
          "indexed": true,
          "internalType": "address",
          "name": "previousOwner",
          "type": "address"
        },
        {
          "indexed": true,
          "internalType": "address",
          "name": "newOwner",
          "type": "address"
        }
      ],
      "name": "OwnershipTransferred",
      "type": "event"
    },
    {
      "anonymous": false,
      "inputs": [
        {
          "indexed": true,
          "internalType": "bytes32",
          "name": "id",
          "type": "bytes32"
        }
      ],
      "name": "RequestFulfilled",
      "type": "event"
    },
    {
      "anonymous": false,
      "inputs": [
        {
          "indexed": true,
          "internalType": "bytes32",
          "name": "id",
          "type": "bytes32"
        }
      ],
      "name": "RequestSent",
      "type": "event"
    },
    {
      "anonymous": false,
      "inputs": [
        {
          "indexed": false,
          "internalType": "bytes32",
          "name": "requestId",
          "type": "bytes32"
        },
        {
          "indexed": false,
          "internalType": "bytes32",
          "name": "sourceID",
          "type": "bytes32"
        },
        {
          "indexed": false,
          "internalType": "uint32[]",
          "name": "topkAgents",
          "type": "uint32[]"
        },
        {
          "indexed": false,
          "internalType": "address[]",
          "name": "topkUsers",
          "type": "address[]"
        }
      ],
      "name": "RoundRewardsDistributed",
      "type": "event"
    },
    {
      "anonymous": false,
      "inputs": [
        {
          "indexed": false,
          "internalType": "bytes32",
          "name": "requestId",
          "type": "bytes32"
        },
        {
          "indexed": false,
          "internalType": "bytes32",
          "name": "sourceID",
          "type": "bytes32"
        },
        {
          "indexed": false,
          "internalType": "bytes",
          "name": "response",
          "type": "bytes"
        }
      ],
      "name": "RoundWinners",
      "type": "event"
    },
    {
      "anonymous": false,
      "inputs": [
        {
          "indexed": true,
          "internalType": "address",
          "name": "from",
          "type": "address"
        },
        {
          "indexed": true,
          "internalType": "address",
          "name": "to",
          "type": "address"
        },
        {
          "indexed": false,
          "internalType": "uint256",
          "name": "value",
          "type": "uint256"
        }
      ],
      "name": "Transfer",
      "type": "event"
    },
    {
      "anonymous": false,
      "inputs": [
        {
          "indexed": false,
          "internalType": "string",
          "name": "agentName",
          "type": "string"
        },
        {
          "indexed": false,
          "internalType": "string",
          "name": "baseTokenURI",
          "type": "string"
        },
        {
          "indexed": false,
          "internalType": "uint32",
          "name": "agentID",
          "type": "uint32"
        },
        {
          "indexed": false,
          "internalType": "address",
          "name": "creator",
          "type": "address"
        },
        {
          "indexed": false,
          "internalType": "address",
          "name": "unlockSubscriptionContract",
          "type": "address"
        },
        {
          "indexed": false,
          "internalType": "uint256",
          "name": "keyPrice",
          "type": "uint256"
        },
        {
          "indexed": false,
          "internalType": "uint256",
          "name": "basisPoint",
          "type": "uint256"
        },
        {
          "indexed": false,
          "internalType": "string",
          "name": "rewardCategory",
          "type": "string"
        },
        {
          "indexed": false,
          "internalType": "string",
          "name": "actualCategory",
          "type": "string"
        },
        {
          "indexed": false,
          "internalType": "bool",
          "name": "isOpenForContributions",
          "type": "bool"
        }
      ],
      "name": "agentRegistered",
      "type": "event"
    },
    {
      "anonymous": false,
      "inputs": [
        {
          "indexed": false,
          "internalType": "uint32",
          "name": "agentID",
          "type": "uint32"
        },
        {
          "indexed": false,
          "internalType": "uint256",
          "name": "tokenId",
          "type": "uint256"
        },
        {
          "indexed": false,
          "internalType": "string",
          "name": "threadID",
          "type": "string"
        },
        {
          "indexed": false,
          "internalType": "address",
          "name": "agentCreator",
          "type": "address"
        },
        {
          "indexed": false,
          "internalType": "address",
          "name": "subscriber",
          "type": "address"
        }
      ],
      "name": "agentSubscriptionPurchased",
      "type": "event"
    },
    {
      "anonymous": false,
      "inputs": [
        {
          "indexed": false,
          "internalType": "uint32",
          "name": "agentID",
          "type": "uint32"
        },
        {
          "indexed": false,
          "internalType": "string",
          "name": "agentVersionName",
          "type": "string"
        },
        {
          "indexed": false,
          "internalType": "uint32",
          "name": "agentVersionID",
          "type": "uint32"
        },
        {
          "indexed": false,
          "internalType": "address",
          "name": "creator",
          "type": "address"
        },
        {
          "indexed": false,
          "internalType": "string",
          "name": "agentMetadataCID",
          "type": "string"
        }
      ],
      "name": "agentVersionRegistered",
      "type": "event"
    },
    {
      "anonymous": false,
      "inputs": [
        {
          "indexed": false,
          "internalType": "string",
          "name": "sourceName",
          "type": "string"
        },
        {
          "indexed": false,
          "internalType": "string",
          "name": "sourceCode",
          "type": "string"
        },
        {
          "indexed": false,
          "internalType": "bytes32",
          "name": "sourceID",
          "type": "bytes32"
        },
        {
          "indexed": false,
          "internalType": "uint256[]",
          "name": "rewardDistributions",
          "type": "uint256[]"
        }
      ],
      "name": "rewardMechanismRegistered",
      "type": "event"
    },
    {
      "inputs": [
        {
          "internalType": "string",
          "name": "_sourceName",
          "type": "string"
        },
        {
          "internalType": "string",
          "name": "_sourceCode",
          "type": "string"
        },
        {
          "internalType": "address",
          "name": "_functionForwader",
          "type": "address"
        },
        {
          "internalType": "uint256[]",
          "name": "_rewardDistributions",
          "type": "uint256[]"
        }
      ],
      "name": "addRewardMechanism",
      "outputs": [],
      "stateMutability": "nonpayable",
      "type": "function"
    },
    {
      "inputs": [
        {
          "internalType": "uint32",
          "name": "",
          "type": "uint32"
        }
      ],
      "name": "agentVersions",
      "outputs": [
        {
          "internalType": "uint32",
          "name": "",
          "type": "uint32"
        }
      ],
      "stateMutability": "view",
      "type": "function"
    },
    {
      "inputs": [
        {
          "internalType": "uint32",
          "name": "",
          "type": "uint32"
        }
      ],
      "name": "agents",
      "outputs": [
        {
          "internalType": "address",
          "name": "creator",
          "type": "address"
        },
        {
          "internalType": "address",
          "name": "lockAddress",
          "type": "address"
        },
        {
          "internalType": "bool",
          "name": "isOpenForContributions",
          "type": "bool"
        }
      ],
      "stateMutability": "view",
      "type": "function"
    },
    {
      "inputs": [
        {
          "internalType": "address",
          "name": "owner",
          "type": "address"
        },
        {
          "internalType": "address",
          "name": "spender",
          "type": "address"
        }
      ],
      "name": "allowance",
      "outputs": [
        {
          "internalType": "uint256",
          "name": "",
          "type": "uint256"
        }
      ],
      "stateMutability": "view",
      "type": "function"
    },
    {
      "inputs": [
        {
          "internalType": "address",
          "name": "spender",
          "type": "address"
        },
        {
          "internalType": "uint256",
          "name": "amount",
          "type": "uint256"
        }
      ],
      "name": "approve",
      "outputs": [
        {
          "internalType": "bool",
          "name": "",
          "type": "bool"
        }
      ],
      "stateMutability": "nonpayable",
      "type": "function"
    },
    {
      "inputs": [
        {
          "internalType": "address",
          "name": "account",
          "type": "address"
        }
      ],
      "name": "balanceOf",
      "outputs": [
        {
          "internalType": "uint256",
          "name": "",
          "type": "uint256"
        }
      ],
      "stateMutability": "view",
      "type": "function"
    },
    {
      "inputs": [
        {
          "components": [
            {
              "internalType": "uint256",
              "name": "index",
              "type": "uint256"
            },
            {
              "internalType": "uint256",
              "name": "timestamp",
              "type": "uint256"
            },
            {
              "internalType": "bytes32",
              "name": "txHash",
              "type": "bytes32"
            },
            {
              "internalType": "uint256",
              "name": "blockNumber",
              "type": "uint256"
            },
            {
              "internalType": "bytes32",
              "name": "blockHash",
              "type": "bytes32"
            },
            {
              "internalType": "address",
              "name": "source",
              "type": "address"
            },
            {
              "internalType": "bytes32[]",
              "name": "topics",
              "type": "bytes32[]"
            },
            {
              "internalType": "bytes",
              "name": "data",
              "type": "bytes"
            }
          ],
          "internalType": "struct ILogAutomation.Log",
          "name": "log",
          "type": "tuple"
        },
        {
          "internalType": "bytes",
          "name": "",
          "type": "bytes"
        }
      ],
      "name": "checkLog",
      "outputs": [
        {
          "internalType": "bool",
          "name": "upkeepNeeded",
          "type": "bool"
        },
        {
          "internalType": "bytes",
          "name": "performData",
          "type": "bytes"
        }
      ],
      "stateMutability": "pure",
      "type": "function"
    },
    {
      "inputs": [],
      "name": "decimals",
      "outputs": [
        {
          "internalType": "uint8",
          "name": "",
          "type": "uint8"
        }
      ],
      "stateMutability": "view",
      "type": "function"
    },
    {
      "inputs": [
        {
          "internalType": "address",
          "name": "spender",
          "type": "address"
        },
        {
          "internalType": "uint256",
          "name": "subtractedValue",
          "type": "uint256"
        }
      ],
      "name": "decreaseAllowance",
      "outputs": [
        {
          "internalType": "bool",
          "name": "",
          "type": "bool"
        }
      ],
      "stateMutability": "nonpayable",
      "type": "function"
    },
    {
      "inputs": [
        {
          "internalType": "uint256",
          "name": "_value",
          "type": "uint256"
        },
        {
          "internalType": "uint256",
          "name": "_tokenId",
          "type": "uint256"
        },
        {
          "internalType": "uint32",
          "name": "_agentID",
          "type": "uint32"
        }
      ],
      "name": "extendSubscription",
      "outputs": [],
      "stateMutability": "payable",
      "type": "function"
    },
    {
      "inputs": [
        {
          "internalType": "bytes32",
          "name": "",
          "type": "bytes32"
        }
      ],
      "name": "functionData",
      "outputs": [
        {
          "internalType": "address",
          "name": "functionForwarder",
          "type": "address"
        },
        {
          "internalType": "uint8",
          "name": "numberOfWinners",
          "type": "uint8"
        },
        {
          "internalType": "bool",
          "name": "usersOrAgents",
          "type": "bool"
        }
      ],
      "stateMutability": "view",
      "type": "function"
    },
    {
      "inputs": [
        {
          "internalType": "bytes32",
          "name": "requestId",
          "type": "bytes32"
        },
        {
          "internalType": "bytes",
          "name": "response",
          "type": "bytes"
        },
        {
          "internalType": "bytes",
          "name": "err",
          "type": "bytes"
        }
      ],
      "name": "handleOracleFulfillment",
      "outputs": [],
      "stateMutability": "nonpayable",
      "type": "function"
    },
    {
      "inputs": [
        {
          "internalType": "address",
          "name": "spender",
          "type": "address"
        },
        {
          "internalType": "uint256",
          "name": "addedValue",
          "type": "uint256"
        }
      ],
      "name": "increaseAllowance",
      "outputs": [
        {
          "internalType": "bool",
          "name": "",
          "type": "bool"
        }
      ],
      "stateMutability": "nonpayable",
      "type": "function"
    },
    {
      "inputs": [
        {
          "internalType": "address",
          "name": "",
          "type": "address"
        },
        {
          "internalType": "address",
          "name": "",
          "type": "address"
        },
        {
          "internalType": "address",
          "name": "",
          "type": "address"
        },
        {
          "internalType": "bytes",
          "name": "",
          "type": "bytes"
        }
      ],
      "name": "keyPurchasePrice",
      "outputs": [
        {
          "internalType": "uint256",
          "name": "minKeyPrice",
          "type": "uint256"
        }
      ],
      "stateMutability": "view",
      "type": "function"
    },
    {
      "inputs": [],
      "name": "name",
      "outputs": [
        {
          "internalType": "string",
          "name": "",
          "type": "string"
        }
      ],
      "stateMutability": "view",
      "type": "function"
    },
    {
      "inputs": [
        {
          "internalType": "uint256",
          "name": "",
          "type": "uint256"
        },
        {
          "internalType": "address",
          "name": "from",
          "type": "address"
        },
        {
          "internalType": "address",
          "name": "",
          "type": "address"
        },
        {
          "internalType": "address",
          "name": "",
          "type": "address"
        },
        {
          "internalType": "bytes",
          "name": "",
          "type": "bytes"
        },
        {
          "internalType": "uint256",
          "name": "",
          "type": "uint256"
        },
        {
          "internalType": "uint256",
          "name": "",
          "type": "uint256"
        }
      ],
      "name": "onKeyPurchase",
      "outputs": [],
      "stateMutability": "view",
      "type": "function"
    },
    {
      "inputs": [],
      "name": "owner",
      "outputs": [
        {
          "internalType": "address",
          "name": "",
          "type": "address"
        }
      ],
      "stateMutability": "view",
      "type": "function"
    },
    {
      "inputs": [
        {
          "internalType": "bytes",
          "name": "performData",
          "type": "bytes"
        }
      ],
      "name": "performUpkeep",
      "outputs": [],
      "stateMutability": "nonpayable",
      "type": "function"
    },
    {
      "inputs": [
        {
          "internalType": "uint32",
          "name": "_agentID",
          "type": "uint32"
        },
        {
          "internalType": "uint256",
          "name": "_value",
          "type": "uint256"
        },
        {
          "internalType": "string",
          "name": "_threadID",
          "type": "string"
        }
      ],
      "name": "purchaseSubscription",
      "outputs": [],
      "stateMutability": "payable",
      "type": "function"
    },
    {
      "inputs": [
        {
          "components": [
            {
              "internalType": "string",
              "name": "agentName",
              "type": "string"
            },
            {
              "internalType": "uint32",
              "name": "agentID",
              "type": "uint32"
            },
            {
              "internalType": "uint256",
              "name": "subscriptionExpirationDuration",
              "type": "uint256"
            },
            {
              "internalType": "address",
              "name": "tokenAddress",
              "type": "address"
            },
            {
              "internalType": "uint256",
              "name": "keyPrice",
              "type": "uint256"
            },
            {
              "internalType": "uint256",
              "name": "basisPoint",
              "type": "uint256"
            },
            {
              "internalType": "string",
              "name": "lockName",
              "type": "string"
            },
            {
              "internalType": "string",
              "name": "lockSymbol",
              "type": "string"
            },
            {
              "internalType": "string",
              "name": "baseTokenURI",
              "type": "string"
            },
            {
              "internalType": "string",
              "name": "rewardCategory",
              "type": "string"
            },
            {
              "internalType": "string",
              "name": "actualCategory",
              "type": "string"
            },
            {
              "internalType": "bool",
              "name": "isOpenForContributions",
              "type": "bool"
            }
          ],
          "internalType": "struct RocketAI.AgentInitConfig",
          "name": "agentConfig",
          "type": "tuple"
        }
      ],
      "name": "registerAgent",
      "outputs": [],
      "stateMutability": "nonpayable",
      "type": "function"
    },
    {
      "inputs": [
        {
          "internalType": "uint32",
          "name": "_agentID",
          "type": "uint32"
        },
        {
          "internalType": "uint32",
          "name": "_agentVersionID",
          "type": "uint32"
        },
        {
          "internalType": "string",
          "name": "_agentVersionName",
          "type": "string"
        },
        {
          "internalType": "string",
          "name": "_agentMetadataCID",
          "type": "string"
        }
      ],
      "name": "registerAgentVersion",
      "outputs": [],
      "stateMutability": "nonpayable",
      "type": "function"
    },
    {
      "inputs": [],
      "name": "renounceOwnership",
      "outputs": [],
      "stateMutability": "nonpayable",
      "type": "function"
    },
    {
      "inputs": [
        {
          "internalType": "bytes32",
          "name": "",
          "type": "bytes32"
        }
      ],
      "name": "requestData",
      "outputs": [
        {
          "internalType": "bool",
          "name": "executed",
          "type": "bool"
        },
        {
          "internalType": "bytes32",
          "name": "sourceID",
          "type": "bytes32"
        }
      ],
      "stateMutability": "view",
      "type": "function"
    },
    {
      "inputs": [
        {
          "internalType": "bytes32",
          "name": "",
          "type": "bytes32"
        },
        {
          "internalType": "uint8",
          "name": "",
          "type": "uint8"
        }
      ],
      "name": "rewardDistributions",
      "outputs": [
        {
          "internalType": "uint256",
          "name": "",
          "type": "uint256"
        }
      ],
      "stateMutability": "view",
      "type": "function"
    },
    {
      "inputs": [
        {
          "internalType": "bytes32",
          "name": "_requestID",
          "type": "bytes32"
        }
      ],
      "name": "rewardsDistribution",
      "outputs": [],
      "stateMutability": "nonpayable",
      "type": "function"
    },
    {
      "inputs": [
        {
          "internalType": "bytes32",
          "name": "",
          "type": "bytes32"
        }
      ],
      "name": "roundWinners",
      "outputs": [
        {
          "internalType": "bytes",
          "name": "",
          "type": "bytes"
        }
      ],
      "stateMutability": "view",
      "type": "function"
    },
    {
      "inputs": [
        {
          "internalType": "bytes32",
          "name": "sourceID",
          "type": "bytes32"
        }
      ],
      "name": "sendRequest",
      "outputs": [],
      "stateMutability": "nonpayable",
      "type": "function"
    },
    {
      "inputs": [
        {
          "internalType": "bytes32",
          "name": "",
          "type": "bytes32"
        }
      ],
      "name": "sources",
      "outputs": [
        {
          "internalType": "string",
          "name": "",
          "type": "string"
        }
      ],
      "stateMutability": "view",
      "type": "function"
    },
    {
      "inputs": [],
      "name": "symbol",
      "outputs": [
        {
          "internalType": "string",
          "name": "",
          "type": "string"
        }
      ],
      "stateMutability": "view",
      "type": "function"
    },
    {
      "inputs": [],
      "name": "totalSupply",
      "outputs": [
        {
          "internalType": "uint256",
          "name": "",
          "type": "uint256"
        }
      ],
      "stateMutability": "view",
      "type": "function"
    },
    {
      "inputs": [
        {
          "internalType": "address",
          "name": "to",
          "type": "address"
        },
        {
          "internalType": "uint256",
          "name": "amount",
          "type": "uint256"
        }
      ],
      "name": "transfer",
      "outputs": [
        {
          "internalType": "bool",
          "name": "",
          "type": "bool"
        }
      ],
      "stateMutability": "nonpayable",
      "type": "function"
    },
    {
      "inputs": [
        {
          "internalType": "address",
          "name": "from",
          "type": "address"
        },
        {
          "internalType": "address",
          "name": "to",
          "type": "address"
        },
        {
          "internalType": "uint256",
          "name": "amount",
          "type": "uint256"
        }
      ],
      "name": "transferFrom",
      "outputs": [
        {
          "internalType": "bool",
          "name": "",
          "type": "bool"
        }
      ],
      "stateMutability": "nonpayable",
      "type": "function"
    },
    {
      "inputs": [
        {
          "internalType": "address",
          "name": "newOwner",
          "type": "address"
        }
      ],
      "name": "transferOwnership",
      "outputs": [],
      "stateMutability": "nonpayable",
      "type": "function"
    },
    {
      "inputs": [
        {
          "internalType": "address",
          "name": "tokenAddress",
          "type": "address"
        }
      ],
      "name": "withdraw",
      "outputs": [],
      "stateMutability": "nonpayable",
      "type": "function"
    },
    {
      "inputs": [
        {
          "internalType": "uint32",
          "name": "_agentID",
          "type": "uint32"
        }
      ],
      "name": "withdraw",
      "outputs": [],
      "stateMutability": "nonpayable",
      "type": "function"
    },
    {
      "stateMutability": "payable",
      "type": "receive"
    }
  ],
  "transactionHash": "0x609ed24746e1035e592b0d5165e6c0081248343d6b93906b90956e7eb74914c3",
  "args": [
    "0x9f82a6A0758517FD0AfA463820F586999AF314a0",
    "0x70cBE5F72dD85aA634d07d2227a421144Af734b3",
    "0x66756e2d6176616c616e6368652d6d61696e6e65742d31000000000000000000",
    14
  ],
  "numDeployments": 1,
  "solcInputHash": "56a1fc0f3badfa656cb6ef55e3a994cd",
  "bytecode": "0x60a034620003fa57601f906001600160401b0390601f1962004b943881900385810183168401919085831185841017620003ff57808592608094604052833981010312620003fa5781516001600160a01b03938482169291839003620003fa576020908185015196868816809803620003fa576060604087015196015194828616809603620003fa576200009262000415565b936008855267526f636b6574414960c01b81860152620000b162000415565b91600383526252414960e81b82840152608052600090815460018060a01b03199a338c83161784553391167f8be0079c531659141344cd1fd0a4f28419497f9722a3daafe3b4186f6b6457e08480a3855196858811620003e6576004978854976001988981811c91168015620003db575b85821014620003c85790818884931162000375575b5084908883116001146200031457869262000308575b5050600019600383901b1c191690881b1788555b8351958611620002f5576005978854908882811c92168015620002ea575b84831014620002d7575085811162000291575b50819486116001146200022b575050918394918493946200021f575b50501b916000199060031b1c19161790555b61249f60a51b63ffffffff60a01b1960085416176008556000196009556228de80600a5560018060401b03196006541617600655600b55601354161760135560405161475e908162000436823960805181818161061701526127b70152f35b015192503880620001ae565b8783528183209493928692918316915b888383106200027657505050106200025c575b505050811b019055620001c0565b015160001960f88460031b161c191690553880806200024e565b8587015188559096019594850194879350908101906200023b565b888452828420868089018b1c820192858a10620002cd575b018a1c019088905b828110620002c157505062000192565b858155018890620002b1565b92508192620002a9565b634e487b7160e01b855260229052602484fd5b91607f16916200017f565b634e487b7160e01b835260418852602483fd5b0151905038806200014d565b90848b9416918c885286882092885b888282106200035e575050841162000344575b505050811b01885562000161565b015160001960f88460031b161c1916905538808062000336565b8385015186558e9790950194938401930162000323565b9091508a86528486208880850160051c820192878610620003be575b918c91869594930160051c01915b828110620003af57505062000137565b8881558594508c91016200039f565b9250819262000391565b634e487b7160e01b865260228b52602486fd5b90607f169062000122565b634e487b7160e01b83526041600452602483fd5b600080fd5b634e487b7160e01b600052604160045260246000fd5b60408051919082016001600160401b03811183821017620003ff5760405256fe6080604052600436101561001b575b361561001957600080fd5b005b60003560e01c806306fdde031461024b57806307e3290414610246578063095ea7b3146102415780630c92ecf71461023c5780630ca761751461023757806318160ddd14610232578063221c1fd11461022d57806323b872dd14610228578063313ce567146102235780633661346b1461021e578063395093511461021957806340691db4146102145780634585e33b1461020f57806351cff8d91461020a578063584992de146102055780635e895f29146102005780635f1d78ae146101fb57806362e16bd3146101f657806370a08231146101f1578063715018a6146101ec57806381bb4250146101e75780638c3d86b4146101e25780638da5cb5b146101dd57806395d89b41146101d85780639d58754f146101d35780639f1ea81b146101ce578063a457c2d7146101c9578063a9059cbb146101c4578063a9cf7519146101bf578063aa9224cd146101ba578063ba30621e146101b5578063dd62ed3e146101b0578063e9239117146101ab578063f2fde38b146101a65763fe5f49ac0361000e57611fcd565b611f06565b611b7d565b611b1a565b611abb565b611959565b611716565b6116ec565b61163a565b611604565b6115b7565b611510565b6114e7565b6113ff565b61108e565b611033565b610ff6565b610e52565b610e01565b610cad565b610c70565b610b72565b610b2a565b610a67565b6109f3565b6109b9565b61099d565b6108ca565b61080b565b6107c0565b6105c8565b6104fd565b6103c6565b610399565b6102b4565b600091031261025b57565b600080fd5b919082519283825260005b84811061028c575050826000602080949584010152601f8019910116010190565b60208183018101518483018201520161026b565b9060206102b1928181520190610260565b90565b3461025b576000806003193601126103965760405190806004546102d781610d14565b8085529160019180831690811561036c5750600114610311575b61030d8561030181870382610444565b604051918291826102a0565b0390f35b9250600483527f8a35acfbc15ff81a39ae7d344fd709f28e8600b4aa8c65c6b64bfe7fe36bd19b5b8284106103545750505081016020016103018261030d6102f1565b80546020858701810191909152909301928101610339565b86955061030d9693506020925061030194915060ff191682840152151560051b82010192936102f1565b80fd5b3461025b57602036600319011261025b576100196004356137b5565b6001600160a01b0381160361025b57565b3461025b57604036600319011261025b576103f06004356103e6816103b5565b6024359033612284565b602060405160018152f35b634e487b7160e01b600052604160045260246000fd5b6001600160401b03811161042457604052565b6103fb565b604081019081106001600160401b0382111761042457604052565b90601f801991011681019081106001600160401b0382111761042457604052565b60405190606082018281106001600160401b0382111761042457604052565b6001600160401b03811161042457601f01601f191660200190565b81601f8201121561025b578035906104b682610484565b926104c46040519485610444565b8284526020838301011161025b57816000926020809301838601378301015290565b6001600160401b0381116104245760051b60200190565b3461025b57608036600319011261025b576001600160401b0360043581811161025b5761052e90369060040161049f565b9060243581811161025b5761054790369060040161049f565b60443590610554826103b5565b60643592831161025b573660238401121561025b57826004013593610578856104e6565b936105866040519586610444565b85855260209560248787019160051b8301019136831161025b57602401905b8282106105b95750505061001994506123af565b813581529087019087016105a5565b3461025b57606036600319011261025b576001600160401b0360043560243582811161025b576105fc90369060040161049f565b60443583811161025b5761061490369060040161049f565b507f00000000000000000000000000000000000000000000000000000000000000006001600160a01b031633036107ae57600092828452602090600e825260408520918351918211610424576106748261066e8554610d14565b85612563565b80601f831160011461071f575090807f873142285a75d241914f10e28387168bc800ee523453237b118e63b0fba46f379493928791610714575b508160011b916000199060031b1c19161790555b60016106d8846000526012602052604060002090565b01546106ea6040519283928684613670565b0390a17f85e1543bf2f84fe80c6badbce3648c8539ad1df4d2b3d822938ca0538be727e68280a280f35b9050830151386106ae565b90601f19831661073485600052602060002090565b9288905b8282106107965750509183917f873142285a75d241914f10e28387168bc800ee523453237b118e63b0fba46f379695946001941061077d575b5050811b0190556106c2565b85015160001960f88460031b161c191690553880610771565b80600185968294968b01518155019501930190610738565b60405163c6829f8360e01b8152600490fd5b3461025b57600036600319011261025b576020600354604051908152f35b9181601f8401121561025b578235916001600160401b03831161025b576020838186019501011161025b57565b3461025b57608036600319011261025b576108276004356103b5565b6108326024356103b5565b61083d6044356103b5565b6064356001600160401b03811161025b5761085c9036906004016107de565b50506040516310e5697360e01b8152602081600481335afa80156108c55761030d91600091610897575b506040519081529081906020820190565b6108b8915060203d81116108be575b6108b08183610444565b810190612744565b38610886565b503d6108a6565b612753565b3461025b57606036600319011261025b576004356108e7816103b5565b6024356108f3816103b5565b6001600160a01b03821660009081526002602090815260408083203384529091529020604435919054926001840161093c575b610930935061216a565b60405160018152602090f35b828410610958576109538361093095033383612284565b610926565b60405162461bcd60e51b815260206004820152601d60248201527f45524332303a20696e73756666696369656e7420616c6c6f77616e63650000006044820152606490fd5b3461025b57600036600319011261025b57602060405160128152f35b3461025b57602036600319011261025b576004356000526012602052604080600020600160ff825416910154825191151582526020820152f35b3461025b57604036600319011261025b57600435610a10816103b5565b3360009081526002602090815260408083206001600160a01b03851684529091529020546024358101809111610a4a576103f09133612284565b61206a565b9060406102b192600181528160208201520190610260565b3461025b5760031960403682011261025b576001600160401b039060043582811161025b576101008136039283011261025b5760243583811161025b57610ab290369060040161049f565b5060c4810135916022190182121561025b570190600482013590811161025b578060051b3603602483011361025b5760011015610b25576044610b1961030d92610b0b6040519384920135602083019190602083019252565b03601f198101835282610444565b60405191829182610a4f565b612696565b3461025b57602036600319011261025b576004356001600160401b03811161025b57610b5c60209136906004016107de565b908092918101031261025b5761001990356137b5565b3461025b5760208060031936011261025b57600435610b90816103b5565b610b98612012565b6001600160a01b031680610bb2575050610019473361406c565b6040516370a0823160e01b81523060048201528281602481855afa9081156108c5576000928492610c0f928591610c45575b5060405163a9059cbb60e01b8152336004820152602481019190915293849283919082906044820190565b03925af180156108c557610c1f57005b8161001992903d10610c3e575b610c368183610444565b810190613f6c565b503d610c2c565b610c5c9150843d86116108be576108b08183610444565b38610be4565b63ffffffff81160361025b57565b3461025b57602036600319011261025b576020600435610c8f81610c62565b63ffffffff809116600052600d825260406000205416604051908152f35b3461025b5760e036600319011261025b57602435610cca816103b5565b610cd56044356103b5565b610ce06064356103b5565b6084356001600160401b03811161025b57610cff9036906004016107de565b5050306001600160a01b039091160361025b57005b90600182811c92168015610d44575b6020831014610d2e57565b634e487b7160e01b600052602260045260246000fd5b91607f1691610d23565b9060009291805491610d5f83610d14565b918282526001938481169081600014610dc15750600114610d81575b50505050565b90919394506000526020928360002092846000945b838610610dad575050505001019038808080610d7b565b805485870183015294019385908201610d96565b9294505050602093945060ff191683830152151560051b01019038808080610d7b565b90610dff610df89260405193848092610d4e565b0383610444565b565b3461025b57602036600319011261025b57600435600052600f60205261030d610e37610e3e604060002060405192838092610d4e565b0382610444565b604051918291602083526020830190610260565b3461025b57608036600319011261025b57600435610e6f81610c62565b60243590610e7c82610c62565b6001600160401b039160443583811161025b57610e9d90369060040161049f565b9060643593841161025b577f57bff0a79faaabef73281bdf7021d3758548f9c97bfc303a2be1a4c6406a3520610fe192610ede61001996369060040161049f565b9063ffffffff8616600052600c602052610f0560ff60016040600020015460a01c16613d2d565b610f4060018060a01b03610f39610f2c8763ffffffff16600052600c602052604060002090565b546001600160a01b031690565b1615613b14565b610fb5610f706001610f628963ffffffff16600052600c602052604060002090565b01546001600160a01b031690565b610f8f610f7b610465565b338152916001600160a01b03166020830152565b60006040820152610fb08663ffffffff16600052600c602052604060002090565b613c54565b610fc86040519283928633918a86613d85565b0390a163ffffffff16600052600d602052604060002090565b9063ffffffff1663ffffffff19825416179055565b3461025b57602036600319011261025b57600435611013816103b5565b60018060a01b031660005260016020526020604060002054604051908152f35b3461025b576000806003193601126103965761104d612012565b80546001600160a01b03198116825581906001600160a01b03167f8be0079c531659141344cd1fd0a4f28419497f9722a3daafe3b4186f6b6457e08280a380f35b606036600319011261025b5760048035906110a882610c62565b6044356001600160401b03811161025b576110c6903690830161049f565b9060018060a01b03926110f8846110f0610f2c8463ffffffff16600052600c602052604060002090565b161515613dcf565b6111006136cb565b936111096136cb565b6111116136cb565b6111196136cb565b611121613e13565b9561112a6136cb565b508461114b6001610f628963ffffffff16600052600c602052604060002090565b61117c611178600161116d8b63ffffffff16600052600c602052604060002090565b015460a01c60ff1690565b1590565b6113d1575b60243561118d856126ac565b526111aa3361119b886126ac565b6001600160a01b039091169052565b169260409788516313aedd4b60e31b8152602097888286818a5afa9182156108c5576000926113a2575b508a516310e5697360e01b815291898387818b5afa9283156108c557600093611383575b501690811561131c578a516323b872dd60e01b81523381870190815230602082015260408101929092529493929189918691908290600090829060600103925af19182156108c557600098899561126a946112fe575b50508a51633381899760e01b81529c8d98899788968701613ec1565b03925af19081156108c5576112ac6112d8927fb13fba94df0630efb53e320abed1d27b8117a85ac9090a9e5cc3edd534b22bd1966000916112dd575b506126ac565b51926112cb610f2c8363ffffffff16600052600c602052604060002090565b9051948594339386613f81565b0390a1005b6112f8913d8091833e6112f08183610444565b810190613e48565b386112a6565b8161131492903d10610c3e57610c368183610444565b50388061124e565b5050600096506113409189519b8c9788968796633381899760e01b88528701613ec1565b039134905af19081156108c5576112ac6112d8927fb13fba94df0630efb53e320abed1d27b8117a85ac9090a9e5cc3edd534b22bd1966000916112dd57506126ac565b61139b9193508a3d8c116108be576108b08183610444565b91386111f8565b6113c3919250893d8b116113ca575b6113bb8183610444565b810190613b93565b90386111d4565b503d6113b1565b6113fa6113f1610f2c8a63ffffffff16600052600c602052604060002090565b61119b8d6126ac565b611181565b3461025b57602036600319011261025b576004356000818152601160205260409020546001600160a01b0316330361025b5760405160e081018181106001600160401b03821117610424576114d36114b16001936114e39360405260008152600060208201526000604082015260608082015260606080820152606060a0820152606060c08201526114ac6114a66114a188600052600f602052604060002090565b610de4565b82612b4a565b612977565b6006546001600160401b031660085460a01c63ffffffff1690600b549261275f565b6000526012602052604060002090565b0155005b3461025b57600036600319011261025b576000546040516001600160a01b039091168152602090f35b3461025b5760008060031936011261039657604051908060055461153381610d14565b8085529160019180831690811561036c575060011461155c5761030d8561030181870382610444565b9250600583527f036b6384b5eca791c62761152d0c79bb0604c104a5fb6f4eb0703f3154bb3db05b82841061159f5750505081016020016103018261030d6102f1565b80546020858701810191909152909301928101611584565b3461025b57602036600319011261025b576004356000526011602052606060406000205460ff6040519160018060a01b0381168352818160a01c16602084015260a81c1615156040820152f35b3461025b57602036600319011261025b57600435600052600e60205261030d610e37610e3e604060002060405192838092610d4e565b3461025b57604036600319011261025b57600435611657816103b5565b602435903360005260026020526116848160406000209060018060a01b0316600052602052604060002090565b54918083106116995761093092039033612284565b60405162461bcd60e51b815260206004820152602560248201527f45524332303a2064656372656173656420616c6c6f77616e63652062656c6f77604482015264207a65726f60d81b6064820152608490fd5b3461025b57604036600319011261025b576103f060043561170c816103b5565b602435903361216a565b606036600319011261025b57600480359060243560443561173681610c62565b60018060a01b039361175f856110f0610f2c8563ffffffff16600052600c602052604060002090565b6000946117936117876117876001610f628763ffffffff16600052600c602052604060002090565b6001600160a01b031690565b92604051916313aedd4b60e31b835260209283818981895afa9081156108c557899161193c575b506040516310e5697360e01b81529284848a818a5afa9384156108c5578a9461191d575b50611801611178600161116d8463ffffffff16600052600c602052604060002090565b6118f6575b501680156118b957604080516323b872dd60e01b81523389820190815230602082015291820193909352839183918290600090829060600103925af180156108c55761189b575b5050813b1561025b57600080946118786040519788968795869463d813cc1960e01b86528501613fc3565b03925af180156108c55761188857005b8061189561001992610411565b80610250565b816118b192903d10610c3e57610c368183610444565b50388061184d565b505050813b1561025b576000936118e46040519687958694859463d813cc1960e01b86528501613fc3565b039134905af180156108c55761188857005b611916919950610f2c9063ffffffff16600052600c602052604060002090565b9738611806565b611935919450853d87116108be576108b08183610444565b92386117de565b6119539150843d86116113ca576113bb8183610444565b386117ba565b3461025b5760208060031936011261025b5761199861199360043561197d81610c62565b63ffffffff16600052600c602052604060002090565b614025565b818101516001600160a01b03908116929083316119b7600a8204612cee565b93604051956313aedd4b60e31b87528487600481845afa9687156108c557600097611a9c575b50803b1561025b57604051636ce5768960e11b81526001600160a01b038816600482015230602482015260448101939093526000908390606490829084905af19081156108c557611a3f9261178792611a89575b50516001600160a01b031690565b931680611a515750506100199161406c565b60405163a9059cbb60e01b81526001600160a01b03909416600485015260248401929092529190829082908160008160448101610c0f565b80611895611a9692610411565b38611a31565b611ab4919750853d87116113ca576113bb8183610444565b95386119dd565b3461025b57602036600319011261025b5763ffffffff600435611add81610c62565b16600052600c6020526060604060002060ff60018060a01b03600181845416930154906040519384528116602084015260a01c1615156040820152f35b3461025b57604036600319011261025b576020611b74600435611b3c816103b5565b60243590611b49826103b5565b60018060a01b03166000526002835260406000209060018060a01b0316600052602052604060002090565b54604051908152f35b3461025b5760031960203682011261025b57600480356001600160401b03811161025b5761018081830193823603011261025b5760248101906001600160a01b0390611bd282610f39610f2c61197d87613b0a565b601354611be7906001600160a01b0316611787565b94600a5490611bf860648401613b57565b91608484013596879560206009549560c4880194611c36611c198789613b61565b9060409a8b519d8e96879663216c908360e11b88528b8801613bc9565b03816000809e5af19687156108c5578a97611ee2575b50611c5a9087169284613b61565b95908a611c6a60e4840187613b61565b989092610104850199611c7d8b8a613b61565b90893b15611ede57611ca2928c51978896879663d1b8759b60e01b88528c8801613c06565b038183885af180156108c557611ecb575b5060a48101359182611e73575b833b15611e6f5785516374cac47d60e01b81523082820190815260006020820181905260408201819052606082018190526080820181905260a0820181905260c08201529091908c908390819060e001038183895af19182156108c5578c92611e5c575b50600a549460095495813b15611e5857838793611d658b51998a968795869463282478df60e01b865285016040919493926060820195825260208201520152565b03925af19182156108c5577f60959c5b991214a9f145caa42f648174a46bd41e2f7f92d206d2b2d07e8e26f599611e0998611e3f98611e3297611df08a610fb08f61197d90611dc79c6101449c611e45575b50611deb6101648c019d8e613c4a565b611dcf610465565b338152956001600160a01b038b16602088015286019015159052565b613b0a565b611e11611e2a611e008380613b61565b9e909484613b61565b92909f613b0a565b92611e206101248a0182613b61565b9a90990190613b61565b9a9099613c4a565b9a519d8e9d33948f613cac565b0390a180f35b80611895611e5292610411565b38611db7565b8380fd5b80611895611e6992610411565b38611d24565b8a80fd5b833b15611e6f57855163debe2b0d60e01b81528b8180611ea187868301919060206040840193600081520152565b038183895af180156108c557611eb8575b50611cc0565b80611895611ec592610411565b38611eb2565b80611895611ed892610411565b38611cb3565b8580fd5b611c5a919750611eff9060203d81116113ca576113bb8183610444565b9690611c4c565b3461025b57602036600319011261025b57600435611f23816103b5565b611f2b612012565b6001600160a01b039081168015611f7957600080546001600160a01b03198116831782559092167f8be0079c531659141344cd1fd0a4f28419497f9722a3daafe3b4186f6b6457e08380a380f35b60405162461bcd60e51b815260206004820152602660248201527f4f776e61626c653a206e6577206f776e657220697320746865207a65726f206160448201526564647265737360d01b6064820152608490fd5b3461025b57604036600319011261025b5760243560ff8116810361025b57611b746020916004356000526010835260406000209060ff16600052602052604060002090565b6000546001600160a01b0316330361202657565b606460405162461bcd60e51b815260206004820152602060248201527f4f776e61626c653a2063616c6c6572206973206e6f7420746865206f776e65726044820152fd5b634e487b7160e01b600052601160045260246000fd5b9060208201809211610a4a57565b9060028201809211610a4a57565b9060018201809211610a4a57565b91908201809211610a4a57565b156120be57565b60405162461bcd60e51b815260206004820152602360248201527f45524332303a207472616e7366657220746f20746865207a65726f206164647260448201526265737360e81b6064820152608490fd5b1561211657565b60405162461bcd60e51b815260206004820152602660248201527f45524332303a207472616e7366657220616d6f756e7420657863656564732062604482015265616c616e636560d01b6064820152608490fd5b916001600160a01b03808416929091831561223157612216827fddf252ad1be2c89b69c2b068fc378daa952ba7f163c4a11628f55a4df523b3ef9461222c9416966121b68815156120b7565b6001600160a01b03811660009081526001602052604090206121fb908590546121e18282101561210f565b039160018060a01b03166000526001602052604060002090565b556001600160a01b0316600090815260016020526040902090565b8054820190556040519081529081906020820190565b0390a3565b60405162461bcd60e51b815260206004820152602560248201527f45524332303a207472616e736665722066726f6d20746865207a65726f206164604482015264647265737360d81b6064820152608490fd5b6001600160a01b03808216929190831561235e57821693841561230e57806122fd7f8c5be1e5ebec7d5bd14f71427d1e84f3dd0314c0f7b2291e5b200ac8c7c3b925946122e661222c9560018060a01b03166000526002602052604060002090565b9060018060a01b0316600052602052604060002090565b556040519081529081906020820190565b60405162461bcd60e51b815260206004820152602260248201527f45524332303a20617070726f766520746f20746865207a65726f206164647265604482015261737360f01b6064820152608490fd5b60405162461bcd60e51b8152602060048201526024808201527f45524332303a20617070726f76652066726f6d20746865207a65726f206164646044820152637265737360e01b6064820152608490fd5b929091936123bb612012565b6123c484613ae7565b926123fa6040516123d481610429565b601481527375736572735265776172644d656368616e69736d60601b6020820152613ae7565b8414612530575b61247c612412849796975160ff1690565b956124498761242b886000526011602052604060002090565b8054909160ff60a01b1990911660a09190911b60ff60a01b16179055565b61245d866000526011602052604060002090565b80546001600160a01b0319166001600160a01b03909216919091179055565b6124998161249486600052600f602052604060002090565b6125b7565b60ff9485169560005b868116888110156124f157906124bb6124ec92876126b9565b516124e6826124d48a6000526010602052604060002090565b9060ff16600052602052604060002090565b55612685565b6124a2565b505092909361252b9296507f75667fad75521b835344aca3b0eea672769f8704aa6bebba7ed3d59ae740f07a955060405194859485612701565b0390a1565b61255a612547856000526011602052604060002090565b805460ff60a81b1916600160a81b179055565b612401565b9055565b90601f811161257157505050565b600091825260208220906020601f850160051c830194106125ad575b601f0160051c01915b8281106125a257505050565b818155600101612596565b909250829061258d565b91909182516001600160401b038111610424576125de816125d88454610d14565b84612563565b602080601f831160011461261a57508192939460009261260f575b50508160011b916000199060031b1c1916179055565b0151905038806125f9565b90601f1983169561263085600052602060002090565b926000905b88821061266d57505083600195969710612654575b505050811b019055565b015160001960f88460031b161c1916905538808061264a565b80600185968294968601518155019501930190612635565b60ff1660ff8114610a4a5760010190565b634e487b7160e01b600052603260045260246000fd5b805115610b255760200190565b8051821015610b255760209160051b010190565b90815180825260208080930193019160005b8281106126ed575050505090565b8351855293810193928101926001016126df565b906102b1949261271c61272a92608085526080850190610260565b908382036020850152610260565b92604082015260608184039101526126cd565b1561025b57565b9081602091031261025b575190565b6040513d6000823e3d90fd5b92906020926001600160401b039263ffffffff61279e604051978896879663230e93b160e11b885216600487015260a0602487015260a4860190610260565b60016044860152921660648401526084830152038160007f00000000000000000000000000000000000000000000000000000000000000006001600160a01b03165af19081156108c55760009161281a575b50807f1131472297a800fee664d1d89cfa8f7676ff07189ecc53f80bbb5f4969099db8600080a290565b612832915060203d81116108be576108b08183610444565b386127f0565b6040519061284582610429565b600c82526b31b7b232a637b1b0ba34b7b760a11b6020830152565b634e487b7160e01b600052602160045260246000fd5b6003111561288057565b612860565b6040519061289282610429565b60088252676c616e677561676560c01b6020830152565b6001111561288057565b604051906128c082610429565b6006825265736f7572636560d01b6020830152565b604051906128e282610429565b60048252636172677360e01b6020830152565b6000198114610a4a5760010190565b6040519061291182610429565b600f82526e39b2b1b932ba39a637b1b0ba34b7b760891b6020830152565b6040519061293c82610429565b60078252667365637265747360c81b6020830152565b6040519061295f82610429565b600982526862797465734172677360b81b6020830152565b61297f612b8d565b9061299161298b612838565b83613331565b6129ae815161299f81612876565b6129a881612876565b83612c4d565b6129b961298b612885565b6129d360408201516129ca816128a9565b6129a8816128a9565b6129de61298b6128b3565b6129ec606082015183613331565b60a08101805151612af1575b506080810190815151612a71575b60c0915001805151612a19575b50515190565b91612a2561298b612952565b612a2e826133b5565b60005b83518051821015612a5e5790612a54612a4d82612a59946126b9565b518561327c565b6128f5565b612a31565b50509150612a6b81613441565b38612a13565b602081018051612a8081612876565b612a8981612876565b15612adf5760c092612ac2612ada92612aa9612aa3612904565b88613331565b51612ab381612876565b612abc81612876565b86612c4d565b612ad3612acd61292f565b86613331565b518461327c565b612a06565b60405163a80d31f760e01b8152600490fd5b92612b03612afd6128d5565b84613331565b612b0c836133b5565b60005b84518051821015612b375790612a54612b2b82612b32946126b9565b5186613331565b612b0f565b50509250612b4482613441565b386129f8565b815115612b61576000808252604082015260600152565b6040516322ce3edd60e01b8152600490fd5b60405190612b8082610429565b6000602083606081520152565b604051612b9981610429565b612ba1612b73565b8082526020820160008152612bb4612b73565b50610100602083015260405180925260008252610120820191821061025b576000916040525290565b601f19810191908211610a4a57565b600119810191908211610a4a57565b90612c04612b73565b50601f811680612c33575b508060208301526040519081835260008252810160200190811061025b5760405290565b60200360208111610a4a578101809111610a4a5738612c0f565b90815191612c59612b73565b508251516001810190818111610a4a576020850151811015612cb2575b60c26020610dff9651928301015380518211612caa575b505060405191602083015260208252612ca582610429565b61327c565b523880612c8d565b8160011b9482860460021483151715610a4a57602081612ce4610dff98612cdd60c295519184612bfb565b50826131cb565b5096505050612c76565b90600782029180830460071490151715610a4a57565b908160011b9180830460021490151715610a4a57565b90670de0b6b3a764000091828102928184041490151715610a4a57565b908160021b9180830460041490151715610a4a57565b90601482029180830460141490151715610a4a57565b612d6b612b73565b508051516001810190818111610a4a576020830151811015612da4575b605b60208451928301015380518211612da057505090565b5290565b8160011b82810460021483151715610a4a57612dcd90612dc685519186612bfb565b50846131cb565b50612d88565b612ddb612b73565b508051516001810190818111610a4a576020830151811015612e10575b605a60208451928301015380518211612da057505090565b8160011b82810460021483151715610a4a57612e3290612dc685519186612bfb565b50612df8565b612e40612b73565b508051516001810190818111610a4a576020830151811015612e75575b605960208451928301015380518211612da057505090565b8160011b82810460021483151715610a4a57612e9790612dc685519186612bfb565b50612e5d565b612ea5612b73565b508051516001810190818111610a4a576020830151811015612eda575b605860208451928301015380518211612da057505090565b8160011b82810460021483151715610a4a57612efc90612dc685519186612bfb565b50612ec2565b612f0a612b73565b508051516001810190818111610a4a576020830151811015612f3f575b607b60208451928301015380518211612da057505090565b8160011b82810460021483151715610a4a57612f6190612dc685519186612bfb565b50612f27565b612f6f612b73565b508051516001810190818111610a4a576020830151811015612fa4575b607a60208451928301015380518211612da057505090565b8160011b82810460021483151715610a4a57612fc690612dc685519186612bfb565b50612f8c565b612fd4612b73565b508051516001810190818111610a4a576020830151811015613009575b607960208451928301015380518211612da057505090565b8160011b82810460021483151715610a4a5761302b90612dc685519186612bfb565b50612ff1565b613039612b73565b508051516001810190818111610a4a57602083015181101561306e575b607860208451928301015380518211612da057505090565b8160011b82810460021483151715610a4a5761309090612dc685519186612bfb565b50613056565b9061309f612b73565b508151516001810191828211610a4a5760208401518210156130d2575b60208451928301015380518211612da057505090565b8260011b83810460021484151715610a4a576130fb906130f486519187612bfb565b50856131cb565b506130bc565b9061310e82519183612bfb565b50613117612b73565b50805190613123612b73565b50613131815183111561273d565b8251519261313f83856120aa565b9160209282848094015182116131b4575b51838151978201019682116131ac575b505001915b818110156131865760001991036101000a0190811990511690825116179052565b91926131a161319b6131a79286518152612080565b94612080565b92612bdd565b613165565b523880613160565b6131c66131c083612d04565b82613101565b613150565b906131d4612b73565b5080516131df612b73565b506131ed825182111561273d565b825151916131fb82846120aa565b6020918291828701518111613265575b86518381519782010196821161325d575b505001915b818110156132435760001991036101000a019081199051169082511617905290565b91926131a161319b6132589286518152612080565b613221565b52388061321c565b61327761327182612d04565b88613101565b61320b565b81516132b39291906001600160401b03811690601782116132b6576132ab9150604060ff845192161790613096565b505b516131cb565b50565b5060ff81116132db576132d5906132cd8351612e9d565b50825161360a565b506132ad565b61ffff81116132fa576132d5906132f28351612e38565b5082516135a3565b63ffffffff811161331b576132d5906133138351612dd3565b50825161353a565b6132d5906133298351612d63565b5082516134ce565b81516132b39291906001600160401b0381169060178211613360576132ab9150606060ff845192161790613096565b5060ff8111613377576132d5906132cd8351613031565b61ffff811161338e576132d5906132f28351612fcc565b63ffffffff81116133a7576132d5906133138351612f67565b6132d5906133298351612f02565b8051906133c0612b73565b508151516001810190818111610a4a57602084015181101561340e575b609f6020809551928301015380518211613406575b50500180519060018201809211610a4a5752565b5238806133f2565b8160011b9382850460021483151715610a4a576020816134378297612cdd609f95519184612bfb565b50955050506133dd565b80519061344c612b73565b508151516001810190818111610a4a57602084015181101561349b575b60ff6020809551928301015380518211613493575b5050018051600019810191908211610a4a5752565b52388061347e565b8160011b9382850460021483151715610a4a576020816134c48297612cdd60ff95519184612bfb565b5095505050613469565b906134d7612b73565b50815151806008019182600811610a4a5760208401518311613519575b6008845192830101906001600160401b031982511617905280518211612da057505090565b8260011b83810460021484151715610a4a576135359085613101565b6134f4565b90613543612b73565b50815151806004019182600411610a4a5760208401518311613582575b60048451928301019063ffffffff1982511617905280518211612da057505090565b8260011b83810460021484151715610a4a5761359e9085613101565b613560565b906135ac612b73565b50815151806002019182600211610a4a57602084015183116135e9575b60028451928301019061ffff1982511617905280518211612da057505090565b8260011b83810460021484151715610a4a576136059085613101565b6135c9565b90613613612b73565b50815151806001019182600111610a4a576020840151831161364f575b60018451928301019060ff1982511617905280518211612da057505090565b8260011b83810460021484151715610a4a5761366b9085613101565b613630565b6102b19392606092825260208201528160408201520190610260565b1561369357565b60405162461bcd60e51b815260206004820152601060248201526f105b1c9958591e48195e1958dd5d195960821b6044820152606490fd5b604051906136d882610429565b6001825260203681840137565b906136ef826104e6565b6136fc6040519182610444565b828152809261370d601f19916104e6565b0190602036910137565b90815180825260208080930193019160005b828110613737575050505090565b83516001600160a01b031685529381019392810192600101613729565b909493919460808201908252602095868301526080604083015283518091528560a0830194019060005b81811061379b575050506102b19394506060818403910152613717565b825163ffffffff168652948701949187019160010161377e565b906137dd6137d76137d0846000526012602052604060002090565b5460ff1690565b1561368c565b6138016137f4836000526012602052604060002090565b805460ff19166001179055565b60019182613819826000526012602052604060002090565b01549061383d613833836000526011602052604060002090565b5460a01c60ff1690565b61385e613854846000526011602052604060002090565b5460a81c60ff1690565b15613937579361386c6136cb565b908061388d6138886114a186600052600e602052604060002090565b61462d565b96600060ff809216925b6138d3575b505050507f20b6c14dda6c40c205794d98587c7cce19676f970b5bc3d8e0badf35dcf50b57939461252b9160405194859485613754565b8181168381101561393157906139266138ff6138f261392b948d6126b9565b516001600160a01b031690565b61392061391a846124d48d6000526010602052604060002090565b54612d1a565b90613a2d565b612685565b83613897565b5061389c565b6139586139536114a1849794600052600e602052604060002090565b61416c565b9061396660ff8092166136e5565b926000815b6139a7575b5050507f20b6c14dda6c40c205794d98587c7cce19676f970b5bc3d8e0badf35dcf50b5793949161252b9160405194859485613754565b6139c76139c1613833886000526011602052604060002090565b60ff1690565b83821690811015613a27579061392661119b613a06846139fd610f2c61197d6139f3613a21998d6126b9565b5163ffffffff1690565b9283918b6126b9565b61392061391a846124d48c6000526010602052604060002090565b8161396b565b50613970565b6001600160a01b03811691908215613aa25760035490828201809211610a4a57600092613a936020927fddf252ad1be2c89b69c2b068fc378daa952ba7f163c4a11628f55a4df523b3ef9460035560018060a01b03166000526001602052604060002090565b818154019055604051908152a3565b60405162461bcd60e51b815260206004820152601f60248201527f45524332303a206d696e7420746f20746865207a65726f2061646472657373006044820152606490fd5b604051613b0481610b0b6020820194602086526040830190610260565b51902090565b356102b181610c62565b15613b1b57565b60405162461bcd60e51b81526020600482015260146024820152736167656e7420616c72656164792065786973747360601b6044820152606490fd5b356102b1816103b5565b903590601e198136030182121561025b57018035906001600160401b03821161025b5760200191813603831361025b57565b9081602091031261025b57516102b1816103b5565b908060209392818452848401376000828201840152601f01601f1916010190565b96959093613c01936000969360a0968a52600180881b031660208a01526040890152606088015260c0608088015260c0870191613ba8565b930152565b94929093613c246102b19795613c3294606089526060890191613ba8565b918683036020880152613ba8565b926040818503910152613ba8565b8015150361025b57565b356102b181613c40565b815181546001600160a01b03199081166001600160a01b039283161783556020840151600190930180549390921692169190911781559061255f9060400151825460ff60a01b191690151560a01b60ff60a01b161790565b9d9e9d604063ffffffff829f9b966101209f9d989a9496613d259f9a9691613c24613d169e99613ce494610140808a52890191613ba8565b99169101526001600160a01b0391821660608e01521660808c015260a08b015260c08a015288830360e08a0152613ba8565b91858303610100870152613ba8565b931515910152565b15613d3457565b60405162461bcd60e51b815260206004820152602360248201527f6167656e74206973206e6f74206f70656e20666f7220636f6e747269627574696044820152626f6e7360e81b6064820152608490fd5b9190613dac6102b19694959263ffffffff809316855260a0602086015260a0850190610260565b941660408301526001600160a01b03166060820152808303608090910152610260565b15613dd657565b60405162461bcd60e51b81526020600482015260156024820152746167656e7420646f6573206e6f742065786973747360581b6044820152606490fd5b604051613e1f81610429565b600181528060005b602080821015613e4257906060602092828501015201613e27565b50505090565b602090818184031261025b578051906001600160401b03821161025b57019180601f8401121561025b578251613e7d816104e6565b93613e8b6040519586610444565b818552838086019260051b82010192831161025b578301905b828210613eb2575050505090565b81518152908301908301613ea4565b9390613f0b9293613eef613ee0613efd9360a0895260a08901906126cd565b602096888203888a0152613717565b908682036040880152613717565b908482036060860152613717565b9160808184039101528251908183528083019281808460051b8301019501936000915b848310613f3e5750505050505090565b9091929394958480613f5c600193601f198682030187528a51610260565b9801930193019194939290613f2e565b9081602091031261025b57516102b181613c40565b93919260809363ffffffff613fac93989798168652602086015260a0604086015260a0850190610260565b6001600160a01b0391821660608501529416910152565b9193929082526020938483015260018060a01b03166040820152608080606083015260605190818184015260005b82811061401357505060a09293506000838284010152601f8019910116010190565b8181015184820160a001528501613ff1565b90604051606081018181106001600160401b0382111761042457604052604060ff82946001808060a01b03918281541686520154908116602085015260a01c161515910152565b814710614127576000918291829182916001600160a01b03165af13d15614122573d61409781610484565b906140a56040519283610444565b8152600060203d92013e5b156140b757565b60405162461bcd60e51b815260206004820152603a60248201527f416464726573733a20756e61626c6520746f2073656e642076616c75652c207260448201527f6563697069656e74206d617920686176652072657665727465640000000000006064820152608490fd5b6140b0565b60405162461bcd60e51b815260206004820152601d60248201527f416464726573733a20696e73756666696369656e742062616c616e63650000006044820152606490fd5b6141759061439f565b60038151166141d65761419161418c825160021c90565b6136e5565b9060005b82518110156141d15780612a546141b76141b16141cc94612d37565b856145d7565b6141c183876126b9565b9063ffffffff169052565b614195565b505090565b60405162461bcd60e51b815260206004820152602360248201527f44617461206c656e677468206d7573742062652061206d756c7469706c65206f60448201526219880d60ea1b6064820152608490fd5b1561422e57565b60405162461bcd60e51b815260206004820152602560248201527f536f7572636520737472696e67206e6f742070726f7065726c7920666f726d616044820152643a3a32b21760d91b6064820152608490fd5b805160011015610b255760210190565b908151811015610b25570160200190565b156142a957565b60405162461bcd60e51b815260206004820152602360248201527f536f7572636520737472696e67206d75737420737461727420776974682027306044820152623c139760e91b6064820152608490fd5b604051602081018181106001600160401b038211176104245760405260008152906000368137565b6040519061432f82610429565b6014825260203681840137565b9061434682610484565b6143536040519182610444565b828152809261370d601f1991610484565b60041b90610ff060f0831692168203610a4a57565b60ff600a9116019060ff8211610a4a57565b9060ff8091169116019060ff8211610a4a57565b906143ae600283511015614227565b6143e96001600160f81b0319600360fc1b816143da6143cc876126ac565b516001600160f81b03191690565b161490816144a2575b506142a2565b60028251146144985761440d6144086144028451612bec565b60011c90565b61433c565b60025b8351811015614493578061446e61445e61444061443b6144366143cc61448e978b614291565b61451b565b614364565b6144586144366143cc6144528761209c565b8b614291565b9061438b565b60f81b6001600160f81b03191690565b61448861447d61440284612bec565b9160001a9185614291565b5361208e565b614410565b509150565b90506102b16142fa565b9050600f60fb1b816144b66143cc87614281565b16149081156144c7575b50386143e3565b600b60fb1b91506144da6143cc86614281565b1614386144c0565b60ff602f199116019060ff8211610a4a57565b60ff6060199116019060ff8211610a4a57565b60ff6040199116019060ff8211610a4a57565b60f81c6030811015806145cc575b6145c3576061811015806145b8575b6145ac576041811015806145a1575b6145905760405162461bcd60e51b815260206004820152601b60248201527f496e76616c69642063686172616374657220696e20737472696e6700000000006044820152606490fd5b61459c6102b191614508565b614379565b506046811115614547565b61459c6102b1916144f5565b506066811115614538565b6102b1906144e2565b506039811115614529565b9060048101808211610a4a578251106145f257016004015190565b60405162461bcd60e51b8152602060048201526013602482015272496e646578206f7574206f6620626f756e647360681b6044820152606490fd5b6146369061439f565b6014808251066146d05781516014900490614650826136e5565b92600090815b84811061466557505050505090565b8361466e614322565b845b828110614692575061468d9291612a5491015161119b838a6126b9565b614656565b6146c89192506146b66143cc6146b0836146ab88612d4d565b6120aa565b87614291565b861a6146c28285614291565b536128f5565b908591614670565b60405162461bcd60e51b815260206004820152602a60248201527f44617461206c656e677468206d7573742062652061206d756c7469706c65206f6044820152696620323020627974657360b01b6064820152608490fdfea2646970667358221220f1fb224b7e537fa9d1640e6b6632ce6ef9e3d2c57e521f29fc059f60910310dd64736f6c63430008140033",
  "devdoc": {
    "events": {
      "Approval(address,address,uint256)": {
        "details": "Emitted when the allowance of a `spender` for an `owner` is set by a call to {approve}. `value` is the new allowance."
      },
      "Transfer(address,address,uint256)": {
        "details": "Emitted when `value` tokens are moved from one account (`from`) to another (`to`). Note that `value` may be zero."
      }
    },
    "kind": "dev",
    "methods": {
      "addRewardMechanism(string,string,address,uint256[])": {
        "details": "Only callable by the owner",
        "params": {
          "_functionForwader": "chainlink automation forwarder address",
          "_rewardDistributions": "the reward distributions for the topK agents",
          "_sourceCode": "sourceID to Forwarder address",
          "_sourceName": "sourceID to Forwarder address"
        }
      },
      "allowance(address,address)": {
        "details": "See {IERC20-allowance}."
      },
      "approve(address,uint256)": {
        "details": "See {IERC20-approve}. NOTE: If `amount` is the maximum `uint256`, the allowance is not updated on `transferFrom`. This is semantically equivalent to an infinite approval. Requirements: - `spender` cannot be the zero address."
      },
      "balanceOf(address)": {
        "details": "See {IERC20-balanceOf}."
      },
      "constructor": {
        "params": {
          "_donID": "Chainlink's contract chainID => donID",
          "_oracle": "The address of the Chainlink Function oracle",
          "_subscriptionId": "The subscription ID for Chainlink Functions",
          "_unlockContract": "The address of the Chainlink oracle Automation Forwarder"
        }
      },
      "decimals()": {
        "details": "Returns the number of decimals used to get its user representation. For example, if `decimals` equals `2`, a balance of `505` tokens should be displayed to a user as `5.05` (`505 / 10 ** 2`). Tokens usually opt for a value of 18, imitating the relationship between Ether and Wei. This is the default value returned by this function, unless it's overridden. NOTE: This information is only used for _display_ purposes: it in no way affects any of the arithmetic of the contract, including {IERC20-balanceOf} and {IERC20-transfer}."
      },
      "decreaseAllowance(address,uint256)": {
        "details": "Atomically decreases the allowance granted to `spender` by the caller. This is an alternative to {approve} that can be used as a mitigation for problems described in {IERC20-approve}. Emits an {Approval} event indicating the updated allowance. Requirements: - `spender` cannot be the zero address. - `spender` must have allowance for the caller of at least `subtractedValue`."
      },
      "handleOracleFulfillment(bytes32,bytes,bytes)": {
        "details": "Either response or error parameter will be set, but never both.",
        "params": {
          "err": "Aggregated error either from the request's source code or from the execution pipeline.",
          "requestId": "The requestId returned by FunctionsClient.sendRequest().",
          "response": "Aggregated response from the request's source code."
        }
      },
      "increaseAllowance(address,uint256)": {
        "details": "Atomically increases the allowance granted to `spender` by the caller. This is an alternative to {approve} that can be used as a mitigation for problems described in {IERC20-approve}. Emits an {Approval} event indicating the updated allowance. Requirements: - `spender` cannot be the zero address."
      },
      "name()": {
        "details": "Returns the name of the token."
      },
      "owner()": {
        "details": "Returns the address of the current owner."
      },
      "purchaseSubscription(uint32,uint256,string)": {
        "details": "PurchaseSubscription function for an agentID",
        "params": {
          "_agentID": "to subscribe",
          "_value": "array of tokens amount to pay for this purchase >= the current keyPrice - any applicable discount"
        }
      },
      "renounceOwnership()": {
        "details": "Leaves the contract without owner. It will not be possible to call `onlyOwner` functions. Can only be called by the current owner. NOTE: Renouncing ownership will leave the contract without an owner, thereby disabling any functionality that is only available to the owner."
      },
      "sendRequest(bytes32)": {
        "params": {
          "sourceID": "The ID of the source to send the request to"
        }
      },
      "symbol()": {
        "details": "Returns the symbol of the token, usually a shorter version of the name."
      },
      "totalSupply()": {
        "details": "See {IERC20-totalSupply}."
      },
      "transfer(address,uint256)": {
        "details": "See {IERC20-transfer}. Requirements: - `to` cannot be the zero address. - the caller must have a balance of at least `amount`."
      },
      "transferFrom(address,address,uint256)": {
        "details": "See {IERC20-transferFrom}. Emits an {Approval} event indicating the updated allowance. This is not required by the EIP. See the note at the beginning of {ERC20}. NOTE: Does not update the allowance if the current allowance is the maximum `uint256`. Requirements: - `from` and `to` cannot be the zero address. - `from` must have a balance of at least `amount`. - the caller must have allowance for ``from``'s tokens of at least `amount`."
      },
      "transferOwnership(address)": {
        "details": "Transfers ownership of the contract to a new account (`newOwner`). Can only be called by the current owner."
      },
      "withdraw(uint32)": {
        "details": "withdraw function for an agentID",
        "params": {
          "_agentID": "to withdraw money from the lock contract"
        }
      }
    },
    "title": "RocketAI (Decentralized Artificial Intelligence Marketplace)",
    "version": 1
  },
  "userdoc": {
    "kind": "user",
    "methods": {
      "addRewardMechanism(string,string,address,uint256[])": {
        "notice": "Set the setRewardMechanism that `performUpkeep` is called from a trusted address the chainlink forwarder"
      },
      "constructor": {
        "notice": "Initializes the contract"
      },
      "handleOracleFulfillment(bytes32,bytes,bytes)": {
        "notice": "Chainlink Functions response handler called by the Functions Router during fullilment from the designated transmitter node in an OCR round."
      },
      "sendRequest(bytes32)": {
        "notice": "Sends an HTTP request for character information"
      },
      "withdraw(uint32)": {
        "notice": "We give back to the agent creator 70% of the total income from that agent the platform keeps 30% of that amount"
      }
    },
    "notice": "@dev",
    "version": 1
  },
  "storageLayout": {
    "storage": [
      {
        "astId": 2508,
        "contract": "contracts/RocketAI.sol:RocketAI",
        "label": "_owner",
        "offset": 0,
        "slot": "0",
        "type": "t_address"
      },
      {
        "astId": 2629,
        "contract": "contracts/RocketAI.sol:RocketAI",
        "label": "_balances",
        "offset": 0,
        "slot": "1",
        "type": "t_mapping(t_address,t_uint256)"
      },
      {
        "astId": 2635,
        "contract": "contracts/RocketAI.sol:RocketAI",
        "label": "_allowances",
        "offset": 0,
        "slot": "2",
        "type": "t_mapping(t_address,t_mapping(t_address,t_uint256))"
      },
      {
        "astId": 2637,
        "contract": "contracts/RocketAI.sol:RocketAI",
        "label": "_totalSupply",
        "offset": 0,
        "slot": "3",
        "type": "t_uint256"
      },
      {
        "astId": 2639,
        "contract": "contracts/RocketAI.sol:RocketAI",
        "label": "_name",
        "offset": 0,
        "slot": "4",
        "type": "t_string_storage"
      },
      {
        "astId": 2641,
        "contract": "contracts/RocketAI.sol:RocketAI",
        "label": "_symbol",
        "offset": 0,
        "slot": "5",
        "type": "t_string_storage"
      },
      {
        "astId": 5861,
        "contract": "contracts/RocketAI.sol:RocketAI",
        "label": "subscriptionId",
        "offset": 0,
        "slot": "6",
        "type": "t_uint64"
      },
      {
        "astId": 5863,
        "contract": "contracts/RocketAI.sol:RocketAI",
        "label": "agentPlaceTreasury",
        "offset": 0,
        "slot": "7",
        "type": "t_uint256"
      },
      {
        "astId": 5865,
        "contract": "contracts/RocketAI.sol:RocketAI",
        "label": "oracle",
        "offset": 0,
        "slot": "8",
        "type": "t_address"
      },
      {
        "astId": 5868,
        "contract": "contracts/RocketAI.sol:RocketAI",
        "label": "gasLimit",
        "offset": 20,
        "slot": "8",
        "type": "t_uint32"
      },
      {
        "astId": 5875,
        "contract": "contracts/RocketAI.sol:RocketAI",
        "label": "max",
        "offset": 0,
        "slot": "9",
        "type": "t_uint256"
      },
      {
        "astId": 5878,
        "contract": "contracts/RocketAI.sol:RocketAI",
        "label": "month",
        "offset": 0,
        "slot": "10",
        "type": "t_uint256"
      },
      {
        "astId": 5880,
        "contract": "contracts/RocketAI.sol:RocketAI",
        "label": "donID",
        "offset": 0,
        "slot": "11",
        "type": "t_bytes32"
      },
      {
        "astId": 5904,
        "contract": "contracts/RocketAI.sol:RocketAI",
        "label": "agents",
        "offset": 0,
        "slot": "12",
        "type": "t_mapping(t_uint32,t_struct(AgentStruct)5887_storage)"
      },
      {
        "astId": 5908,
        "contract": "contracts/RocketAI.sol:RocketAI",
        "label": "agentVersions",
        "offset": 0,
        "slot": "13",
        "type": "t_mapping(t_uint32,t_uint32)"
      },
      {
        "astId": 5912,
        "contract": "contracts/RocketAI.sol:RocketAI",
        "label": "roundWinners",
        "offset": 0,
        "slot": "14",
        "type": "t_mapping(t_bytes32,t_bytes_storage)"
      },
      {
        "astId": 5916,
        "contract": "contracts/RocketAI.sol:RocketAI",
        "label": "sources",
        "offset": 0,
        "slot": "15",
        "type": "t_mapping(t_bytes32,t_string_storage)"
      },
      {
        "astId": 5922,
        "contract": "contracts/RocketAI.sol:RocketAI",
        "label": "rewardDistributions",
        "offset": 0,
        "slot": "16",
        "type": "t_mapping(t_bytes32,t_mapping(t_uint8,t_uint256))"
      },
      {
        "astId": 5927,
        "contract": "contracts/RocketAI.sol:RocketAI",
        "label": "functionData",
        "offset": 0,
        "slot": "17",
        "type": "t_mapping(t_bytes32,t_struct(FunctionData)5899_storage)"
      },
      {
        "astId": 5932,
        "contract": "contracts/RocketAI.sol:RocketAI",
        "label": "requestData",
        "offset": 0,
        "slot": "18",
        "type": "t_mapping(t_bytes32,t_struct(RequestData)5892_storage)"
      },
      {
        "astId": 6382,
        "contract": "contracts/RocketAI.sol:RocketAI",
        "label": "unlockContract",
        "offset": 0,
        "slot": "19",
        "type": "t_contract(IUnlockV12)5830"
      }
    ],
    "types": {
      "t_address": {
        "encoding": "inplace",
        "label": "address",
        "numberOfBytes": "20"
      },
      "t_bool": {
        "encoding": "inplace",
        "label": "bool",
        "numberOfBytes": "1"
      },
      "t_bytes32": {
        "encoding": "inplace",
        "label": "bytes32",
        "numberOfBytes": "32"
      },
      "t_bytes_storage": {
        "encoding": "bytes",
        "label": "bytes",
        "numberOfBytes": "32"
      },
      "t_contract(IUnlockV12)5830": {
        "encoding": "inplace",
        "label": "contract IUnlockV12",
        "numberOfBytes": "20"
      },
      "t_mapping(t_address,t_mapping(t_address,t_uint256))": {
        "encoding": "mapping",
        "key": "t_address",
        "label": "mapping(address => mapping(address => uint256))",
        "numberOfBytes": "32",
        "value": "t_mapping(t_address,t_uint256)"
      },
      "t_mapping(t_address,t_uint256)": {
        "encoding": "mapping",
        "key": "t_address",
        "label": "mapping(address => uint256)",
        "numberOfBytes": "32",
        "value": "t_uint256"
      },
      "t_mapping(t_bytes32,t_bytes_storage)": {
        "encoding": "mapping",
        "key": "t_bytes32",
        "label": "mapping(bytes32 => bytes)",
        "numberOfBytes": "32",
        "value": "t_bytes_storage"
      },
      "t_mapping(t_bytes32,t_mapping(t_uint8,t_uint256))": {
        "encoding": "mapping",
        "key": "t_bytes32",
        "label": "mapping(bytes32 => mapping(uint8 => uint256))",
        "numberOfBytes": "32",
        "value": "t_mapping(t_uint8,t_uint256)"
      },
      "t_mapping(t_bytes32,t_string_storage)": {
        "encoding": "mapping",
        "key": "t_bytes32",
        "label": "mapping(bytes32 => string)",
        "numberOfBytes": "32",
        "value": "t_string_storage"
      },
      "t_mapping(t_bytes32,t_struct(FunctionData)5899_storage)": {
        "encoding": "mapping",
        "key": "t_bytes32",
        "label": "mapping(bytes32 => struct ChainlinkConsumer.FunctionData)",
        "numberOfBytes": "32",
        "value": "t_struct(FunctionData)5899_storage"
      },
      "t_mapping(t_bytes32,t_struct(RequestData)5892_storage)": {
        "encoding": "mapping",
        "key": "t_bytes32",
        "label": "mapping(bytes32 => struct ChainlinkConsumer.RequestData)",
        "numberOfBytes": "32",
        "value": "t_struct(RequestData)5892_storage"
      },
      "t_mapping(t_uint32,t_struct(AgentStruct)5887_storage)": {
        "encoding": "mapping",
        "key": "t_uint32",
        "label": "mapping(uint32 => struct ChainlinkConsumer.AgentStruct)",
        "numberOfBytes": "32",
        "value": "t_struct(AgentStruct)5887_storage"
      },
      "t_mapping(t_uint32,t_uint32)": {
        "encoding": "mapping",
        "key": "t_uint32",
        "label": "mapping(uint32 => uint32)",
        "numberOfBytes": "32",
        "value": "t_uint32"
      },
      "t_mapping(t_uint8,t_uint256)": {
        "encoding": "mapping",
        "key": "t_uint8",
        "label": "mapping(uint8 => uint256)",
        "numberOfBytes": "32",
        "value": "t_uint256"
      },
      "t_string_storage": {
        "encoding": "bytes",
        "label": "string",
        "numberOfBytes": "32"
      },
      "t_struct(AgentStruct)5887_storage": {
        "encoding": "inplace",
        "label": "struct ChainlinkConsumer.AgentStruct",
        "members": [
          {
            "astId": 5882,
            "contract": "contracts/RocketAI.sol:RocketAI",
            "label": "creator",
            "offset": 0,
            "slot": "0",
            "type": "t_address"
          },
          {
            "astId": 5884,
            "contract": "contracts/RocketAI.sol:RocketAI",
            "label": "lockAddress",
            "offset": 0,
            "slot": "1",
            "type": "t_address"
          },
          {
            "astId": 5886,
            "contract": "contracts/RocketAI.sol:RocketAI",
            "label": "isOpenForContributions",
            "offset": 20,
            "slot": "1",
            "type": "t_bool"
          }
        ],
        "numberOfBytes": "64"
      },
      "t_struct(FunctionData)5899_storage": {
        "encoding": "inplace",
        "label": "struct ChainlinkConsumer.FunctionData",
        "members": [
          {
            "astId": 5894,
            "contract": "contracts/RocketAI.sol:RocketAI",
            "label": "functionForwarder",
            "offset": 0,
            "slot": "0",
            "type": "t_address"
          },
          {
            "astId": 5896,
            "contract": "contracts/RocketAI.sol:RocketAI",
            "label": "numberOfWinners",
            "offset": 20,
            "slot": "0",
            "type": "t_uint8"
          },
          {
            "astId": 5898,
            "contract": "contracts/RocketAI.sol:RocketAI",
            "label": "usersOrAgents",
            "offset": 21,
            "slot": "0",
            "type": "t_bool"
          }
        ],
        "numberOfBytes": "32"
      },
      "t_struct(RequestData)5892_storage": {
        "encoding": "inplace",
        "label": "struct ChainlinkConsumer.RequestData",
        "members": [
          {
            "astId": 5889,
            "contract": "contracts/RocketAI.sol:RocketAI",
            "label": "executed",
            "offset": 0,
            "slot": "0",
            "type": "t_bool"
          },
          {
            "astId": 5891,
            "contract": "contracts/RocketAI.sol:RocketAI",
            "label": "sourceID",
            "offset": 0,
            "slot": "1",
            "type": "t_bytes32"
          }
        ],
        "numberOfBytes": "64"
      },
      "t_uint256": {
        "encoding": "inplace",
        "label": "uint256",
        "numberOfBytes": "32"
      },
      "t_uint32": {
        "encoding": "inplace",
        "label": "uint32",
        "numberOfBytes": "4"
      },
      "t_uint64": {
        "encoding": "inplace",
        "label": "uint64",
        "numberOfBytes": "8"
      },
      "t_uint8": {
        "encoding": "inplace",
        "label": "uint8",
        "numberOfBytes": "1"
      }
    }
  }
}