{
  "address": "0x5f8c4f815e6B73Ea07aafc03E0dD9b7e37319804",
  "abi": [
    {
      "inputs": [
        {
          "internalType": "address",
          "name": "_oracle",
          "type": "address"
        },
        {
          "internalType": "contract IUnlockV12",
          "name": "_unlockContract",
          "type": "address"
        },
        {
          "internalType": "bytes32",
          "name": "_donID",
          "type": "bytes32"
        },
        {
          "internalType": "uint64",
          "name": "_subscriptionId",
          "type": "uint64"
        }
      ],
      "stateMutability": "nonpayable",
      "type": "constructor"
    },
    {
      "inputs": [],
      "name": "EmptySource",
      "type": "error"
    },
    {
      "inputs": [],
      "name": "NoInlineSecrets",
      "type": "error"
    },
    {
      "inputs": [],
      "name": "OnlyRouterCanFulfill",
      "type": "error"
    },
    {
      "inputs": [
        {
          "internalType": "bytes32",
          "name": "requestId",
          "type": "bytes32"
        }
      ],
      "name": "UnexpectedRequestID",
      "type": "error"
    },
    {
      "anonymous": false,
      "inputs": [
        {
          "indexed": true,
          "internalType": "address",
          "name": "owner",
          "type": "address"
        },
        {
          "indexed": true,
          "internalType": "address",
          "name": "spender",
          "type": "address"
        },
        {
          "indexed": false,
          "internalType": "uint256",
          "name": "value",
          "type": "uint256"
        }
      ],
      "name": "Approval",
      "type": "event"
    },
    {
      "anonymous": false,
      "inputs": [
        {
          "indexed": true,
          "internalType": "address",
          "name": "previousOwner",
          "type": "address"
        },
        {
          "indexed": true,
          "internalType": "address",
          "name": "newOwner",
          "type": "address"
        }
      ],
      "name": "OwnershipTransferred",
      "type": "event"
    },
    {
      "anonymous": false,
      "inputs": [
        {
          "indexed": true,
          "internalType": "bytes32",
          "name": "id",
          "type": "bytes32"
        }
      ],
      "name": "RequestFulfilled",
      "type": "event"
    },
    {
      "anonymous": false,
      "inputs": [
        {
          "indexed": true,
          "internalType": "bytes32",
          "name": "id",
          "type": "bytes32"
        }
      ],
      "name": "RequestSent",
      "type": "event"
    },
    {
      "anonymous": false,
      "inputs": [
        {
          "indexed": false,
          "internalType": "bytes32",
          "name": "requestId",
          "type": "bytes32"
        },
        {
          "indexed": false,
          "internalType": "bytes32",
          "name": "sourceID",
          "type": "bytes32"
        },
        {
          "indexed": false,
          "internalType": "uint16[]",
          "name": "topkAgents",
          "type": "uint16[]"
        }
      ],
      "name": "RoundRewardsDistributed",
      "type": "event"
    },
    {
      "anonymous": false,
      "inputs": [
        {
          "indexed": false,
          "internalType": "bytes32",
          "name": "requestId",
          "type": "bytes32"
        },
        {
          "indexed": false,
          "internalType": "bytes32",
          "name": "sourceID",
          "type": "bytes32"
        },
        {
          "indexed": false,
          "internalType": "bytes",
          "name": "response",
          "type": "bytes"
        }
      ],
      "name": "RoundWinners",
      "type": "event"
    },
    {
      "anonymous": false,
      "inputs": [
        {
          "indexed": true,
          "internalType": "address",
          "name": "from",
          "type": "address"
        },
        {
          "indexed": true,
          "internalType": "address",
          "name": "to",
          "type": "address"
        },
        {
          "indexed": false,
          "internalType": "uint256",
          "name": "value",
          "type": "uint256"
        }
      ],
      "name": "Transfer",
      "type": "event"
    },
    {
      "anonymous": false,
      "inputs": [
        {
          "indexed": false,
          "internalType": "string",
          "name": "agentName",
          "type": "string"
        },
        {
          "indexed": false,
          "internalType": "uint16",
          "name": "agentID",
          "type": "uint16"
        },
        {
          "indexed": false,
          "internalType": "address",
          "name": "creator",
          "type": "address"
        },
        {
          "indexed": false,
          "internalType": "address",
          "name": "unlockSubscriptionContract",
          "type": "address"
        },
        {
          "indexed": false,
          "internalType": "uint256",
          "name": "keyPrice",
          "type": "uint256"
        },
        {
          "indexed": false,
          "internalType": "uint256",
          "name": "basisPoint",
          "type": "uint256"
        },
        {
          "indexed": false,
          "internalType": "string",
          "name": "categories",
          "type": "string"
        },
        {
          "indexed": false,
          "internalType": "bool",
          "name": "isOpenForContributions",
          "type": "bool"
        }
      ],
      "name": "agentRegistered",
      "type": "event"
    },
    {
      "anonymous": false,
      "inputs": [
        {
          "indexed": false,
          "internalType": "uint16",
          "name": "agentID",
          "type": "uint16"
        },
        {
          "indexed": false,
          "internalType": "uint256",
          "name": "tokenId",
          "type": "uint256"
        },
        {
          "indexed": false,
          "internalType": "address",
          "name": "agentCreator",
          "type": "address"
        },
        {
          "indexed": false,
          "internalType": "address",
          "name": "subscriber",
          "type": "address"
        }
      ],
      "name": "agentSubscriptionPurchased",
      "type": "event"
    },
    {
      "anonymous": false,
      "inputs": [
        {
          "indexed": false,
          "internalType": "uint16",
          "name": "agentID",
          "type": "uint16"
        },
        {
          "indexed": false,
          "internalType": "string",
          "name": "agentVersionName",
          "type": "string"
        },
        {
          "indexed": false,
          "internalType": "uint16",
          "name": "agentVersionID",
          "type": "uint16"
        },
        {
          "indexed": false,
          "internalType": "address",
          "name": "creator",
          "type": "address"
        },
        {
          "indexed": false,
          "internalType": "string",
          "name": "agentMetadataCID",
          "type": "string"
        }
      ],
      "name": "agentVersionRegistered",
      "type": "event"
    },
    {
      "anonymous": false,
      "inputs": [
        {
          "indexed": false,
          "internalType": "string",
          "name": "sourceName",
          "type": "string"
        },
        {
          "indexed": false,
          "internalType": "string",
          "name": "sourceCode",
          "type": "string"
        },
        {
          "indexed": false,
          "internalType": "bytes32",
          "name": "sourceID",
          "type": "bytes32"
        },
        {
          "indexed": false,
          "internalType": "uint256[]",
          "name": "rewardDistributions",
          "type": "uint256[]"
        }
      ],
      "name": "rewardMechanismRegistered",
      "type": "event"
    },
    {
      "inputs": [
        {
          "internalType": "string",
          "name": "_sourceName",
          "type": "string"
        },
        {
          "internalType": "string",
          "name": "_sourceCode",
          "type": "string"
        },
        {
          "internalType": "address",
          "name": "_functionForwader",
          "type": "address"
        },
        {
          "internalType": "uint256[]",
          "name": "_rewardDistributions",
          "type": "uint256[]"
        }
      ],
      "name": "addRewardMechanism",
      "outputs": [],
      "stateMutability": "nonpayable",
      "type": "function"
    },
    {
      "inputs": [
        {
          "internalType": "uint16",
          "name": "",
          "type": "uint16"
        }
      ],
      "name": "agentVersions",
      "outputs": [
        {
          "internalType": "uint16",
          "name": "",
          "type": "uint16"
        }
      ],
      "stateMutability": "view",
      "type": "function"
    },
    {
      "inputs": [
        {
          "internalType": "uint16",
          "name": "",
          "type": "uint16"
        }
      ],
      "name": "agents",
      "outputs": [
        {
          "internalType": "address",
          "name": "creator",
          "type": "address"
        },
        {
          "internalType": "address",
          "name": "lockAddress",
          "type": "address"
        },
        {
          "internalType": "bool",
          "name": "isOpenForContributions",
          "type": "bool"
        }
      ],
      "stateMutability": "view",
      "type": "function"
    },
    {
      "inputs": [
        {
          "internalType": "address",
          "name": "owner",
          "type": "address"
        },
        {
          "internalType": "address",
          "name": "spender",
          "type": "address"
        }
      ],
      "name": "allowance",
      "outputs": [
        {
          "internalType": "uint256",
          "name": "",
          "type": "uint256"
        }
      ],
      "stateMutability": "view",
      "type": "function"
    },
    {
      "inputs": [
        {
          "internalType": "address",
          "name": "spender",
          "type": "address"
        },
        {
          "internalType": "uint256",
          "name": "amount",
          "type": "uint256"
        }
      ],
      "name": "approve",
      "outputs": [
        {
          "internalType": "bool",
          "name": "",
          "type": "bool"
        }
      ],
      "stateMutability": "nonpayable",
      "type": "function"
    },
    {
      "inputs": [
        {
          "internalType": "address",
          "name": "account",
          "type": "address"
        }
      ],
      "name": "balanceOf",
      "outputs": [
        {
          "internalType": "uint256",
          "name": "",
          "type": "uint256"
        }
      ],
      "stateMutability": "view",
      "type": "function"
    },
    {
      "inputs": [],
      "name": "decimals",
      "outputs": [
        {
          "internalType": "uint8",
          "name": "",
          "type": "uint8"
        }
      ],
      "stateMutability": "view",
      "type": "function"
    },
    {
      "inputs": [
        {
          "internalType": "address",
          "name": "spender",
          "type": "address"
        },
        {
          "internalType": "uint256",
          "name": "subtractedValue",
          "type": "uint256"
        }
      ],
      "name": "decreaseAllowance",
      "outputs": [
        {
          "internalType": "bool",
          "name": "",
          "type": "bool"
        }
      ],
      "stateMutability": "nonpayable",
      "type": "function"
    },
    {
      "inputs": [
        {
          "internalType": "uint256",
          "name": "_value",
          "type": "uint256"
        },
        {
          "internalType": "uint256",
          "name": "_tokenId",
          "type": "uint256"
        },
        {
          "internalType": "uint16",
          "name": "_agentID",
          "type": "uint16"
        }
      ],
      "name": "extendSubscription",
      "outputs": [],
      "stateMutability": "payable",
      "type": "function"
    },
    {
      "inputs": [
        {
          "internalType": "bytes32",
          "name": "",
          "type": "bytes32"
        }
      ],
      "name": "functionData",
      "outputs": [
        {
          "internalType": "address",
          "name": "functionForwarder",
          "type": "address"
        },
        {
          "internalType": "uint8",
          "name": "numberOfWinners",
          "type": "uint8"
        }
      ],
      "stateMutability": "view",
      "type": "function"
    },
    {
      "inputs": [
        {
          "internalType": "bytes32",
          "name": "requestId",
          "type": "bytes32"
        },
        {
          "internalType": "bytes",
          "name": "response",
          "type": "bytes"
        },
        {
          "internalType": "bytes",
          "name": "err",
          "type": "bytes"
        }
      ],
      "name": "handleOracleFulfillment",
      "outputs": [],
      "stateMutability": "nonpayable",
      "type": "function"
    },
    {
      "inputs": [
        {
          "internalType": "address",
          "name": "spender",
          "type": "address"
        },
        {
          "internalType": "uint256",
          "name": "addedValue",
          "type": "uint256"
        }
      ],
      "name": "increaseAllowance",
      "outputs": [
        {
          "internalType": "bool",
          "name": "",
          "type": "bool"
        }
      ],
      "stateMutability": "nonpayable",
      "type": "function"
    },
    {
      "inputs": [
        {
          "internalType": "address",
          "name": "",
          "type": "address"
        },
        {
          "internalType": "address",
          "name": "",
          "type": "address"
        },
        {
          "internalType": "address",
          "name": "",
          "type": "address"
        },
        {
          "internalType": "bytes",
          "name": "",
          "type": "bytes"
        }
      ],
      "name": "keyPurchasePrice",
      "outputs": [
        {
          "internalType": "uint256",
          "name": "minKeyPrice",
          "type": "uint256"
        }
      ],
      "stateMutability": "view",
      "type": "function"
    },
    {
      "inputs": [],
      "name": "name",
      "outputs": [
        {
          "internalType": "string",
          "name": "",
          "type": "string"
        }
      ],
      "stateMutability": "view",
      "type": "function"
    },
    {
      "inputs": [
        {
          "internalType": "uint256",
          "name": "",
          "type": "uint256"
        },
        {
          "internalType": "address",
          "name": "from",
          "type": "address"
        },
        {
          "internalType": "address",
          "name": "",
          "type": "address"
        },
        {
          "internalType": "address",
          "name": "",
          "type": "address"
        },
        {
          "internalType": "bytes",
          "name": "",
          "type": "bytes"
        },
        {
          "internalType": "uint256",
          "name": "",
          "type": "uint256"
        },
        {
          "internalType": "uint256",
          "name": "",
          "type": "uint256"
        }
      ],
      "name": "onKeyPurchase",
      "outputs": [],
      "stateMutability": "view",
      "type": "function"
    },
    {
      "inputs": [],
      "name": "owner",
      "outputs": [
        {
          "internalType": "address",
          "name": "",
          "type": "address"
        }
      ],
      "stateMutability": "view",
      "type": "function"
    },
    {
      "inputs": [
        {
          "internalType": "uint16",
          "name": "_agentID",
          "type": "uint16"
        },
        {
          "internalType": "uint256",
          "name": "_value",
          "type": "uint256"
        }
      ],
      "name": "purchaseSubscription",
      "outputs": [],
      "stateMutability": "payable",
      "type": "function"
    },
    {
      "inputs": [
        {
          "components": [
            {
              "internalType": "string",
              "name": "agentName",
              "type": "string"
            },
            {
              "internalType": "uint16",
              "name": "agentID",
              "type": "uint16"
            },
            {
              "internalType": "uint256",
              "name": "subscriptionExpirationDuration",
              "type": "uint256"
            },
            {
              "internalType": "address",
              "name": "tokenAddress",
              "type": "address"
            },
            {
              "internalType": "uint256",
              "name": "keyPrice",
              "type": "uint256"
            },
            {
              "internalType": "uint256",
              "name": "basisPoint",
              "type": "uint256"
            },
            {
              "internalType": "string",
              "name": "lockName",
              "type": "string"
            },
            {
              "internalType": "string",
              "name": "lockSymbol",
              "type": "string"
            },
            {
              "internalType": "string",
              "name": "baseTokenURI",
              "type": "string"
            },
            {
              "internalType": "string",
              "name": "category",
              "type": "string"
            },
            {
              "internalType": "bool",
              "name": "isOpenForContributions",
              "type": "bool"
            }
          ],
          "internalType": "struct AgentPlace.AgentInitConfig",
          "name": "agentConfig",
          "type": "tuple"
        }
      ],
      "name": "registerAgent",
      "outputs": [],
      "stateMutability": "nonpayable",
      "type": "function"
    },
    {
      "inputs": [
        {
          "internalType": "uint16",
          "name": "_agentID",
          "type": "uint16"
        },
        {
          "internalType": "uint16",
          "name": "_agentVersionID",
          "type": "uint16"
        },
        {
          "internalType": "string",
          "name": "_agentVersionName",
          "type": "string"
        },
        {
          "internalType": "string",
          "name": "_agentMetadataCID",
          "type": "string"
        }
      ],
      "name": "registerAgentVersion",
      "outputs": [],
      "stateMutability": "nonpayable",
      "type": "function"
    },
    {
      "inputs": [],
      "name": "renounceOwnership",
      "outputs": [],
      "stateMutability": "nonpayable",
      "type": "function"
    },
    {
      "inputs": [
        {
          "internalType": "bytes32",
          "name": "",
          "type": "bytes32"
        }
      ],
      "name": "requestData",
      "outputs": [
        {
          "internalType": "bool",
          "name": "executed",
          "type": "bool"
        },
        {
          "internalType": "bytes32",
          "name": "sourceID",
          "type": "bytes32"
        }
      ],
      "stateMutability": "view",
      "type": "function"
    },
    {
      "inputs": [
        {
          "internalType": "bytes32",
          "name": "",
          "type": "bytes32"
        },
        {
          "internalType": "uint8",
          "name": "",
          "type": "uint8"
        }
      ],
      "name": "rewardDistributions",
      "outputs": [
        {
          "internalType": "uint256",
          "name": "",
          "type": "uint256"
        }
      ],
      "stateMutability": "view",
      "type": "function"
    },
    {
      "inputs": [
        {
          "internalType": "bytes32",
          "name": "_requestID",
          "type": "bytes32"
        }
      ],
      "name": "rewardsDistribution",
      "outputs": [],
      "stateMutability": "nonpayable",
      "type": "function"
    },
    {
      "inputs": [
        {
          "internalType": "bytes32",
          "name": "",
          "type": "bytes32"
        }
      ],
      "name": "round_winners",
      "outputs": [
        {
          "internalType": "bytes",
          "name": "",
          "type": "bytes"
        }
      ],
      "stateMutability": "view",
      "type": "function"
    },
    {
      "inputs": [
        {
          "internalType": "bytes32",
          "name": "sourceID",
          "type": "bytes32"
        }
      ],
      "name": "sendRequest",
      "outputs": [],
      "stateMutability": "nonpayable",
      "type": "function"
    },
    {
      "inputs": [
        {
          "internalType": "bytes32",
          "name": "",
          "type": "bytes32"
        }
      ],
      "name": "sources",
      "outputs": [
        {
          "internalType": "string",
          "name": "",
          "type": "string"
        }
      ],
      "stateMutability": "view",
      "type": "function"
    },
    {
      "inputs": [],
      "name": "symbol",
      "outputs": [
        {
          "internalType": "string",
          "name": "",
          "type": "string"
        }
      ],
      "stateMutability": "view",
      "type": "function"
    },
    {
      "inputs": [
        {
          "internalType": "address",
          "name": "lockAddress",
          "type": "address"
        },
        {
          "internalType": "address",
          "name": "operator",
          "type": "address"
        },
        {
          "internalType": "address",
          "name": "owner",
          "type": "address"
        },
        {
          "internalType": "uint256",
          "name": "keyId",
          "type": "uint256"
        },
        {
          "internalType": "uint256",
          "name": "expirationTimestamp",
          "type": "uint256"
        }
      ],
      "name": "tokenURI",
      "outputs": [
        {
          "internalType": "string",
          "name": "",
          "type": "string"
        }
      ],
      "stateMutability": "pure",
      "type": "function"
    },
    {
      "inputs": [],
      "name": "totalSupply",
      "outputs": [
        {
          "internalType": "uint256",
          "name": "",
          "type": "uint256"
        }
      ],
      "stateMutability": "view",
      "type": "function"
    },
    {
      "inputs": [
        {
          "internalType": "address",
          "name": "to",
          "type": "address"
        },
        {
          "internalType": "uint256",
          "name": "amount",
          "type": "uint256"
        }
      ],
      "name": "transfer",
      "outputs": [
        {
          "internalType": "bool",
          "name": "",
          "type": "bool"
        }
      ],
      "stateMutability": "nonpayable",
      "type": "function"
    },
    {
      "inputs": [
        {
          "internalType": "address",
          "name": "from",
          "type": "address"
        },
        {
          "internalType": "address",
          "name": "to",
          "type": "address"
        },
        {
          "internalType": "uint256",
          "name": "amount",
          "type": "uint256"
        }
      ],
      "name": "transferFrom",
      "outputs": [
        {
          "internalType": "bool",
          "name": "",
          "type": "bool"
        }
      ],
      "stateMutability": "nonpayable",
      "type": "function"
    },
    {
      "inputs": [
        {
          "internalType": "address",
          "name": "newOwner",
          "type": "address"
        }
      ],
      "name": "transferOwnership",
      "outputs": [],
      "stateMutability": "nonpayable",
      "type": "function"
    },
    {
      "inputs": [
        {
          "internalType": "uint16",
          "name": "_agentID",
          "type": "uint16"
        }
      ],
      "name": "withdraw",
      "outputs": [],
      "stateMutability": "nonpayable",
      "type": "function"
    },
    {
      "inputs": [
        {
          "internalType": "address",
          "name": "tokenAddress",
          "type": "address"
        }
      ],
      "name": "withdraw",
      "outputs": [],
      "stateMutability": "nonpayable",
      "type": "function"
    },
    {
      "stateMutability": "payable",
      "type": "receive"
    }
  ],
  "transactionHash": "0x4e3cb09699ac609d14150d88d97f471cb9a73219b318b7dee419fd0cf225a93c",
  "args": [
    "0x6E2dc0F9DB014aE19888F539E59285D2Ea04244C",
    "0x1FF7e338d5E582138C46044dc238543Ce555C963",
    "0x66756e2d706f6c79676f6e2d6d756d6261692d31000000000000000000000000",
    785
  ],
  "numDeployments": 1,
  "solcInputHash": "1c11d5871ce3e49a9093fc21a3c458eb",
  "bytecode": "0x60a06040526008805463ffffffff60a01b191661249f60a51b1790553480156200002857600080fd5b5060405162005243380380620052438339810160408190526200004b916200017e565b604080518082018252600a815269444149204147454e545360b01b602080830191909152825180840190935260048352634441494160e01b908301526001600160a01b038616608052859184918491620000a53362000115565b6004620000b383826200028a565b506005620000c282826200028a565b5050600680546001600160401b0319166001600160401b039390931692909217909155506009555050601180546001600160a01b0319166001600160a01b03939093169290921790915550620003569050565b600080546001600160a01b038381166001600160a01b0319831681178455604051919092169283917f8be0079c531659141344cd1fd0a4f28419497f9722a3daafe3b4186f6b6457e09190a35050565b6001600160a01b03811681146200017b57600080fd5b50565b600080600080608085870312156200019557600080fd5b8451620001a28162000165565b6020860151909450620001b58162000165565b6040860151606087015191945092506001600160401b0381168114620001da57600080fd5b939692955090935050565b634e487b7160e01b600052604160045260246000fd5b600181811c908216806200021057607f821691505b6020821081036200023157634e487b7160e01b600052602260045260246000fd5b50919050565b601f8211156200028557600081815260208120601f850160051c81016020861015620002605750805b601f850160051c820191505b8181101562000281578281556001016200026c565b5050505b505050565b81516001600160401b03811115620002a657620002a6620001e5565b620002be81620002b78454620001fb565b8462000237565b602080601f831160018114620002f65760008415620002dd5750858301515b600019600386901b1c1916600185901b17855562000281565b600085815260208120601f198616915b82811015620003275788860151825594840194600190910190840162000306565b5085821015620003465787850151600019600388901b60f8161c191681555b5050505050600190811b01905550565b608051614eca6200037960003960008181610ce90152612e4b0152614eca6000f3fe6080604052600436106101fd5760003560e01c80636f81aa0a1161010d5780639e7add9c116100a0578063ad67325d1161006f578063ad67325d14610685578063da9b1e7914610698578063dd62ed3e146106dc578063f2fde38b146106fc578063fe5f49ac1461071c57600080fd5b80639e7add9c14610612578063a457c2d714610625578063a88fa08e14610645578063a9059cbb1461066557600080fd5b80638da5cb5b116100dc5780638da5cb5b1461055257806395d89b411461057a578063988b93ad1461058f5780639d58754f146105af57600080fd5b80636f81aa0a146104c757806370a08231146104e7578063715018a61461051d5780638c3d86b41461053257600080fd5b8063221c1fd111610190578063395093511161015f57806339509351146104275780633d9728391461044757806351cff8d9146104675780635e895f29146104875780635f1d78ae146104a757600080fd5b8063221c1fd11461037a57806323b872dd1461039a578063313ce567146103ba5780633661346b146103d657600080fd5b80630c92ecf7116101cc5780630c92ecf7146102a65780630ca76175146102c6578063140b3eff146102e657806318160ddd1461035b57600080fd5b806301fe59771461020957806306fdde031461022b57806307e3290414610256578063095ea7b31461027657600080fd5b3661020457005b600080fd5b34801561021557600080fd5b50610229610224366004613b46565b610754565b005b34801561023757600080fd5b50610240610926565b60405161024d9190613c1a565b60405180910390f35b34801561026257600080fd5b50610229610271366004613c2d565b6109b8565b34801561028257600080fd5b50610296610291366004613c5b565b610bde565b604051901515815260200161024d565b3480156102b257600080fd5b506102296102c1366004613caa565b610bf8565b3480156102d257600080fd5b506102296102e1366004613d9d565b610cde565b3480156102f257600080fd5b50610333610301366004613e09565b600a60205260009081526040902080546001909101546001600160a01b0391821691811690600160a01b900460ff1683565b604080516001600160a01b03948516815293909216602084015215159082015260600161024d565b34801561036757600080fd5b506003545b60405190815260200161024d565b34801561038657600080fd5b5061036c610395366004613e6c565b610d62565b3480156103a657600080fd5b506102966103b5366004613ee7565b610dd0565b3480156103c657600080fd5b506040516012815260200161024d565b3480156103e257600080fd5b506104106103f1366004613c2d565b6010602052600090815260409020805460019091015460ff9091169082565b60408051921515835260208301919091520161024d565b34801561043357600080fd5b50610296610442366004613c5b565b610df4565b34801561045357600080fd5b50610229610462366004613e09565b610e16565b34801561047357600080fd5b50610229610482366004613f28565b610ff6565b34801561049357600080fd5b506102296104a2366004613f45565b611104565b3480156104b357600080fd5b506102406104c2366004613c2d565b611123565b3480156104d357600080fd5b506102406104e2366004613c2d565b6111bd565b3480156104f357600080fd5b5061036c610502366004613f28565b6001600160a01b031660009081526001602052604090205490565b34801561052957600080fd5b506102296111d6565b34801561053e57600080fd5b5061022961054d366004613c2d565b6111ea565b34801561055e57600080fd5b506000546040516001600160a01b03909116815260200161024d565b34801561058657600080fd5b50610240611349565b34801561059b57600080fd5b506102406105aa366004613fd8565b611358565b3480156105bb57600080fd5b506105f16105ca366004613c2d565b600f602052600090815260409020546001600160a01b03811690600160a01b900460ff1682565b604080516001600160a01b03909316835260ff90911660208301520161024d565b610229610620366004614033565b611367565b34801561063157600080fd5b50610296610640366004613c5b565b61165d565b34801561065157600080fd5b50610229610660366004614068565b6116d8565b34801561067157600080fd5b50610296610680366004613c5b565b611b20565b6102296106933660046140a3565b611b2e565b3480156106a457600080fd5b506106c96106b3366004613e09565b600b6020526000908152604090205461ffff1681565b60405161ffff909116815260200161024d565b3480156106e857600080fd5b5061036c6106f73660046140bf565b61202c565b34801561070857600080fd5b50610229610717366004613f28565b612057565b34801561072857600080fd5b5061036c6107373660046140f8565b600e60209081526000928352604080842090915290825290205481565b61ffff84166000908152600a6020526040902060010154600160a01b900460ff166107d25760405162461bcd60e51b815260206004820152602360248201527f6167656e74206973206e6f74206f70656e20666f7220636f6e747269627574696044820152626f6e7360e81b60648201526084015b60405180910390fd5b61ffff83166000908152600a60205260409020546001600160a01b0316156108335760405162461bcd60e51b81526020600482015260146024820152736167656e7420616c72656164792065786973747360601b60448201526064016107c9565b604080516060810182523380825261ffff8088166000908152600a60208181528683206001908101546001600160a01b03908116838901908152888a01868152968d1686529390925292879020955186549082166001600160a01b0319909116178655905194909101805492511515600160a01b026001600160a81b031990931694909116939093171790915590517fb424121bd0b8c47446bd1b78766e14b5ea0296a02d034d6b92702c8e9f377cc4916108f691879186918891908790614123565b60405180910390a1505061ffff9081166000908152600b6020526040902080549190921661ffff19909116179055565b60606004805461093590614177565b80601f016020809104026020016040519081016040528092919081815260200182805461096190614177565b80156109ae5780601f10610983576101008083540402835291602001916109ae565b820191906000526020600020905b81548152906001019060200180831161099157829003601f168201915b5050505050905090565b60008181526010602052604090205460ff1615610a0a5760405162461bcd60e51b815260206004820152601060248201526f105b1c9958591e48195e1958dd5d195960821b60448201526064016107c9565b6000818152601060209081526040808320805460ff19166001179055600c90915281208054610a3890614177565b80601f0160208091040260200160405190810160405280929190818152602001828054610a6490614177565b8015610ab15780601f10610a8657610100808354040283529160200191610ab1565b820191906000526020600020905b815481529060010190602001808311610a9457829003601f168201915b505050505090506000610ac3826120d0565b90506000610ad082612360565b6000858152601060205260408120600101549192505b6000828152600f602052604090205460ff600160a01b90910481169082161015610b9b576000600a6000858460ff1681518110610b2557610b256141b1565b60209081029190910181015161ffff168252818101929092526040908101600090812054868252600e845282822060ff8716835290935220546001600160a01b039091169150610b8682610b8183670de0b6b3a76400006141dd565b6124f9565b50508080610b93906141f4565b915050610ae6565b507ff8bc77710b76d0dba6bf51b9daf2a7d4d7f7327551c0b0c5bbe7786a76279fab858284604051610bcf93929190614213565b60405180910390a15050505050565b600033610bec8185856125ba565b60019150505b92915050565b610c006126de565b6000610c0b85612738565b6000818152600f6020908152604080832080546001600160a01b0319166001600160a01b038916179055600d9091529020909150610c4985826142ba565b5060005b82518160ff161015610ca857828160ff1681518110610c6e57610c6e6141b1565b6020908102919091018101516000848152600e8352604080822060ff86168352909352919091205580610ca0816141f4565b915050610c4d565b507f75667fad75521b835344aca3b0eea672769f8704aa6bebba7ed3d59ae740f07a85858385604051610bcf94939291906143b4565b336001600160a01b037f00000000000000000000000000000000000000000000000000000000000000001614610d275760405163c6829f8360e01b815260040160405180910390fd5b610d32838383612768565b60405183907f85e1543bf2f84fe80c6badbce3648c8539ad1df4d2b3d822938ca0538be727e690600090a2505050565b6000336001600160a01b03166310e569736040518163ffffffff1660e01b8152600401602060405180830381865afa158015610da2573d6000803e3d6000fd5b505050506040513d601f19601f82011682018060405250810190610dc691906143fe565b9695505050505050565b600033610dde8582856127d4565b610de9858585612848565b506001949350505050565b600033610bec818585610e07838361202c565b610e119190614417565b6125ba565b61ffff81166000908152600a60208181526040808420815160608101835281546001600160a01b039081168252600190920154918216938101849052600160a01b90910460ff1615159181019190915292909182319190610e779083614440565b610e829060076141dd565b90506000836001600160a01b0316639d76ea586040518163ffffffff1660e01b8152600401602060405180830381865afa158015610ec4573d6000803e3d6000fd5b505050506040513d601f19601f82011682018060405250810190610ee89190614454565b604051636ce5768960e11b81526001600160a01b038083166004830152306024830152604482018690529192509085169063d9caed1290606401600060405180830381600087803b158015610f3c57600080fd5b505af1158015610f50573d6000803e3d6000fd5b505086519150506001600160a01b038216610f7457610f6f81846129f3565b610fed565b60405163a9059cbb60e01b81526001600160a01b0382811660048301526024820185905283919082169063a9059cbb906044016020604051808303816000875af1158015610fc6573d6000803e3d6000fd5b505050506040513d601f19601f82011682018060405250810190610fea919061447f565b50505b50505050505050565b610ffe6126de565b336001600160a01b03821661101b5761101781476129f3565b5050565b6040516370a0823160e01b815230600482015282906001600160a01b0382169063a9059cbb90849083906370a0823190602401602060405180830381865afa15801561106b573d6000803e3d6000fd5b505050506040513d601f19601f8201168201806040525081019061108f91906143fe565b6040516001600160e01b031960e085901b1681526001600160a01b03909216600483015260248201526044016020604051808303816000875af11580156110da573d6000803e3d6000fd5b505050506040513d601f19601f820116820180604052508101906110fe919061447f565b50505050565b6001600160a01b038716301461111957600080fd5b5050505050505050565b600d602052600090815260409020805461113c90614177565b80601f016020809104026020016040519081016040528092919081815260200182805461116890614177565b80156111b55780601f1061118a576101008083540402835291602001916111b5565b820191906000526020600020905b81548152906001019060200180831161119857829003601f168201915b505050505081565b600c602052600090815260409020805461113c90614177565b6111de6126de565b6111e86000612b11565b565b6000818152600f60205260409020546001600160a01b0316331461120d57600080fd5b61124e6040805160e0810190915280600081526020016000815260200160008152602001606081526020016060815260200160608152602001606081525090565b6000828152600d6020526040902080546112f9919061126c90614177565b80601f016020809104026020016040519081016040528092919081815260200182805461129890614177565b80156112e55780601f106112ba576101008083540402835291602001916112e5565b820191906000526020600020905b8154815290600101906020018083116112c857829003601f168201915b505050505082612b6190919063ffffffff16565b600061133061130783612b6e565b6006546008546009546001600160401b0390921691600160a01b90910463ffffffff1690612e46565b6000908152601060205260409020600101929092555050565b60606005805461093590614177565b6060610dc68686868686612f18565b61ffff81166000908152600a60205260409020546001600160a01b03166113c85760405162461bcd60e51b81526020600482015260156024820152746167656e7420646f6573206e6f742065786973747360581b60448201526064016107c9565b61ffff81166000908152600a602090815260408083206001015481516313aedd4b60e31b81529151606094936001600160a01b039092169284928492639d76ea589260048082019392918290030181865afa15801561142b573d6000803e3d6000fd5b505050506040513d601f19601f8201168201806040525081019061144f9190614454565b90506000826001600160a01b03166310e569736040518163ffffffff1660e01b8152600401602060405180830381865afa158015611491573d6000803e3d6000fd5b505050506040513d601f19601f820116820180604052508101906114b591906143fe565b61ffff87166000908152600a6020526040902060010154909150600160a01b900460ff166114fd5761ffff86166000908152600a60205260409020546001600160a01b031693505b6001600160a01b038216156115ed576040516323b872dd60e01b8152336004820152306024820152604481018290526001600160a01b038316906323b872dd906064016020604051808303816000875af115801561155f573d6000803e3d6000fd5b505050506040513d601f19601f82011682018060405250810190611583919061447f565b5060405163d813cc1960e01b81526001600160a01b0384169063d813cc19906115b6908b908b9089908b9060040161449c565b600060405180830381600087803b1580156115d057600080fd5b505af11580156115e4573d6000803e3d6000fd5b50505050611119565b60405163d813cc1960e01b81526001600160a01b0384169063d813cc19903490611621908c908c908a908c9060040161449c565b6000604051808303818588803b15801561163a57600080fd5b505af115801561164e573d6000803e3d6000fd5b50505050505050505050505050565b6000338161166b828661202c565b9050838110156116cb5760405162461bcd60e51b815260206004820152602560248201527f45524332303a2064656372656173656420616c6c6f77616e63652062656c6f77604482015264207a65726f60d81b60648201526084016107c9565b610de982868684036125ba565b6000600a816116ed6040850160208601613e09565b61ffff1681526020810191909152604001600020546001600160a01b03161461174f5760405162461bcd60e51b81526020600482015260146024820152736167656e7420616c72656164792065786973747360601b60448201526064016107c9565b601154600019906228de80906000906001600160a01b03166342d921068361177d6080880160608901613f28565b60808801358761179060c08b018b6144c9565b6040516001600160e01b031960e089901b1681526117b996959493929190600090600401614538565b6020604051808303816000875af11580156117d8573d6000803e3d6000fd5b505050506040513d601f19601f820116820180604052508101906117fc9190614454565b90506001600160a01b03811663d1b8759b61181a60c08701876144c9565b61182760e08901896144c9565b6118356101008b018b6144c9565b6040518763ffffffff1660e01b815260040161185696959493929190614591565b600060405180830381600087803b15801561187057600080fd5b505af1158015611884573d6000803e3d6000fd5b5050505060a0840135156118f75760405163debe2b0d60e01b81526000600482015260a085013560248201526001600160a01b0382169063debe2b0d90604401600060405180830381600087803b1580156118de57600080fd5b505af11580156118f2573d6000803e3d6000fd5b505050505b6040516374cac47d60e01b815230600482018190526000602483018190526044830181905260648301919091526084820181905260a4820181905260c48201526001600160a01b038216906374cac47d9060e401600060405180830381600087803b15801561196557600080fd5b505af1158015611979573d6000803e3d6000fd5b505060405163282478df60e01b81526004810185905260248101869052604481018690526001600160a01b038416925063282478df9150606401600060405180830381600087803b1580156119cd57600080fd5b505af11580156119e1573d6000803e3d6000fd5b5050604080516060810182523381526001600160a01b0385166020820152925082019050611a17610160870161014088016145cd565b15159052600a6000611a2f6040880160208901613e09565b61ffff1681526020808201929092526040908101600020835181546001600160a01b0319166001600160a01b039182161782559284015160019091018054949092015192166001600160a81b031990931692909217600160a01b911515919091021790557f9bd97d9870b377402b7bb6ae42ef6263369f374498bdcf0f6f65ba00f5f28fb4611abe85806144c9565b611ace6040880160208901613e09565b338560808a013560a08b0135611ae86101208d018d6144c9565b8d610140016020810190611afc91906145cd565b604051611b129a999897969594939291906145ea565b60405180910390a150505050565b600033610bec818585612848565b61ffff82166000908152600a60205260409020546001600160a01b0316611b8f5760405162461bcd60e51b81526020600482015260156024820152746167656e7420646f6573206e6f742065786973747360581b60448201526064016107c9565b6040805160018082528183019092526000916020808301908036833750506040805160018082528183019092529293506000929150602080830190803683375050604080516001808252818301909252929350600092915060208083019080368337505060408051600180825281830190925292935060009291506020808301908036833750506040805160018082528183019092529293506000929150602082015b6060815260200190600190039081611c3257505060408051600180825281830190925291925060009190602080830190803683370190505061ffff89166000908152600a60205260409020600101549091506001600160a01b03811690600160a01b900460ff16611cf25761ffff89166000908152600a602052604081205488516001600160a01b039091169182918a9190611cd057611cd06141b1565b60200260200101906001600160a01b031690816001600160a01b031681525050505b8784600081518110611d0657611d066141b1565b6020026020010181815250503386600081518110611d2657611d266141b1565b60200260200101906001600160a01b031690816001600160a01b0316815250506000816001600160a01b0316639d76ea586040518163ffffffff1660e01b8152600401602060405180830381865afa158015611d86573d6000803e3d6000fd5b505050506040513d601f19601f82011682018060405250810190611daa9190614454565b90506000826001600160a01b03166310e569736040518163ffffffff1660e01b8152600401602060405180830381865afa158015611dec573d6000803e3d6000fd5b505050506040513d601f19601f82011682018060405250810190611e1091906143fe565b90506001600160a01b03821615611f1b576040516323b872dd60e01b8152336004820152306024820152604481018290526001600160a01b038316906323b872dd906064016020604051808303816000875af1158015611e74573d6000803e3d6000fd5b505050506040513d601f19601f82011682018060405250810190611e98919061447f565b50604051633381899760e01b81526001600160a01b03841690633381899790611ecd9089908c908e908d908c90600401614696565b6000604051808303816000875af1158015611eec573d6000803e3d6000fd5b505050506040513d6000823e601f3d908101601f19168201604052611f149190810190614747565b9350611f9b565b604051633381899760e01b81526001600160a01b038416906333818997903490611f51908a908d908f908e908d90600401614696565b60006040518083038185885af1158015611f6f573d6000803e3d6000fd5b50505050506040513d6000823e601f3d908101601f19168201604052611f989190810190614747565b93505b7f9a21201740fcb55256dfc85f4ec62c1d2da51d451e0a3a58be7a5f968a47d6dc8b85600081518110611fd057611fd06141b1565b60209081029190910181015161ffff8f81166000908152600a8452604090819020548151959092168552928401919091526001600160a01b03169082015233606082015260800160405180910390a15050505050505050505050565b6001600160a01b03918216600090815260026020908152604080832093909416825291909152205490565b61205f6126de565b6001600160a01b0381166120c45760405162461bcd60e51b815260206004820152602660248201527f4f776e61626c653a206e6577206f776e657220697320746865207a65726f206160448201526564647265737360d01b60648201526084016107c9565b6120cd81612b11565b50565b606060008290506002815110156121375760405162461bcd60e51b815260206004820152602560248201527f536f7572636520737472696e67206e6f742070726f7065726c7920666f726d616044820152643a3a32b21760d91b60648201526084016107c9565b8060008151811061214a5761214a6141b1565b6020910101516001600160f81b031916600360fc1b1480156121c057508060018151811061217a5761217a6141b1565b6020910101516001600160f81b031916600f60fb1b14806121c05750806001815181106121a9576121a96141b1565b6020910101516001600160f81b031916600b60fb1b145b6122185760405162461bcd60e51b815260206004820152602360248201527f536f7572636520737472696e67206d75737420737461727420776974682027306044820152623c139760e91b60648201526084016107c9565b8051600203612237575050604080516000815260208101909152919050565b6000600280835161224891906147cc565b6122529190614440565b90506000816001600160401b0381111561226e5761226e613a91565b6040519080825280601f01601f191660200182016040528015612298576020820181803683370190505b50905060025b8351811015612357576122da846122b6836001614417565b815181106122c6576122c66141b1565b01602001516001600160f81b031916612fb5565b6122ef8583815181106122c6576122c66141b1565b6122fa9060106147df565b6123049190614802565b60f81b82600261231481856147cc565b61231e9190614440565b8151811061232e5761232e6141b1565b60200101906001600160f81b031916908160001a905350612350600282614417565b905061229e565b50949350505050565b606060048251612370919061481b565b156123c95760405162461bcd60e51b815260206004820152602360248201527f44617461206c656e677468206d7573742062652061206d756c7469706c65206f60448201526219880d60ea1b60648201526084016107c9565b6000805b83518110156124085760006123e2858361308b565b90506123f261ffff821684614417565b92506124019050600482614417565b90506123cd565b506000816001600160401b0381111561242357612423613a91565b60405190808252806020026020018201604052801561244c578160200160208202803683370190505b5090506000805b85518110156124ef576000612468878361308b565b905060006124808861247b856002614417565b61308b565b905060005b8261ffff168161ffff1610156124d8578186866124a18161482f565b9750815181106124b3576124b36141b1565b61ffff90921660209283029190910190910152806124d081614848565b915050612485565b5050506004816124e89190614417565b9050612453565b5090949350505050565b6001600160a01b03821661254f5760405162461bcd60e51b815260206004820152601f60248201527f45524332303a206d696e7420746f20746865207a65726f20616464726573730060448201526064016107c9565b80600360008282546125619190614417565b90915550506001600160a01b0382166000818152600160209081526040808320805486019055518481527fddf252ad1be2c89b69c2b068fc378daa952ba7f163c4a11628f55a4df523b3ef910160405180910390a35050565b6001600160a01b03831661261c5760405162461bcd60e51b8152602060048201526024808201527f45524332303a20617070726f76652066726f6d20746865207a65726f206164646044820152637265737360e01b60648201526084016107c9565b6001600160a01b03821661267d5760405162461bcd60e51b815260206004820152602260248201527f45524332303a20617070726f766520746f20746865207a65726f206164647265604482015261737360f01b60648201526084016107c9565b6001600160a01b0383811660008181526002602090815260408083209487168084529482529182902085905590518481527f8c5be1e5ebec7d5bd14f71427d1e84f3dd0314c0f7b2291e5b200ac8c7c3b925910160405180910390a3505050565b6000546001600160a01b031633146111e85760405162461bcd60e51b815260206004820181905260248201527f4f776e61626c653a2063616c6c6572206973206e6f7420746865206f776e657260448201526064016107c9565b60008160405160200161274b9190613c1a565b604051602081830303815290604052805190602001209050919050565b6000838152600c6020526040902061278083826142ba565b50600083815260106020526040908190206001015490517f873142285a75d241914f10e28387168bc800ee523453237b118e63b0fba46f37916127c7918691908690614869565b60405180910390a1505050565b60006127e0848461202c565b905060001981146110fe578181101561283b5760405162461bcd60e51b815260206004820152601d60248201527f45524332303a20696e73756666696369656e7420616c6c6f77616e636500000060448201526064016107c9565b6110fe84848484036125ba565b6001600160a01b0383166128ac5760405162461bcd60e51b815260206004820152602560248201527f45524332303a207472616e736665722066726f6d20746865207a65726f206164604482015264647265737360d81b60648201526084016107c9565b6001600160a01b03821661290e5760405162461bcd60e51b815260206004820152602360248201527f45524332303a207472616e7366657220746f20746865207a65726f206164647260448201526265737360e81b60648201526084016107c9565b6001600160a01b038316600090815260016020526040902054818110156129865760405162461bcd60e51b815260206004820152602660248201527f45524332303a207472616e7366657220616d6f756e7420657863656564732062604482015265616c616e636560d01b60648201526084016107c9565b6001600160a01b0380851660008181526001602052604080822086860390559286168082529083902080548601905591517fddf252ad1be2c89b69c2b068fc378daa952ba7f163c4a11628f55a4df523b3ef906129e69086815260200190565b60405180910390a36110fe565b80471015612a435760405162461bcd60e51b815260206004820152601d60248201527f416464726573733a20696e73756666696369656e742062616c616e636500000060448201526064016107c9565b6000826001600160a01b03168260405160006040518083038185875af1925050503d8060008114612a90576040519150601f19603f3d011682016040523d82523d6000602084013e612a95565b606091505b5050905080612b0c5760405162461bcd60e51b815260206004820152603a60248201527f416464726573733a20756e61626c6520746f2073656e642076616c75652c207260448201527f6563697069656e74206d6179206861766520726576657274656400000000000060648201526084016107c9565b505050565b600080546001600160a01b038381166001600160a01b0319831681178455604051919092169283917f8be0079c531659141344cd1fd0a4f28419497f9722a3daafe3b4186f6b6457e09190a35050565b61101782600080846130e8565b60606000612b7d610100613166565b9050612bb66040518060400160405280600c81526020016b31b7b232a637b1b0ba34b7b760a11b8152508261318790919063ffffffff16565b8251612bd4906002811115612bcd57612bcd614891565b82906131a0565b6040805180820190915260088152676c616e677561676560c01b6020820152612bfe908290613187565b6040830151612c15908015612bcd57612bcd614891565b604080518082019091526006815265736f7572636560d01b6020820152612c3d908290613187565b6060830151612c4d908290613187565b60a08301515115612ce1576040805180820190915260048152636172677360e01b6020820152612c7e908290613187565b612c87816131d9565b60005b8360a0015151811015612cd757612cc78460a001518281518110612cb057612cb06141b1565b60200260200101518361318790919063ffffffff16565b612cd08161482f565b9050612c8a565b50612ce1816131fd565b60808301515115612da557600083602001516002811115612d0457612d04614891565b03612d225760405163a80d31f760e01b815260040160405180910390fd5b60408051808201909152600f81526e39b2b1b932ba39a637b1b0ba34b7b760891b6020820152612d53908290613187565b612d6c83602001516002811115612bcd57612bcd614891565b6040805180820190915260078152667365637265747360c81b6020820152612d95908290613187565b6080830151612da590829061321b565b60c08301515115612e3e5760408051808201909152600981526862797465734172677360b81b6020820152612ddb908290613187565b612de4816131d9565b60005b8360c0015151811015612e3457612e248460c001518281518110612e0d57612e0d6141b1565b60200260200101518361321b90919063ffffffff16565b612e2d8161482f565b9050612de7565b50612e3e816131fd565b515192915050565b6000807f00000000000000000000000000000000000000000000000000000000000000006001600160a01b031663461d27628688600188886040518663ffffffff1660e01b8152600401612e9e9594939291906148a7565b6020604051808303816000875af1158015612ebd573d6000803e3d6000fd5b505050506040513d601f19601f82011682018060405250810190612ee191906143fe565b60405190915081907f1131472297a800fee664d1d89cfa8f7676ff07189ecc53f80bbb5f4969099db890600090a295945050505050565b60606000612f2585613228565b90506000612f328561323e565b90506000612f3f8561323e565b90506000612f6f848484604051602001612f5b9392919061490c565b6040516020818303038152906040526132d0565b9050612f878382604051602001612f5b929190614bf4565b604051602001612f979190614cef565b60405160208183030381529060405294505050505095945050505050565b600060f882901c60308110801590612fd1575060398160ff1611155b15612fe857612fe1603082614d34565b9392505050565b60618160ff1610158015613000575060668160ff1611155b1561301b57613010606182614d34565b612fe190600a614802565b60418160ff1610158015613033575060468160ff1611155b1561304357613010604182614d34565b60405162461bcd60e51b815260206004820152601b60248201527f496e76616c69642063686172616374657220696e20737472696e67000000000060448201526064016107c9565b815160009061309b836002614417565b11156130df5760405162461bcd60e51b8152602060048201526013602482015272496e646578206f7574206f6620626f756e647360681b60448201526064016107c9565b50016002015190565b805160000361310a576040516322ce3edd60e01b815260040160405180910390fd5b8383600281111561311d5761311d614891565b9081600281111561313057613130614891565b9052506040840182801561314657613146614891565b9081801561315657613156614891565b9052506060909301929092525050565b61316e613a45565b805161317a9083613434565b5060006020820152919050565b61319482600383516134ab565b8151612b0c90826135c4565b81516131ad9060c26135e5565b5061101782826040516020016131c591815260200190565b60405160208183030381529060405261321b565b6131e481600461364e565b6001816020018181516131f79190614417565b90525050565b61320881600761364e565b6001816020018181516131f791906147cc565b61319482600283516134ab565b6060610bf26001600160a01b0383166014613665565b6060600061324b83613800565b60010190506000816001600160401b0381111561326a5761326a613a91565b6040519080825280601f01601f191660200182016040528015613294576020820181803683370190505b5090508181016020015b600019016f181899199a1a9b1b9c1cb0b131b232b360811b600a86061a8153600a850494508461329e57509392505050565b606081516000036132ef57505060408051602081019091526000815290565b6000604051806060016040528060408152602001614e55604091399050600060038451600261331e9190614417565b6133289190614440565b6133339060046141dd565b90506000613342826020614417565b6001600160401b0381111561335957613359613a91565b6040519080825280601f01601f191660200182016040528015613383576020820181803683370190505b509050818152600183018586518101602084015b818310156133ef576003830192508251603f8160121c168501518253600182019150603f81600c1c168501518253600182019150603f8160061c168501518253600182019150603f8116850151825350600101613397565b600389510660018114613409576002811461341a57613426565b613d3d60f01b600119830152613426565b603d60f81b6000198301525b509398975050505050505050565b60408051808201909152606081526000602082015261345460208361481b565b1561347c5761346460208361481b565b61346f9060206147cc565b6134799083614417565b91505b6020808401839052604051808552600081529081840101818110156134a057600080fd5b604052509192915050565b6017816001600160401b0316116134d15782516110fe9060e0600585901b1683176135e5565b60ff816001600160401b0316116135115782516134f9906018611fe0600586901b16176135e5565b5082516110fe906001600160401b03831660016138d8565b61ffff816001600160401b03161161355257825161353a906019611fe0600586901b16176135e5565b5082516110fe906001600160401b03831660026138d8565b63ffffffff816001600160401b03161161359557825161357d90601a611fe0600586901b16176135e5565b5082516110fe906001600160401b03831660046138d8565b82516135ac90601b611fe0600586901b16176135e5565b5082516110fe906001600160401b03831660086138d8565b604080518082019091526060815260006020820152612fe18383845161395d565b604080518082019091526060815260006020820152825151600061360a826001614417565b90508460200151821061362b5761362b856136268360026141dd565b613a2e565b8451602083820101858153508051821115613644578181525b5093949350505050565b8151612b0c90601f611fe0600585901b16176135e5565b606060006136748360026141dd565b61367f906002614417565b6001600160401b0381111561369657613696613a91565b6040519080825280601f01601f1916602001820160405280156136c0576020820181803683370190505b509050600360fc1b816000815181106136db576136db6141b1565b60200101906001600160f81b031916908160001a905350600f60fb1b8160018151811061370a5761370a6141b1565b60200101906001600160f81b031916908160001a905350600061372e8460026141dd565b613739906001614417565b90505b60018111156137b1576f181899199a1a9b1b9c1cb0b131b232b360811b85600f166010811061376d5761376d6141b1565b1a60f81b828281518110613783576137836141b1565b60200101906001600160f81b031916908160001a90535060049490941c936137aa81614d4d565b905061373c565b508315612fe15760405162461bcd60e51b815260206004820181905260248201527f537472696e67733a20686578206c656e67746820696e73756666696369656e7460448201526064016107c9565b60008072184f03e93ff9f4daa797ed6e38ed64bf6a1f0160401b831061383f5772184f03e93ff9f4daa797ed6e38ed64bf6a1f0160401b830492506040015b6d04ee2d6d415b85acef8100000000831061386b576d04ee2d6d415b85acef8100000000830492506020015b662386f26fc10000831061388957662386f26fc10000830492506010015b6305f5e10083106138a1576305f5e100830492506008015b61271083106138b557612710830492506004015b606483106138c7576064830492506002015b600a8310610bf25760010192915050565b60408051808201909152606081526000602082015283515160006138fc8285614417565b9050856020015181111561391957613919866136268360026141dd565b6000600161392986610100614e48565b61393391906147cc565b90508651828101878319825116178152508051831115613951578281525b50959695505050505050565b604080518082019091526060815260006020820152825182111561398057600080fd5b835151600061398f8483614417565b905085602001518111156139ac576139ac866136268360026141dd565b8551805183820160200191600091808511156139c6578482525b505050602086015b60208610613a0657805182526139e5602083614417565b91506139f2602082614417565b90506139ff6020876147cc565b95506139ce565b51815160001960208890036101000a0190811690199190911617905250849150509392505050565b8151613a3a8383613434565b506110fe83826135c4565b6040518060400160405280613a6d604051806040016040528060608152602001600081525090565b8152602001600081525090565b803561ffff81168114613a8c57600080fd5b919050565b634e487b7160e01b600052604160045260246000fd5b604051601f8201601f191681016001600160401b0381118282101715613acf57613acf613a91565b604052919050565b600082601f830112613ae857600080fd5b81356001600160401b03811115613b0157613b01613a91565b613b14601f8201601f1916602001613aa7565b818152846020838601011115613b2957600080fd5b816020850160208301376000918101602001919091529392505050565b60008060008060808587031215613b5c57600080fd5b613b6585613a7a565b9350613b7360208601613a7a565b925060408501356001600160401b0380821115613b8f57600080fd5b613b9b88838901613ad7565b93506060870135915080821115613bb157600080fd5b50613bbe87828801613ad7565b91505092959194509250565b60005b83811015613be5578181015183820152602001613bcd565b50506000910152565b60008151808452613c06816020860160208601613bca565b601f01601f19169290920160200192915050565b602081526000612fe16020830184613bee565b600060208284031215613c3f57600080fd5b5035919050565b6001600160a01b03811681146120cd57600080fd5b60008060408385031215613c6e57600080fd5b8235613c7981613c46565b946020939093013593505050565b60006001600160401b03821115613ca057613ca0613a91565b5060051b60200190565b60008060008060808587031215613cc057600080fd5b84356001600160401b0380821115613cd757600080fd5b613ce388838901613ad7565b9550602091508187013581811115613cfa57600080fd5b613d0689828a01613ad7565b9550506040870135613d1781613c46565b9350606087013581811115613d2b57600080fd5b87019050601f81018813613d3e57600080fd5b8035613d51613d4c82613c87565b613aa7565b81815260059190911b8201830190838101908a831115613d7057600080fd5b928401925b82841015613d8e57833582529284019290840190613d75565b979a9699509497505050505050565b600080600060608486031215613db257600080fd5b8335925060208401356001600160401b0380821115613dd057600080fd5b613ddc87838801613ad7565b93506040860135915080821115613df257600080fd5b50613dff86828701613ad7565b9150509250925092565b600060208284031215613e1b57600080fd5b612fe182613a7a565b60008083601f840112613e3657600080fd5b5081356001600160401b03811115613e4d57600080fd5b602083019150836020828501011115613e6557600080fd5b9250929050565b600080600080600060808688031215613e8457600080fd5b8535613e8f81613c46565b94506020860135613e9f81613c46565b93506040860135613eaf81613c46565b925060608601356001600160401b03811115613eca57600080fd5b613ed688828901613e24565b969995985093965092949392505050565b600080600060608486031215613efc57600080fd5b8335613f0781613c46565b92506020840135613f1781613c46565b929592945050506040919091013590565b600060208284031215613f3a57600080fd5b8135612fe181613c46565b60008060008060008060008060e0898b031215613f6157600080fd5b883597506020890135613f7381613c46565b96506040890135613f8381613c46565b95506060890135613f9381613c46565b945060808901356001600160401b03811115613fae57600080fd5b613fba8b828c01613e24565b999c989b5096999598969760a08701359660c0013595509350505050565b600080600080600060a08688031215613ff057600080fd5b8535613ffb81613c46565b9450602086013561400b81613c46565b9350604086013561401b81613c46565b94979396509394606081013594506080013592915050565b60008060006060848603121561404857600080fd5b833592506020840135915061405f60408501613a7a565b90509250925092565b60006020828403121561407a57600080fd5b81356001600160401b0381111561409057600080fd5b82016101608185031215612fe157600080fd5b600080604083850312156140b657600080fd5b613c7983613a7a565b600080604083850312156140d257600080fd5b82356140dd81613c46565b915060208301356140ed81613c46565b809150509250929050565b6000806040838503121561410b57600080fd5b82359150602083013560ff811681146140ed57600080fd5b600061ffff808816835260a0602084015261414160a0840188613bee565b86821660408501526001600160a01b0386166060850152838103608085015261416a8186613bee565b9998505050505050505050565b600181811c9082168061418b57607f821691505b6020821081036141ab57634e487b7160e01b600052602260045260246000fd5b50919050565b634e487b7160e01b600052603260045260246000fd5b634e487b7160e01b600052601160045260246000fd5b8082028115828204841417610bf257610bf26141c7565b600060ff821660ff810361420a5761420a6141c7565b60010192915050565b6000606082018583526020858185015260606040850152818551808452608086019150828701935060005b8181101561425e57845161ffff168352938301939183019160010161423e565b509098975050505050505050565b601f821115612b0c57600081815260208120601f850160051c810160208610156142935750805b601f850160051c820191505b818110156142b25782815560010161429f565b505050505050565b81516001600160401b038111156142d3576142d3613a91565b6142e7816142e18454614177565b8461426c565b602080601f83116001811461431c57600084156143045750858301515b600019600386901b1c1916600185901b1785556142b2565b600085815260208120601f198616915b8281101561434b5788860151825594840194600190910190840161432c565b50858210156143695787850151600019600388901b60f8161c191681555b5050505050600190811b01905550565b600081518084526020808501945080840160005b838110156143a95781518752958201959082019060010161438d565b509495945050505050565b6080815260006143c76080830187613bee565b82810360208401526143d98187613bee565b905084604084015282810360608401526143f38185614379565b979650505050505050565b60006020828403121561441057600080fd5b5051919050565b80820180821115610bf257610bf26141c7565b634e487b7160e01b600052601260045260246000fd5b60008261444f5761444f61442a565b500490565b60006020828403121561446657600080fd5b8151612fe181613c46565b80151581146120cd57600080fd5b60006020828403121561449157600080fd5b8151612fe181614471565b84815283602082015260018060a01b0383166040820152608060608201526000610dc66080830184613bee565b6000808335601e198436030181126144e057600080fd5b8301803591506001600160401b038211156144fa57600080fd5b602001915036819003821315613e6557600080fd5b81835281816020850137506000828201602090810191909152601f909101601f19169091010190565b87815260018060a01b038716602082015285604082015284606082015260c06080820152600061456c60c08301858761450f565b90506bffffffffffffffffffffffff60a01b831660a083015298975050505050505050565b6060815260006145a560608301888a61450f565b82810360208401526145b881878961450f565b9050828103604084015261416a81858761450f565b6000602082840312156145df57600080fd5b8135612fe181614471565b60006101008083526145ff8184018d8f61450f565b61ffff8c1660208501526001600160a01b038b811660408601528a1660608501526080840189905260a0840188905283810360c0850152905061464381868861450f565b91505082151560e08301529b9a5050505050505050505050565b600081518084526020808501945080840160005b838110156143a95781516001600160a01b031687529582019590820190600101614671565b60a0815260006146a960a0830188614379565b6020838203818501526146bc828961465d565b915083820360408501526146d0828861465d565b915083820360608501526146e4828761465d565b915083820360808501528185518084528284019150828160051b85010183880160005b8381101561473557601f19878403018552614723838351613bee565b94860194925090850190600101614707565b50909c9b505050505050505050505050565b6000602080838503121561475a57600080fd5b82516001600160401b0381111561477057600080fd5b8301601f8101851361478157600080fd5b805161478f613d4c82613c87565b81815260059190911b820183019083810190878311156147ae57600080fd5b928401925b828410156143f3578351825292840192908401906147b3565b81810381811115610bf257610bf26141c7565b60ff81811683821602908116908181146147fb576147fb6141c7565b5092915050565b60ff8181168382160190811115610bf257610bf26141c7565b60008261482a5761482a61442a565b500690565b600060018201614841576148416141c7565b5060010190565b600061ffff80831681810361485f5761485f6141c7565b6001019392505050565b8381528260208201526060604082015260006148886060830184613bee565b95945050505050565b634e487b7160e01b600052602160045260246000fd5b6001600160401b038616815260a0602082015260006148c960a0830187613bee565b61ffff9590951660408301525063ffffffff92909216606083015260809091015292915050565b60008151614902818560208601613bca565b9290920192915050565b7f3c73766720786d6c6e733d22687474703a2f2f7777772e77332e6f72672f323081527f30302f737667222077696474683d2235313222206865696768743d22353132226020820152601f60f91b60408201527f3c726563742077696474683d223130302522206865696768743d223130302522604182015271103334b6361e9111a2a322a322a31110179f60711b60618201527f3c7465787420783d223530252220793d223333252220666f6e742d66616d696c60738201527f793d2256657264616e612220666f6e742d73697a653d223138222066696c6c3d60938201527f22626c61636b2220666f6e742d7765696768743d22626f6c642220746578742d60b38201527f616e63686f723d226d6964646c65223e4f776e65723a2000000000000000000060d382015260008451614a4d8160ea850160208901613bca565b610dc6614be2614b1f614bdc614b32614b1f614b19614a7e60ea898c0101661e17ba32bc3a1f60c91b815260070190565b7f3c7465787420783d223530252220793d223438252220666f6e742d66616d696c81527f793d2256657264616e612220666f6e742d73697a653d223138222066696c6c3d60208201527f22626c61636b2220666f6e742d7765696768743d22626f6c642220746578742d60408201527f616e63686f723d226d6964646c65223e4b65792049443a200000000000000000606082015260780190565b8b6148f0565b661e17ba32bc3a1f60c91b815260070190565b7f3c7465787420783d223530252220793d223633252220666f6e742d66616d696c81527f793d2256657264616e612220666f6e742d73697a653d223138222066696c6c3d60208201527f22626c61636b2220666f6e742d7765696768743d22626f6c642220746578742d60408201527f616e63686f723d226d6964646c65223e45787069726174696f6e2054696d657360608201526503a30b6b81d160d51b608082015260860190565b876148f0565b651e17b9bb339f60d11b815260060190565b607b60f81b81527f226e616d65223a22596f757220546f6b656e204e616d65202300000000000000600182015260008351614c3681601a850160208801613bca565b61088b60f21b601a918401918201527f226465736372697074696f6e223a22537562736372697074696f6e20746f6b65601c820152741b88199bdc881d1a194810524813585c9ad95d088b605a1b603c820152691134b6b0b3b2911d101160b11b60518201527f646174613a696d6167652f7376672b786d6c3b6261736536342c000000000000605b8201528351614cd5816075840160208801613bca565b607d60f81b60759290910191820152607601949350505050565b7f646174613a6170706c69636174696f6e2f6a736f6e3b6261736536342c000000815260008251614d2781601d850160208701613bca565b91909101601d0192915050565b60ff8281168282160390811115610bf257610bf26141c7565b600081614d5c57614d5c6141c7565b506000190190565b600181815b80851115614d9f578160001904821115614d8557614d856141c7565b80851615614d9257918102915b93841c9390800290614d69565b509250929050565b600082614db657506001610bf2565b81614dc357506000610bf2565b8160018114614dd95760028114614de357614dff565b6001915050610bf2565b60ff841115614df457614df46141c7565b50506001821b610bf2565b5060208310610133831016604e8410600b8410161715614e22575081810a610bf2565b614e2c8383614d64565b8060001904821115614e4057614e406141c7565b029392505050565b6000612fe18383614da756fe4142434445464748494a4b4c4d4e4f505152535455565758595a6162636465666768696a6b6c6d6e6f707172737475767778797a303132333435363738392b2fa2646970667358221220108752f7f3def89987d95876d203b9956e7c05e1dbc64fbe18dd25dd765042fb64736f6c63430008140033",
  "devdoc": {
    "events": {
      "Approval(address,address,uint256)": {
        "details": "Emitted when the allowance of a `spender` for an `owner` is set by a call to {approve}. `value` is the new allowance."
      },
      "Transfer(address,address,uint256)": {
        "details": "Emitted when `value` tokens are moved from one account (`from`) to another (`to`). Note that `value` may be zero."
      }
    },
    "kind": "dev",
    "methods": {
      "addRewardMechanism(string,string,address,uint256[])": {
        "details": "Only callable by the owner",
        "params": {
          "_functionForwader": "chainlink automation forwarder address",
          "_rewardDistributions": "the reward distributions for the topK agents",
          "_sourceCode": "sourceID to Forwarder address",
          "_sourceName": "sourceID to Forwarder address"
        }
      },
      "allowance(address,address)": {
        "details": "See {IERC20-allowance}."
      },
      "approve(address,uint256)": {
        "details": "See {IERC20-approve}. NOTE: If `amount` is the maximum `uint256`, the allowance is not updated on `transferFrom`. This is semantically equivalent to an infinite approval. Requirements: - `spender` cannot be the zero address."
      },
      "balanceOf(address)": {
        "details": "See {IERC20-balanceOf}."
      },
      "constructor": {
        "params": {
          "_donID": "Chainlink's contract chainID => donID",
          "_oracle": "The address of the Chainlink Function oracle",
          "_subscriptionId": "The subscription ID for Chainlink Functions",
          "_unlockContract": "The address of the Chainlink oracle Automation Forwarder"
        }
      },
      "decimals()": {
        "details": "Returns the number of decimals used to get its user representation. For example, if `decimals` equals `2`, a balance of `505` tokens should be displayed to a user as `5.05` (`505 / 10 ** 2`). Tokens usually opt for a value of 18, imitating the relationship between Ether and Wei. This is the default value returned by this function, unless it's overridden. NOTE: This information is only used for _display_ purposes: it in no way affects any of the arithmetic of the contract, including {IERC20-balanceOf} and {IERC20-transfer}."
      },
      "decreaseAllowance(address,uint256)": {
        "details": "Atomically decreases the allowance granted to `spender` by the caller. This is an alternative to {approve} that can be used as a mitigation for problems described in {IERC20-approve}. Emits an {Approval} event indicating the updated allowance. Requirements: - `spender` cannot be the zero address. - `spender` must have allowance for the caller of at least `subtractedValue`."
      },
      "handleOracleFulfillment(bytes32,bytes,bytes)": {
        "details": "Either response or error parameter will be set, but never both.",
        "params": {
          "err": "Aggregated error either from the request's source code or from the execution pipeline.",
          "requestId": "The requestId returned by FunctionsClient.sendRequest().",
          "response": "Aggregated response from the request's source code."
        }
      },
      "increaseAllowance(address,uint256)": {
        "details": "Atomically increases the allowance granted to `spender` by the caller. This is an alternative to {approve} that can be used as a mitigation for problems described in {IERC20-approve}. Emits an {Approval} event indicating the updated allowance. Requirements: - `spender` cannot be the zero address."
      },
      "name()": {
        "details": "Returns the name of the token."
      },
      "owner()": {
        "details": "Returns the address of the current owner."
      },
      "purchaseSubscription(uint16,uint256)": {
        "details": "PurchaseSubscription function for an agentID",
        "params": {
          "_agentID": "to subscribe",
          "_value": "array of tokens amount to pay for this purchase >= the current keyPrice - any applicable discount"
        }
      },
      "renounceOwnership()": {
        "details": "Leaves the contract without owner. It will not be possible to call `onlyOwner` functions. Can only be called by the current owner. NOTE: Renouncing ownership will leave the contract without an owner, thereby disabling any functionality that is only available to the owner."
      },
      "sendRequest(bytes32)": {
        "params": {
          "sourceID": "The ID of the source to send the request to"
        }
      },
      "symbol()": {
        "details": "Returns the symbol of the token, usually a shorter version of the name."
      },
      "totalSupply()": {
        "details": "See {IERC20-totalSupply}."
      },
      "transfer(address,uint256)": {
        "details": "See {IERC20-transfer}. Requirements: - `to` cannot be the zero address. - the caller must have a balance of at least `amount`."
      },
      "transferFrom(address,address,uint256)": {
        "details": "See {IERC20-transferFrom}. Emits an {Approval} event indicating the updated allowance. This is not required by the EIP. See the note at the beginning of {ERC20}. NOTE: Does not update the allowance if the current allowance is the maximum `uint256`. Requirements: - `from` and `to` cannot be the zero address. - `from` must have a balance of at least `amount`. - the caller must have allowance for ``from``'s tokens of at least `amount`."
      },
      "transferOwnership(address)": {
        "details": "Transfers ownership of the contract to a new account (`newOwner`). Can only be called by the current owner."
      },
      "withdraw(uint16)": {
        "details": "withdraw function for an agentID",
        "params": {
          "_agentID": "to withdraw money from the lock contract"
        }
      }
    },
    "title": "AgentPlace",
    "version": 1
  },
  "userdoc": {
    "kind": "user",
    "methods": {
      "addRewardMechanism(string,string,address,uint256[])": {
        "notice": "Set the setRewardMechanism that `performUpkeep` is called from a trusted address the chainlink forwarder"
      },
      "constructor": {
        "notice": "Initializes the contract"
      },
      "handleOracleFulfillment(bytes32,bytes,bytes)": {
        "notice": "Chainlink Functions response handler called by the Functions Router during fullilment from the designated transmitter node in an OCR round."
      },
      "sendRequest(bytes32)": {
        "notice": "Sends an HTTP request for character information"
      },
      "withdraw(uint16)": {
        "notice": "We give back to the agent creator 70% of the total income from that agent the platform keeps 30% of that amount"
      }
    },
    "notice": "@dev",
    "version": 1
  },
  "storageLayout": {
    "storage": [
      {
        "astId": 2508,
        "contract": "contracts/AgentPlace.sol:AgentPlace",
        "label": "_owner",
        "offset": 0,
        "slot": "0",
        "type": "t_address"
      },
      {
        "astId": 2629,
        "contract": "contracts/AgentPlace.sol:AgentPlace",
        "label": "_balances",
        "offset": 0,
        "slot": "1",
        "type": "t_mapping(t_address,t_uint256)"
      },
      {
        "astId": 2635,
        "contract": "contracts/AgentPlace.sol:AgentPlace",
        "label": "_allowances",
        "offset": 0,
        "slot": "2",
        "type": "t_mapping(t_address,t_mapping(t_address,t_uint256))"
      },
      {
        "astId": 2637,
        "contract": "contracts/AgentPlace.sol:AgentPlace",
        "label": "_totalSupply",
        "offset": 0,
        "slot": "3",
        "type": "t_uint256"
      },
      {
        "astId": 2639,
        "contract": "contracts/AgentPlace.sol:AgentPlace",
        "label": "_name",
        "offset": 0,
        "slot": "4",
        "type": "t_string_storage"
      },
      {
        "astId": 2641,
        "contract": "contracts/AgentPlace.sol:AgentPlace",
        "label": "_symbol",
        "offset": 0,
        "slot": "5",
        "type": "t_string_storage"
      },
      {
        "astId": 6733,
        "contract": "contracts/AgentPlace.sol:AgentPlace",
        "label": "subscriptionId",
        "offset": 0,
        "slot": "6",
        "type": "t_uint64"
      },
      {
        "astId": 6735,
        "contract": "contracts/AgentPlace.sol:AgentPlace",
        "label": "agentPlaceTreasury",
        "offset": 0,
        "slot": "7",
        "type": "t_uint256"
      },
      {
        "astId": 6737,
        "contract": "contracts/AgentPlace.sol:AgentPlace",
        "label": "oracle",
        "offset": 0,
        "slot": "8",
        "type": "t_address"
      },
      {
        "astId": 6740,
        "contract": "contracts/AgentPlace.sol:AgentPlace",
        "label": "gasLimit",
        "offset": 20,
        "slot": "8",
        "type": "t_uint32"
      },
      {
        "astId": 6742,
        "contract": "contracts/AgentPlace.sol:AgentPlace",
        "label": "donID",
        "offset": 0,
        "slot": "9",
        "type": "t_bytes32"
      },
      {
        "astId": 6764,
        "contract": "contracts/AgentPlace.sol:AgentPlace",
        "label": "agents",
        "offset": 0,
        "slot": "10",
        "type": "t_mapping(t_uint16,t_struct(AgentStruct)6749_storage)"
      },
      {
        "astId": 6768,
        "contract": "contracts/AgentPlace.sol:AgentPlace",
        "label": "agentVersions",
        "offset": 0,
        "slot": "11",
        "type": "t_mapping(t_uint16,t_uint16)"
      },
      {
        "astId": 6772,
        "contract": "contracts/AgentPlace.sol:AgentPlace",
        "label": "round_winners",
        "offset": 0,
        "slot": "12",
        "type": "t_mapping(t_bytes32,t_bytes_storage)"
      },
      {
        "astId": 6776,
        "contract": "contracts/AgentPlace.sol:AgentPlace",
        "label": "sources",
        "offset": 0,
        "slot": "13",
        "type": "t_mapping(t_bytes32,t_string_storage)"
      },
      {
        "astId": 6782,
        "contract": "contracts/AgentPlace.sol:AgentPlace",
        "label": "rewardDistributions",
        "offset": 0,
        "slot": "14",
        "type": "t_mapping(t_bytes32,t_mapping(t_uint8,t_uint256))"
      },
      {
        "astId": 6787,
        "contract": "contracts/AgentPlace.sol:AgentPlace",
        "label": "functionData",
        "offset": 0,
        "slot": "15",
        "type": "t_mapping(t_bytes32,t_struct(FunctionData)6759_storage)"
      },
      {
        "astId": 6792,
        "contract": "contracts/AgentPlace.sol:AgentPlace",
        "label": "requestData",
        "offset": 0,
        "slot": "16",
        "type": "t_mapping(t_bytes32,t_struct(RequestData)6754_storage)"
      },
      {
        "astId": 5850,
        "contract": "contracts/AgentPlace.sol:AgentPlace",
        "label": "unlockContract",
        "offset": 0,
        "slot": "17",
        "type": "t_contract(IUnlockV12)5830"
      }
    ],
    "types": {
      "t_address": {
        "encoding": "inplace",
        "label": "address",
        "numberOfBytes": "20"
      },
      "t_bool": {
        "encoding": "inplace",
        "label": "bool",
        "numberOfBytes": "1"
      },
      "t_bytes32": {
        "encoding": "inplace",
        "label": "bytes32",
        "numberOfBytes": "32"
      },
      "t_bytes_storage": {
        "encoding": "bytes",
        "label": "bytes",
        "numberOfBytes": "32"
      },
      "t_contract(IUnlockV12)5830": {
        "encoding": "inplace",
        "label": "contract IUnlockV12",
        "numberOfBytes": "20"
      },
      "t_mapping(t_address,t_mapping(t_address,t_uint256))": {
        "encoding": "mapping",
        "key": "t_address",
        "label": "mapping(address => mapping(address => uint256))",
        "numberOfBytes": "32",
        "value": "t_mapping(t_address,t_uint256)"
      },
      "t_mapping(t_address,t_uint256)": {
        "encoding": "mapping",
        "key": "t_address",
        "label": "mapping(address => uint256)",
        "numberOfBytes": "32",
        "value": "t_uint256"
      },
      "t_mapping(t_bytes32,t_bytes_storage)": {
        "encoding": "mapping",
        "key": "t_bytes32",
        "label": "mapping(bytes32 => bytes)",
        "numberOfBytes": "32",
        "value": "t_bytes_storage"
      },
      "t_mapping(t_bytes32,t_mapping(t_uint8,t_uint256))": {
        "encoding": "mapping",
        "key": "t_bytes32",
        "label": "mapping(bytes32 => mapping(uint8 => uint256))",
        "numberOfBytes": "32",
        "value": "t_mapping(t_uint8,t_uint256)"
      },
      "t_mapping(t_bytes32,t_string_storage)": {
        "encoding": "mapping",
        "key": "t_bytes32",
        "label": "mapping(bytes32 => string)",
        "numberOfBytes": "32",
        "value": "t_string_storage"
      },
      "t_mapping(t_bytes32,t_struct(FunctionData)6759_storage)": {
        "encoding": "mapping",
        "key": "t_bytes32",
        "label": "mapping(bytes32 => struct ChainlinkConsumer.FunctionData)",
        "numberOfBytes": "32",
        "value": "t_struct(FunctionData)6759_storage"
      },
      "t_mapping(t_bytes32,t_struct(RequestData)6754_storage)": {
        "encoding": "mapping",
        "key": "t_bytes32",
        "label": "mapping(bytes32 => struct ChainlinkConsumer.RequestData)",
        "numberOfBytes": "32",
        "value": "t_struct(RequestData)6754_storage"
      },
      "t_mapping(t_uint16,t_struct(AgentStruct)6749_storage)": {
        "encoding": "mapping",
        "key": "t_uint16",
        "label": "mapping(uint16 => struct ChainlinkConsumer.AgentStruct)",
        "numberOfBytes": "32",
        "value": "t_struct(AgentStruct)6749_storage"
      },
      "t_mapping(t_uint16,t_uint16)": {
        "encoding": "mapping",
        "key": "t_uint16",
        "label": "mapping(uint16 => uint16)",
        "numberOfBytes": "32",
        "value": "t_uint16"
      },
      "t_mapping(t_uint8,t_uint256)": {
        "encoding": "mapping",
        "key": "t_uint8",
        "label": "mapping(uint8 => uint256)",
        "numberOfBytes": "32",
        "value": "t_uint256"
      },
      "t_string_storage": {
        "encoding": "bytes",
        "label": "string",
        "numberOfBytes": "32"
      },
      "t_struct(AgentStruct)6749_storage": {
        "encoding": "inplace",
        "label": "struct ChainlinkConsumer.AgentStruct",
        "members": [
          {
            "astId": 6744,
            "contract": "contracts/AgentPlace.sol:AgentPlace",
            "label": "creator",
            "offset": 0,
            "slot": "0",
            "type": "t_address"
          },
          {
            "astId": 6746,
            "contract": "contracts/AgentPlace.sol:AgentPlace",
            "label": "lockAddress",
            "offset": 0,
            "slot": "1",
            "type": "t_address"
          },
          {
            "astId": 6748,
            "contract": "contracts/AgentPlace.sol:AgentPlace",
            "label": "isOpenForContributions",
            "offset": 20,
            "slot": "1",
            "type": "t_bool"
          }
        ],
        "numberOfBytes": "64"
      },
      "t_struct(FunctionData)6759_storage": {
        "encoding": "inplace",
        "label": "struct ChainlinkConsumer.FunctionData",
        "members": [
          {
            "astId": 6756,
            "contract": "contracts/AgentPlace.sol:AgentPlace",
            "label": "functionForwarder",
            "offset": 0,
            "slot": "0",
            "type": "t_address"
          },
          {
            "astId": 6758,
            "contract": "contracts/AgentPlace.sol:AgentPlace",
            "label": "numberOfWinners",
            "offset": 20,
            "slot": "0",
            "type": "t_uint8"
          }
        ],
        "numberOfBytes": "32"
      },
      "t_struct(RequestData)6754_storage": {
        "encoding": "inplace",
        "label": "struct ChainlinkConsumer.RequestData",
        "members": [
          {
            "astId": 6751,
            "contract": "contracts/AgentPlace.sol:AgentPlace",
            "label": "executed",
            "offset": 0,
            "slot": "0",
            "type": "t_bool"
          },
          {
            "astId": 6753,
            "contract": "contracts/AgentPlace.sol:AgentPlace",
            "label": "sourceID",
            "offset": 0,
            "slot": "1",
            "type": "t_bytes32"
          }
        ],
        "numberOfBytes": "64"
      },
      "t_uint16": {
        "encoding": "inplace",
        "label": "uint16",
        "numberOfBytes": "2"
      },
      "t_uint256": {
        "encoding": "inplace",
        "label": "uint256",
        "numberOfBytes": "32"
      },
      "t_uint32": {
        "encoding": "inplace",
        "label": "uint32",
        "numberOfBytes": "4"
      },
      "t_uint64": {
        "encoding": "inplace",
        "label": "uint64",
        "numberOfBytes": "8"
      },
      "t_uint8": {
        "encoding": "inplace",
        "label": "uint8",
        "numberOfBytes": "1"
      }
    }
  }
}