{
  "address": "0x0294e2aC7043c7d2D861F5C921ccec8f7A559188",
  "abi": [
    {
      "inputs": [
        {
          "internalType": "address",
          "name": "_oracle",
          "type": "address"
        },
        {
          "internalType": "contract IUnlockV12",
          "name": "_unlockContract",
          "type": "address"
        },
        {
          "internalType": "bytes32",
          "name": "_donID",
          "type": "bytes32"
        },
        {
          "internalType": "uint64",
          "name": "_subscriptionId",
          "type": "uint64"
        }
      ],
      "stateMutability": "nonpayable",
      "type": "constructor"
    },
    {
      "inputs": [],
      "name": "EmptySource",
      "type": "error"
    },
    {
      "inputs": [],
      "name": "NoInlineSecrets",
      "type": "error"
    },
    {
      "inputs": [],
      "name": "OnlyRouterCanFulfill",
      "type": "error"
    },
    {
      "inputs": [
        {
          "internalType": "bytes32",
          "name": "requestId",
          "type": "bytes32"
        }
      ],
      "name": "UnexpectedRequestID",
      "type": "error"
    },
    {
      "anonymous": false,
      "inputs": [
        {
          "indexed": true,
          "internalType": "address",
          "name": "owner",
          "type": "address"
        },
        {
          "indexed": true,
          "internalType": "address",
          "name": "spender",
          "type": "address"
        },
        {
          "indexed": false,
          "internalType": "uint256",
          "name": "value",
          "type": "uint256"
        }
      ],
      "name": "Approval",
      "type": "event"
    },
    {
      "anonymous": false,
      "inputs": [
        {
          "indexed": true,
          "internalType": "address",
          "name": "previousOwner",
          "type": "address"
        },
        {
          "indexed": true,
          "internalType": "address",
          "name": "newOwner",
          "type": "address"
        }
      ],
      "name": "OwnershipTransferred",
      "type": "event"
    },
    {
      "anonymous": false,
      "inputs": [
        {
          "indexed": true,
          "internalType": "bytes32",
          "name": "id",
          "type": "bytes32"
        }
      ],
      "name": "RequestFulfilled",
      "type": "event"
    },
    {
      "anonymous": false,
      "inputs": [
        {
          "indexed": true,
          "internalType": "bytes32",
          "name": "id",
          "type": "bytes32"
        }
      ],
      "name": "RequestSent",
      "type": "event"
    },
    {
      "anonymous": false,
      "inputs": [
        {
          "indexed": true,
          "internalType": "bytes32",
          "name": "requestId",
          "type": "bytes32"
        },
        {
          "indexed": false,
          "internalType": "bytes",
          "name": "response",
          "type": "bytes"
        }
      ],
      "name": "Response",
      "type": "event"
    },
    {
      "anonymous": false,
      "inputs": [
        {
          "indexed": true,
          "internalType": "address",
          "name": "from",
          "type": "address"
        },
        {
          "indexed": true,
          "internalType": "address",
          "name": "to",
          "type": "address"
        },
        {
          "indexed": false,
          "internalType": "uint256",
          "name": "value",
          "type": "uint256"
        }
      ],
      "name": "Transfer",
      "type": "event"
    },
    {
      "anonymous": false,
      "inputs": [
        {
          "indexed": false,
          "internalType": "string",
          "name": "agentName",
          "type": "string"
        },
        {
          "indexed": false,
          "internalType": "uint16",
          "name": "agentID",
          "type": "uint16"
        },
        {
          "indexed": false,
          "internalType": "address",
          "name": "creator",
          "type": "address"
        },
        {
          "indexed": false,
          "internalType": "address",
          "name": "UnlockSubscriptionContract",
          "type": "address"
        },
        {
          "indexed": false,
          "internalType": "uint256",
          "name": "KeyPrice",
          "type": "uint256"
        },
        {
          "indexed": false,
          "internalType": "uint256",
          "name": "basisPoint",
          "type": "uint256"
        },
        {
          "indexed": false,
          "internalType": "string",
          "name": "categories",
          "type": "string"
        },
        {
          "indexed": false,
          "internalType": "bool",
          "name": "isOpenForContributions",
          "type": "bool"
        }
      ],
      "name": "agentRegistered",
      "type": "event"
    },
    {
      "anonymous": false,
      "inputs": [
        {
          "indexed": false,
          "internalType": "uint16",
          "name": "agentID",
          "type": "uint16"
        },
        {
          "indexed": false,
          "internalType": "address",
          "name": "agentCreator",
          "type": "address"
        },
        {
          "indexed": false,
          "internalType": "address",
          "name": "subscriber",
          "type": "address"
        }
      ],
      "name": "agentSubscriptionPurchased",
      "type": "event"
    },
    {
      "anonymous": false,
      "inputs": [
        {
          "indexed": false,
          "internalType": "uint16",
          "name": "agentID",
          "type": "uint16"
        },
        {
          "indexed": false,
          "internalType": "string",
          "name": "agentVersionName",
          "type": "string"
        },
        {
          "indexed": false,
          "internalType": "uint16",
          "name": "agentVersionID",
          "type": "uint16"
        },
        {
          "indexed": false,
          "internalType": "address",
          "name": "creator",
          "type": "address"
        },
        {
          "indexed": false,
          "internalType": "string",
          "name": "agentMetadataCID",
          "type": "string"
        }
      ],
      "name": "agentVersionRegistered",
      "type": "event"
    },
    {
      "anonymous": false,
      "inputs": [
        {
          "indexed": false,
          "internalType": "string",
          "name": "sourceName",
          "type": "string"
        },
        {
          "indexed": false,
          "internalType": "string",
          "name": "sourceCode",
          "type": "string"
        },
        {
          "indexed": false,
          "internalType": "bytes32",
          "name": "sourceID",
          "type": "bytes32"
        },
        {
          "indexed": false,
          "internalType": "uint8[]",
          "name": "rewardDistributions",
          "type": "uint8[]"
        }
      ],
      "name": "rewardMechanismRegistered",
      "type": "event"
    },
    {
      "inputs": [
        {
          "internalType": "string",
          "name": "_sourceName",
          "type": "string"
        },
        {
          "internalType": "string",
          "name": "_sourceCode",
          "type": "string"
        },
        {
          "internalType": "address",
          "name": "_functionForwader",
          "type": "address"
        },
        {
          "internalType": "uint8[]",
          "name": "_rewardDistributions",
          "type": "uint8[]"
        }
      ],
      "name": "addRewardMechanism",
      "outputs": [],
      "stateMutability": "nonpayable",
      "type": "function"
    },
    {
      "inputs": [
        {
          "internalType": "uint16",
          "name": "",
          "type": "uint16"
        }
      ],
      "name": "agents",
      "outputs": [
        {
          "internalType": "address",
          "name": "creator",
          "type": "address"
        },
        {
          "internalType": "address",
          "name": "lockAddress",
          "type": "address"
        },
        {
          "internalType": "bool",
          "name": "isOpenForContributions",
          "type": "bool"
        }
      ],
      "stateMutability": "view",
      "type": "function"
    },
    {
      "inputs": [
        {
          "internalType": "address",
          "name": "owner",
          "type": "address"
        },
        {
          "internalType": "address",
          "name": "spender",
          "type": "address"
        }
      ],
      "name": "allowance",
      "outputs": [
        {
          "internalType": "uint256",
          "name": "",
          "type": "uint256"
        }
      ],
      "stateMutability": "view",
      "type": "function"
    },
    {
      "inputs": [
        {
          "internalType": "address",
          "name": "spender",
          "type": "address"
        },
        {
          "internalType": "uint256",
          "name": "amount",
          "type": "uint256"
        }
      ],
      "name": "approve",
      "outputs": [
        {
          "internalType": "bool",
          "name": "",
          "type": "bool"
        }
      ],
      "stateMutability": "nonpayable",
      "type": "function"
    },
    {
      "inputs": [
        {
          "internalType": "address",
          "name": "account",
          "type": "address"
        }
      ],
      "name": "balanceOf",
      "outputs": [
        {
          "internalType": "uint256",
          "name": "",
          "type": "uint256"
        }
      ],
      "stateMutability": "view",
      "type": "function"
    },
    {
      "inputs": [],
      "name": "decimals",
      "outputs": [
        {
          "internalType": "uint8",
          "name": "",
          "type": "uint8"
        }
      ],
      "stateMutability": "view",
      "type": "function"
    },
    {
      "inputs": [
        {
          "internalType": "address",
          "name": "spender",
          "type": "address"
        },
        {
          "internalType": "uint256",
          "name": "subtractedValue",
          "type": "uint256"
        }
      ],
      "name": "decreaseAllowance",
      "outputs": [
        {
          "internalType": "bool",
          "name": "",
          "type": "bool"
        }
      ],
      "stateMutability": "nonpayable",
      "type": "function"
    },
    {
      "inputs": [
        {
          "internalType": "bytes32",
          "name": "",
          "type": "bytes32"
        }
      ],
      "name": "functionsForwarders",
      "outputs": [
        {
          "internalType": "address",
          "name": "",
          "type": "address"
        }
      ],
      "stateMutability": "view",
      "type": "function"
    },
    {
      "inputs": [
        {
          "internalType": "bytes32",
          "name": "requestId",
          "type": "bytes32"
        },
        {
          "internalType": "bytes",
          "name": "response",
          "type": "bytes"
        },
        {
          "internalType": "bytes",
          "name": "err",
          "type": "bytes"
        }
      ],
      "name": "handleOracleFulfillment",
      "outputs": [],
      "stateMutability": "nonpayable",
      "type": "function"
    },
    {
      "inputs": [
        {
          "internalType": "address",
          "name": "spender",
          "type": "address"
        },
        {
          "internalType": "uint256",
          "name": "addedValue",
          "type": "uint256"
        }
      ],
      "name": "increaseAllowance",
      "outputs": [
        {
          "internalType": "bool",
          "name": "",
          "type": "bool"
        }
      ],
      "stateMutability": "nonpayable",
      "type": "function"
    },
    {
      "inputs": [
        {
          "internalType": "address",
          "name": "",
          "type": "address"
        },
        {
          "internalType": "address",
          "name": "",
          "type": "address"
        },
        {
          "internalType": "address",
          "name": "",
          "type": "address"
        },
        {
          "internalType": "bytes",
          "name": "",
          "type": "bytes"
        }
      ],
      "name": "keyPurchasePrice",
      "outputs": [
        {
          "internalType": "uint256",
          "name": "minKeyPrice",
          "type": "uint256"
        }
      ],
      "stateMutability": "view",
      "type": "function"
    },
    {
      "inputs": [],
      "name": "name",
      "outputs": [
        {
          "internalType": "string",
          "name": "",
          "type": "string"
        }
      ],
      "stateMutability": "view",
      "type": "function"
    },
    {
      "inputs": [
        {
          "internalType": "uint256",
          "name": "",
          "type": "uint256"
        },
        {
          "internalType": "address",
          "name": "from",
          "type": "address"
        },
        {
          "internalType": "address",
          "name": "",
          "type": "address"
        },
        {
          "internalType": "address",
          "name": "",
          "type": "address"
        },
        {
          "internalType": "bytes",
          "name": "",
          "type": "bytes"
        },
        {
          "internalType": "uint256",
          "name": "",
          "type": "uint256"
        },
        {
          "internalType": "uint256",
          "name": "",
          "type": "uint256"
        }
      ],
      "name": "onKeyPurchase",
      "outputs": [],
      "stateMutability": "view",
      "type": "function"
    },
    {
      "inputs": [],
      "name": "owner",
      "outputs": [
        {
          "internalType": "address",
          "name": "",
          "type": "address"
        }
      ],
      "stateMutability": "view",
      "type": "function"
    },
    {
      "inputs": [
        {
          "internalType": "uint16",
          "name": "_agentID",
          "type": "uint16"
        },
        {
          "internalType": "uint256",
          "name": "_value",
          "type": "uint256"
        }
      ],
      "name": "purchaseSubscription",
      "outputs": [],
      "stateMutability": "payable",
      "type": "function"
    },
    {
      "inputs": [
        {
          "components": [
            {
              "internalType": "string",
              "name": "agentName",
              "type": "string"
            },
            {
              "internalType": "uint16",
              "name": "agentID",
              "type": "uint16"
            },
            {
              "internalType": "address",
              "name": "tokenAddress",
              "type": "address"
            },
            {
              "internalType": "uint256",
              "name": "keyPrice",
              "type": "uint256"
            },
            {
              "internalType": "uint256",
              "name": "basisPoint",
              "type": "uint256"
            },
            {
              "internalType": "string",
              "name": "lockName",
              "type": "string"
            },
            {
              "internalType": "string",
              "name": "lockSymbol",
              "type": "string"
            },
            {
              "internalType": "string",
              "name": "baseTokenURI",
              "type": "string"
            },
            {
              "internalType": "string",
              "name": "category",
              "type": "string"
            },
            {
              "internalType": "bool",
              "name": "isOpenForContributions",
              "type": "bool"
            }
          ],
          "internalType": "struct AgentPlace.AgentInitConfig",
          "name": "agentConfig",
          "type": "tuple"
        }
      ],
      "name": "registerAgent",
      "outputs": [],
      "stateMutability": "nonpayable",
      "type": "function"
    },
    {
      "inputs": [
        {
          "internalType": "uint16",
          "name": "_agentID",
          "type": "uint16"
        },
        {
          "internalType": "uint16",
          "name": "_agentVersionID",
          "type": "uint16"
        },
        {
          "internalType": "string",
          "name": "_agentVersionName",
          "type": "string"
        },
        {
          "internalType": "string",
          "name": "_agentMetadataCID",
          "type": "string"
        }
      ],
      "name": "registerAgentVersion",
      "outputs": [],
      "stateMutability": "nonpayable",
      "type": "function"
    },
    {
      "inputs": [],
      "name": "renounceOwnership",
      "outputs": [],
      "stateMutability": "nonpayable",
      "type": "function"
    },
    {
      "inputs": [
        {
          "internalType": "bytes32",
          "name": "",
          "type": "bytes32"
        }
      ],
      "name": "requestToSource",
      "outputs": [
        {
          "internalType": "bytes32",
          "name": "",
          "type": "bytes32"
        }
      ],
      "stateMutability": "view",
      "type": "function"
    },
    {
      "inputs": [
        {
          "internalType": "bytes32",
          "name": "",
          "type": "bytes32"
        },
        {
          "internalType": "uint256",
          "name": "",
          "type": "uint256"
        }
      ],
      "name": "rewardDistributions",
      "outputs": [
        {
          "internalType": "uint8",
          "name": "",
          "type": "uint8"
        }
      ],
      "stateMutability": "view",
      "type": "function"
    },
    {
      "inputs": [
        {
          "internalType": "bytes32",
          "name": "_requestID",
          "type": "bytes32"
        }
      ],
      "name": "rewardsDistribution",
      "outputs": [],
      "stateMutability": "nonpayable",
      "type": "function"
    },
    {
      "inputs": [
        {
          "internalType": "bytes32",
          "name": "sourceID",
          "type": "bytes32"
        }
      ],
      "name": "sendRequest",
      "outputs": [],
      "stateMutability": "nonpayable",
      "type": "function"
    },
    {
      "inputs": [
        {
          "internalType": "bytes32",
          "name": "",
          "type": "bytes32"
        }
      ],
      "name": "sources",
      "outputs": [
        {
          "internalType": "string",
          "name": "",
          "type": "string"
        }
      ],
      "stateMutability": "view",
      "type": "function"
    },
    {
      "inputs": [],
      "name": "symbol",
      "outputs": [
        {
          "internalType": "string",
          "name": "",
          "type": "string"
        }
      ],
      "stateMutability": "view",
      "type": "function"
    },
    {
      "inputs": [],
      "name": "totalSupply",
      "outputs": [
        {
          "internalType": "uint256",
          "name": "",
          "type": "uint256"
        }
      ],
      "stateMutability": "view",
      "type": "function"
    },
    {
      "inputs": [
        {
          "internalType": "address",
          "name": "to",
          "type": "address"
        },
        {
          "internalType": "uint256",
          "name": "amount",
          "type": "uint256"
        }
      ],
      "name": "transfer",
      "outputs": [
        {
          "internalType": "bool",
          "name": "",
          "type": "bool"
        }
      ],
      "stateMutability": "nonpayable",
      "type": "function"
    },
    {
      "inputs": [
        {
          "internalType": "address",
          "name": "from",
          "type": "address"
        },
        {
          "internalType": "address",
          "name": "to",
          "type": "address"
        },
        {
          "internalType": "uint256",
          "name": "amount",
          "type": "uint256"
        }
      ],
      "name": "transferFrom",
      "outputs": [
        {
          "internalType": "bool",
          "name": "",
          "type": "bool"
        }
      ],
      "stateMutability": "nonpayable",
      "type": "function"
    },
    {
      "inputs": [
        {
          "internalType": "address",
          "name": "newOwner",
          "type": "address"
        }
      ],
      "name": "transferOwnership",
      "outputs": [],
      "stateMutability": "nonpayable",
      "type": "function"
    },
    {
      "inputs": [
        {
          "internalType": "uint16",
          "name": "_agentID",
          "type": "uint16"
        }
      ],
      "name": "withdraw",
      "outputs": [],
      "stateMutability": "nonpayable",
      "type": "function"
    },
    {
      "inputs": [
        {
          "internalType": "address",
          "name": "tokenAddress",
          "type": "address"
        }
      ],
      "name": "withdraw",
      "outputs": [],
      "stateMutability": "nonpayable",
      "type": "function"
    },
    {
      "stateMutability": "payable",
      "type": "receive"
    }
  ],
  "transactionHash": "0x0ef56241e98a21b0539e62223632f8fe60ff1ac8e8485292f16eee8150cc74a4",
  "args": [
    "0x6E2dc0F9DB014aE19888F539E59285D2Ea04244C",
    "0x1FF7e338d5E582138C46044dc238543Ce555C963",
    "0x66756e2d706f6c79676f6e2d6d756d6261692d31000000000000000000000000",
    785
  ],
  "numDeployments": 7,
  "solcInputHash": "3db8ad898c5ee648055159832c7c1260",
  "bytecode": "0x60a0604052600a805463ffffffff1916620493e01790553480156200002357600080fd5b506040516200419038038062004190833981016040819052620000469162000179565b604080518082018252600a815269444149204147454e545360b01b602080830191909152825180840190935260048352634441494160e01b908301526001600160a01b038616608052859184918491620000a03362000110565b6004620000ae838262000285565b506005620000bd828262000285565b5050600680546001600160401b0319166001600160401b03939093169290921790915550600b555050601380546001600160a01b0319166001600160a01b03939093169290921790915550620003519050565b600080546001600160a01b038381166001600160a01b0319831681178455604051919092169283917f8be0079c531659141344cd1fd0a4f28419497f9722a3daafe3b4186f6b6457e09190a35050565b6001600160a01b03811681146200017657600080fd5b50565b600080600080608085870312156200019057600080fd5b84516200019d8162000160565b6020860151909450620001b08162000160565b6040860151606087015191945092506001600160401b0381168114620001d557600080fd5b939692955090935050565b634e487b7160e01b600052604160045260246000fd5b600181811c908216806200020b57607f821691505b6020821081036200022c57634e487b7160e01b600052602260045260246000fd5b50919050565b601f8211156200028057600081815260208120601f850160051c810160208610156200025b5750805b601f850160051c820191505b818110156200027c5782815560010162000267565b5050505b505050565b81516001600160401b03811115620002a157620002a1620001e0565b620002b981620002b28454620001f6565b8462000232565b602080601f831160018114620002f15760008415620002d85750858301515b600019600386901b1c1916600185901b1785556200027c565b600085815260208120601f198616915b82811015620003225788860151825594840194600190910190840162000301565b5085821015620003415787850151600019600388901b60f8161c191681555b5050505050600190811b01905550565b608051613e1c6200037460003960008181610a1201526128410152613e1c6000f3fe6080604052600436106101d15760003560e01c80635e895f29116100f7578063a457c2d711610095578063f2fde38b11610064578063f2fde38b146105a2578063f803812d146105c2578063facd969a146105e2578063fb6ce32c1461061857600080fd5b8063a457c2d71461052f578063a9059cbb1461054f578063ad67325d1461056f578063dd62ed3e1461058257600080fd5b8063715018a6116100d1578063715018a6146104b35780638c3d86b4146104c85780638da5cb5b146104e857806395d89b411461051a57600080fd5b80635e895f291461043d5780635f1d78ae1461045d57806370a082311461047d57600080fd5b806318160ddd1161016f578063395093511161013e57806339509351146103bd5780633d972839146103dd5780634025f436146103fd57806351cff8d91461041d57600080fd5b806318160ddd14610346578063221c1fd11461035b57806323b872dd1461037b578063313ce5671461039b57600080fd5b806307e32904116101ab57806307e3290414610261578063095ea7b3146102815780630ca76175146102b1578063140b3eff146102d157600080fd5b806301fe5977146101dd57806304d470bd146101ff57806306fdde031461023f57600080fd5b366101d857005b600080fd5b3480156101e957600080fd5b506101fd6101f8366004613050565b610638565b005b34801561020b57600080fd5b5061022c61021a3660046130d4565b60116020526000908152604090205481565b6040519081526020015b60405180910390f35b34801561024b57600080fd5b506102546107a9565b6040516102369190613133565b34801561026d57600080fd5b506101fd61027c3660046130d4565b61083b565b34801561028d57600080fd5b506102a161029c36600461315b565b6109ed565b6040519015158152602001610236565b3480156102bd57600080fd5b506101fd6102cc366004613187565b610a07565b3480156102dd57600080fd5b5061031e6102ec3660046131f3565b600c60205260009081526040902080546001909101546001600160a01b0391821691811690600160a01b900460ff1683565b604080516001600160a01b039485168152939092166020840152151590820152606001610236565b34801561035257600080fd5b5060035461022c565b34801561036757600080fd5b5061022c610376366004613256565b610a8b565b34801561038757600080fd5b506102a16103963660046132d1565b610af9565b3480156103a757600080fd5b5060125b60405160ff9091168152602001610236565b3480156103c957600080fd5b506102a16103d836600461315b565b610b1d565b3480156103e957600080fd5b506101fd6103f83660046131f3565b610b3f565b34801561040957600080fd5b506103ab610418366004613312565b610d1d565b34801561042957600080fd5b506101fd610438366004613334565b610d60565b34801561044957600080fd5b506101fd610458366004613351565b610e6e565b34801561046957600080fd5b506102546104783660046130d4565b610e8d565b34801561048957600080fd5b5061022c610498366004613334565b6001600160a01b031660009081526001602052604090205490565b3480156104bf57600080fd5b506101fd610f27565b3480156104d457600080fd5b506101fd6104e33660046130d4565b610f3b565b3480156104f457600080fd5b506000546001600160a01b03165b6040516001600160a01b039091168152602001610236565b34801561052657600080fd5b50610254611091565b34801561053b57600080fd5b506102a161054a36600461315b565b6110a0565b34801561055b57600080fd5b506102a161056a36600461315b565b61111b565b6101fd61057d3660046133e4565b611129565b34801561058e57600080fd5b5061022c61059d366004613400565b611576565b3480156105ae57600080fd5b506101fd6105bd366004613334565b6115a1565b3480156105ce57600080fd5b506101fd6105dd36600461345c565b61161a565b3480156105ee57600080fd5b506105026105fd3660046130d4565b6012602052600090815260409020546001600160a01b031681565b34801561062457600080fd5b506101fd61063336600461355f565b611738565b61ffff84166000908152600c6020526040902060010154600160a01b900460ff166106b65760405162461bcd60e51b815260206004820152602360248201527f6167656e74206973206e6f74206f70656e20666f7220636f6e747269627574696044820152626f6e7360e81b60648201526084015b60405180910390fd5b604080516060810182523380825261ffff8088166000908152600c60208181528683206001908101546001600160a01b03908116838901908152888a01868152968d1686529390925292879020955186549082166001600160a01b0319909116178655905194909101805492511515600160a01b026001600160a81b031990931694909116939093171790915590517fb424121bd0b8c47446bd1b78766e14b5ea0296a02d034d6b92702c8e9f377cc4916107799187918691889190879061359a565b60405180910390a1505061ffff9081166000908152600d6020526040902080549190921661ffff19909116179055565b6060600480546107b8906135ee565b80601f01602080910402602001604051908101604052809291908181526020018280546107e4906135ee565b80156108315780601f1061080657610100808354040283529160200191610831565b820191906000526020600020905b81548152906001019060200180831161081457829003601f168201915b5050505050905090565b6000818152600e602052604081208054610854906135ee565b80601f0160208091040260200160405190810160405280929190818152602001828054610880906135ee565b80156108cd5780601f106108a2576101008083540402835291602001916108cd565b820191906000526020600020905b8154815290600101906020018083116108b057829003601f168201915b5050505050905060006108df82611b0c565b905060006108ec82611d9c565b6000858152601160205260408120549192505b60008281526010602052604090205460ff821610156109e5576000600c6000858460ff168151811061093357610933613628565b602002602001015161ffff1661ffff16815260200190815260200160002060000160009054906101000a90046001600160a01b031690506000601060008581526020019081526020016000208360ff168154811061099357610993613628565b60009182526020918290209181049091015460ff601f9092166101000a90041690506109d0826109cb83670de0b6b3a7640000613654565b611f35565b505080806109dd9061366b565b9150506108ff565b505050505050565b6000336109fb818585611ff6565b60019150505b92915050565b336001600160a01b037f00000000000000000000000000000000000000000000000000000000000000001614610a505760405163c6829f8360e01b815260040160405180910390fd5b610a5b83838361211a565b60405183907f85e1543bf2f84fe80c6badbce3648c8539ad1df4d2b3d822938ca0538be727e690600090a2505050565b6000336001600160a01b03166310e569736040518163ffffffff1660e01b8152600401602060405180830381865afa158015610acb573d6000803e3d6000fd5b505050506040513d601f19601f82011682018060405250810190610aef919061368a565b9695505050505050565b600033610b07858285612170565b610b128585856121e4565b506001949350505050565b6000336109fb818585610b308383611576565b610b3a91906136a3565b611ff6565b61ffff81166000908152600c60209081526040808320815160608101835281546001600160a01b039081168252600190920154918216938101849052600160a01b90910460ff1615159181019190915291813190610b9e600a836136cc565b610ba9906007613654565b90506000836001600160a01b0316639d76ea586040518163ffffffff1660e01b8152600401602060405180830381865afa158015610beb573d6000803e3d6000fd5b505050506040513d601f19601f82011682018060405250810190610c0f91906136e0565b604051636ce5768960e11b81526001600160a01b038083166004830152306024830152604482018690529192509085169063d9caed1290606401600060405180830381600087803b158015610c6357600080fd5b505af1158015610c77573d6000803e3d6000fd5b505086519150506001600160a01b038216610c9b57610c96818461238f565b610d14565b60405163a9059cbb60e01b81526001600160a01b0382811660048301526024820185905283919082169063a9059cbb906044016020604051808303816000875af1158015610ced573d6000803e3d6000fd5b505050506040513d601f19601f82011682018060405250810190610d11919061370b565b50505b50505050505050565b60106020528160005260406000208181548110610d3957600080fd5b9060005260206000209060209182820401919006915091509054906101000a900460ff1681565b610d686124ad565b336001600160a01b038216610d8557610d81814761238f565b5050565b6040516370a0823160e01b815230600482015282906001600160a01b0382169063a9059cbb90849083906370a0823190602401602060405180830381865afa158015610dd5573d6000803e3d6000fd5b505050506040513d601f19601f82011682018060405250810190610df9919061368a565b6040516001600160e01b031960e085901b1681526001600160a01b03909216600483015260248201526044016020604051808303816000875af1158015610e44573d6000803e3d6000fd5b505050506040513d601f19601f82011682018060405250810190610e68919061370b565b50505050565b6001600160a01b0387163014610e8357600080fd5b5050505050505050565b600f6020526000908152604090208054610ea6906135ee565b80601f0160208091040260200160405190810160405280929190818152602001828054610ed2906135ee565b8015610f1f5780601f10610ef457610100808354040283529160200191610f1f565b820191906000526020600020905b815481529060010190602001808311610f0257829003601f168201915b505050505081565b610f2f6124ad565b610f396000612507565b565b6000818152601260205260409020546001600160a01b03163314610f5e57600080fd5b610f9f6040805160e0810190915280600081526020016000815260200160008152602001606081526020016060815260200160608152602001606081525090565b6000828152600f60205260409020805461104a9190610fbd906135ee565b80601f0160208091040260200160405190810160405280929190818152602001828054610fe9906135ee565b80156110365780601f1061100b57610100808354040283529160200191611036565b820191906000526020600020905b81548152906001019060200180831161101957829003601f168201915b50505050508261255790919063ffffffff16565b600061107b61105883612564565b600654600a54600b546001600160401b039092169163ffffffff9091169061283c565b6000908152601160205260409020929092555050565b6060600580546107b8906135ee565b600033816110ae8286611576565b90508381101561110e5760405162461bcd60e51b815260206004820152602560248201527f45524332303a2064656372656173656420616c6c6f77616e63652062656c6f77604482015264207a65726f60d81b60648201526084016106ad565b610b128286868403611ff6565b6000336109fb8185856121e4565b6040805160018082528183019092526000916020808301908036833750506040805160018082528183019092529293506000929150602080830190803683375050604080516001808252818301909252929350600092915060208083019080368337505060408051600180825281830190925292935060009291506020808301908036833750506040805160018082528183019092529293506000929150602082015b60608152602001906001900390816111cc5790505061ffff88166000908152600c60205260409020600101549091506001600160a01b03811690600160a01b900460ff166112695761ffff88166000908152600c602052604081205487516001600160a01b0390911691829189919061124757611247613628565b60200260200101906001600160a01b031690816001600160a01b031681525050505b868360008151811061127d5761127d613628565b602002602001018181525050338560008151811061129d5761129d613628565b60200260200101906001600160a01b031690816001600160a01b0316815250506000816001600160a01b0316639d76ea586040518163ffffffff1660e01b8152600401602060405180830381865afa1580156112fd573d6000803e3d6000fd5b505050506040513d601f19601f8201168201806040525081019061132191906136e0565b90506000826001600160a01b03166310e569736040518163ffffffff1660e01b8152600401602060405180830381865afa158015611363573d6000803e3d6000fd5b505050506040513d601f19601f82011682018060405250810190611387919061368a565b90506001600160a01b03821615611491576040516323b872dd60e01b8152336004820152306024820152604481018290526001600160a01b038316906323b872dd906064016020604051808303816000875af11580156113eb573d6000803e3d6000fd5b505050506040513d601f19601f8201168201806040525081019061140f919061370b565b50604051633381899760e01b81526001600160a01b038416906333818997906114449088908b908d908c908b9060040161376c565b6000604051808303816000875af1158015611463573d6000803e3d6000fd5b505050506040513d6000823e601f3d908101601f1916820160405261148b9190810190613844565b50611510565b604051633381899760e01b81526001600160a01b0384169063338189979034906114c79089908c908e908d908c9060040161376c565b60006040518083038185885af11580156114e5573d6000803e3d6000fd5b50505050506040513d6000823e601f3d908101601f1916820160405261150e9190810190613844565b505b61ffff8a166000818152600c60209081526040918290205482519384526001600160a01b0316908301523382820152517fd6df7e7836dcad6338c5ef9f97973d038946a27d9c62e290a1fccf4a55a84c0b9181900360600190a150505050505050505050565b6001600160a01b03918216600090815260026020908152604080832093909416825291909152205490565b6115a96124ad565b6001600160a01b03811661160e5760405162461bcd60e51b815260206004820152602660248201527f4f776e61626c653a206e6577206f776e657220697320746865207a65726f206160448201526564647265737360d01b60648201526084016106ad565b61161781612507565b50565b6116226124ad565b600061162d8561290e565b600081815260126020908152604080832080546001600160a01b0319166001600160a01b038916179055600f909152902090915061166b858261391a565b5060005b82518160ff1610156116f35760008281526010602052604090208351849060ff84169081106116a0576116a0613628565b6020908102919091018101518254600181018455600093845292829020918304909101805460ff928316601f9094166101000a9384029290930219909216179055806116eb8161366b565b91505061166f565b507fe31e0fb04d5e988b710ab2bf552b370b340ccf34049a4e9f406defc2868b74858585838560405161172994939291906139d9565b60405180910390a15050505050565b6000600c8161174d60408501602086016131f3565b61ffff1681526020810191909152604001600020546001600160a01b0316146117af5760405162461bcd60e51b81526020600482015260146024820152736167656e7420616c72656164792065786973747360601b60448201526064016106ad565b6013546000906001600160a01b03166342d921066228de806117d76060860160408701613334565b60608601356000196117ec60a0890189613a4d565b6040516001600160e01b031960e089901b16815261181596959493929190600090600401613abc565b6020604051808303816000875af1158015611834573d6000803e3d6000fd5b505050506040513d601f19601f8201168201806040525081019061185891906136e0565b90506001600160a01b03811663d1b8759b61187660a0850185613a4d565b61188360c0870187613a4d565b61189060e0890189613a4d565b6040518763ffffffff1660e01b81526004016118b196959493929190613b15565b600060405180830381600087803b1580156118cb57600080fd5b505af11580156118df573d6000803e3d6000fd5b505050506080820135156119525760405163debe2b0d60e01b815260006004820152608083013560248201526001600160a01b0382169063debe2b0d90604401600060405180830381600087803b15801561193957600080fd5b505af115801561194d573d6000803e3d6000fd5b505050505b6040516374cac47d60e01b815230600482015260006024820181905260448201819052606482018190526084820181905260a4820181905260c48201526001600160a01b038216906374cac47d9060e401600060405180830381600087803b1580156119bd57600080fd5b505af11580156119d1573d6000803e3d6000fd5b5050604080516060810182523381526001600160a01b0385166020820152925082019050611a0761014085016101208601613b51565b15159052600c6000611a1f60408601602087016131f3565b61ffff1681526020808201929092526040908101600020835181546001600160a01b0319166001600160a01b039182161782559284015160019091018054949092015192166001600160a81b031990931692909217600160a01b911515919091021790557f9bd97d9870b377402b7bb6ae42ef6263369f374498bdcf0f6f65ba00f5f28fb4611aae8380613a4d565b611abe60408601602087016131f3565b338560608801356080890135611ad86101008b018b613a4d565b611aea6101408d016101208e01613b51565b604051611b009a99989796959493929190613b6e565b60405180910390a15050565b60606000829050600281511015611b735760405162461bcd60e51b815260206004820152602560248201527f536f7572636520737472696e67206e6f742070726f7065726c7920666f726d616044820152643a3a32b21760d91b60648201526084016106ad565b80600081518110611b8657611b86613628565b6020910101516001600160f81b031916600360fc1b148015611bfc575080600181518110611bb657611bb6613628565b6020910101516001600160f81b031916600f60fb1b1480611bfc575080600181518110611be557611be5613628565b6020910101516001600160f81b031916600b60fb1b145b611c545760405162461bcd60e51b815260206004820152602360248201527f536f7572636520737472696e67206d75737420737461727420776974682027306044820152623c139760e91b60648201526084016106ad565b8051600203611c73575050604080516000815260208101909152919050565b60006002808351611c849190613be1565b611c8e91906136cc565b90506000816001600160401b03811115611caa57611caa612f9b565b6040519080825280601f01601f191660200182016040528015611cd4576020820181803683370190505b50905060025b8351811015611d9357611d1684611cf28360016136a3565b81518110611d0257611d02613628565b01602001516001600160f81b03191661293e565b611d2b858381518110611d0257611d02613628565b611d36906010613bf4565b611d409190613c17565b60f81b826002611d508185613be1565b611d5a91906136cc565b81518110611d6a57611d6a613628565b60200101906001600160f81b031916908160001a905350611d8c6002826136a3565b9050611cda565b50949350505050565b606060048251611dac9190613c30565b15611e055760405162461bcd60e51b815260206004820152602360248201527f44617461206c656e677468206d7573742062652061206d756c7469706c65206f60448201526219880d60ea1b60648201526084016106ad565b6000805b8351811015611e44576000611e1e8583612a14565b9050611e2e61ffff8216846136a3565b9250611e3d90506004826136a3565b9050611e09565b506000816001600160401b03811115611e5f57611e5f612f9b565b604051908082528060200260200182016040528015611e88578160200160208202803683370190505b5090506000805b8551811015611f2b576000611ea48783612a14565b90506000611ebc88611eb78560026136a3565b612a14565b905060005b8261ffff168161ffff161015611f1457818686611edd81613c44565b975081518110611eef57611eef613628565b61ffff9092166020928302919091019091015280611f0c81613c5d565b915050611ec1565b505050600481611f2491906136a3565b9050611e8f565b5090949350505050565b6001600160a01b038216611f8b5760405162461bcd60e51b815260206004820152601f60248201527f45524332303a206d696e7420746f20746865207a65726f20616464726573730060448201526064016106ad565b8060036000828254611f9d91906136a3565b90915550506001600160a01b0382166000818152600160209081526040808320805486019055518481527fddf252ad1be2c89b69c2b068fc378daa952ba7f163c4a11628f55a4df523b3ef910160405180910390a35050565b6001600160a01b0383166120585760405162461bcd60e51b8152602060048201526024808201527f45524332303a20617070726f76652066726f6d20746865207a65726f206164646044820152637265737360e01b60648201526084016106ad565b6001600160a01b0382166120b95760405162461bcd60e51b815260206004820152602260248201527f45524332303a20617070726f766520746f20746865207a65726f206164647265604482015261737360f01b60648201526084016106ad565b6001600160a01b0383811660008181526002602090815260408083209487168084529482529182902085905590518481527f8c5be1e5ebec7d5bd14f71427d1e84f3dd0314c0f7b2291e5b200ac8c7c3b925910160405180910390a3505050565b6000838152600e60205260409020612132838261391a565b50827f9f87a8bdffc6b3f1a785d49b122c82d1202938cbecfdd5b26fc975ff923a892a836040516121639190613133565b60405180910390a2505050565b600061217c8484611576565b90506000198114610e6857818110156121d75760405162461bcd60e51b815260206004820152601d60248201527f45524332303a20696e73756666696369656e7420616c6c6f77616e636500000060448201526064016106ad565b610e688484848403611ff6565b6001600160a01b0383166122485760405162461bcd60e51b815260206004820152602560248201527f45524332303a207472616e736665722066726f6d20746865207a65726f206164604482015264647265737360d81b60648201526084016106ad565b6001600160a01b0382166122aa5760405162461bcd60e51b815260206004820152602360248201527f45524332303a207472616e7366657220746f20746865207a65726f206164647260448201526265737360e81b60648201526084016106ad565b6001600160a01b038316600090815260016020526040902054818110156123225760405162461bcd60e51b815260206004820152602660248201527f45524332303a207472616e7366657220616d6f756e7420657863656564732062604482015265616c616e636560d01b60648201526084016106ad565b6001600160a01b0380851660008181526001602052604080822086860390559286168082529083902080548601905591517fddf252ad1be2c89b69c2b068fc378daa952ba7f163c4a11628f55a4df523b3ef906123829086815260200190565b60405180910390a3610e68565b804710156123df5760405162461bcd60e51b815260206004820152601d60248201527f416464726573733a20696e73756666696369656e742062616c616e636500000060448201526064016106ad565b6000826001600160a01b03168260405160006040518083038185875af1925050503d806000811461242c576040519150601f19603f3d011682016040523d82523d6000602084013e612431565b606091505b50509050806124a85760405162461bcd60e51b815260206004820152603a60248201527f416464726573733a20756e61626c6520746f2073656e642076616c75652c207260448201527f6563697069656e74206d6179206861766520726576657274656400000000000060648201526084016106ad565b505050565b6000546001600160a01b03163314610f395760405162461bcd60e51b815260206004820181905260248201527f4f776e61626c653a2063616c6c6572206973206e6f7420746865206f776e657260448201526064016106ad565b600080546001600160a01b038381166001600160a01b0319831681178455604051919092169283917f8be0079c531659141344cd1fd0a4f28419497f9722a3daafe3b4186f6b6457e09190a35050565b610d818260008084612a71565b60606000612573610100612aef565b90506125ac6040518060400160405280600c81526020016b31b7b232a637b1b0ba34b7b760a11b81525082612b1090919063ffffffff16565b82516125ca9060028111156125c3576125c3613c7e565b8290612b29565b6040805180820190915260088152676c616e677561676560c01b60208201526125f4908290612b10565b604083015161260b9080156125c3576125c3613c7e565b604080518082019091526006815265736f7572636560d01b6020820152612633908290612b10565b6060830151612643908290612b10565b60a083015151156126d7576040805180820190915260048152636172677360e01b6020820152612674908290612b10565b61267d81612b62565b60005b8360a00151518110156126cd576126bd8460a0015182815181106126a6576126a6613628565b602002602001015183612b1090919063ffffffff16565b6126c681613c44565b9050612680565b506126d781612b86565b6080830151511561279b576000836020015160028111156126fa576126fa613c7e565b036127185760405163a80d31f760e01b815260040160405180910390fd5b60408051808201909152600f81526e39b2b1b932ba39a637b1b0ba34b7b760891b6020820152612749908290612b10565b612762836020015160028111156125c3576125c3613c7e565b6040805180820190915260078152667365637265747360c81b602082015261278b908290612b10565b608083015161279b908290612ba4565b60c083015151156128345760408051808201909152600981526862797465734172677360b81b60208201526127d1908290612b10565b6127da81612b62565b60005b8360c001515181101561282a5761281a8460c00151828151811061280357612803613628565b602002602001015183612ba490919063ffffffff16565b61282381613c44565b90506127dd565b5061283481612b86565b515192915050565b6000807f00000000000000000000000000000000000000000000000000000000000000006001600160a01b031663461d27628688600188886040518663ffffffff1660e01b8152600401612894959493929190613c94565b6020604051808303816000875af11580156128b3573d6000803e3d6000fd5b505050506040513d601f19601f820116820180604052508101906128d7919061368a565b60405190915081907f1131472297a800fee664d1d89cfa8f7676ff07189ecc53f80bbb5f4969099db890600090a295945050505050565b6000816040516020016129219190613133565b604051602081830303815290604052805190602001209050919050565b600060f882901c6030811080159061295a575060398160ff1611155b156129715761296a603082613cdd565b9392505050565b60618160ff1610158015612989575060668160ff1611155b156129a457612999606182613cdd565b61296a90600a613c17565b60418160ff16101580156129bc575060468160ff1611155b156129cc57612999604182613cdd565b60405162461bcd60e51b815260206004820152601b60248201527f496e76616c69642063686172616374657220696e20737472696e67000000000060448201526064016106ad565b8151600090612a248360026136a3565b1115612a685760405162461bcd60e51b8152602060048201526013602482015272496e646578206f7574206f6620626f756e647360681b60448201526064016106ad565b50016002015190565b8051600003612a93576040516322ce3edd60e01b815260040160405180910390fd5b83836002811115612aa657612aa6613c7e565b90816002811115612ab957612ab9613c7e565b90525060408401828015612acf57612acf613c7e565b90818015612adf57612adf613c7e565b9052506060909301929092525050565b612af7612f4f565b8051612b039083612bb1565b5060006020820152919050565b612b1d8260038351612c28565b81516124a89082612d41565b8151612b369060c2612d62565b50610d818282604051602001612b4e91815260200190565b604051602081830303815290604052612ba4565b612b6d816004612dcb565b600181602001818151612b8091906136a3565b90525050565b612b91816007612dcb565b600181602001818151612b809190613be1565b612b1d8260028351612c28565b604080518082019091526060815260006020820152612bd1602083613c30565b15612bf957612be1602083613c30565b612bec906020613be1565b612bf690836136a3565b91505b602080840183905260405180855260008152908184010181811015612c1d57600080fd5b604052509192915050565b6017816001600160401b031611612c4e578251610e689060e0600585901b168317612d62565b60ff816001600160401b031611612c8e578251612c76906018611fe0600586901b1617612d62565b508251610e68906001600160401b0383166001612de2565b61ffff816001600160401b031611612ccf578251612cb7906019611fe0600586901b1617612d62565b508251610e68906001600160401b0383166002612de2565b63ffffffff816001600160401b031611612d12578251612cfa90601a611fe0600586901b1617612d62565b508251610e68906001600160401b0383166004612de2565b8251612d2990601b611fe0600586901b1617612d62565b508251610e68906001600160401b0383166008612de2565b60408051808201909152606081526000602082015261296a83838451612e67565b6040805180820190915260608152600060208201528251516000612d878260016136a3565b905084602001518210612da857612da885612da3836002613654565b612f38565b8451602083820101858153508051821115612dc1578181525b5093949350505050565b81516124a890601f611fe0600585901b1617612d62565b6040805180820190915260608152600060208201528351516000612e0682856136a3565b90508560200151811115612e2357612e2386612da3836002613654565b60006001612e3386610100613dda565b612e3d9190613be1565b90508651828101878319825116178152508051831115612e5b578281525b50959695505050505050565b6040805180820190915260608152600060208201528251821115612e8a57600080fd5b8351516000612e9984836136a3565b90508560200151811115612eb657612eb686612da3836002613654565b855180518382016020019160009180851115612ed0578482525b505050602086015b60208610612f105780518252612eef6020836136a3565b9150612efc6020826136a3565b9050612f09602087613be1565b9550612ed8565b51815160001960208890036101000a0190811690199190911617905250849150509392505050565b8151612f448383612bb1565b50610e688382612d41565b6040518060400160405280612f77604051806040016040528060608152602001600081525090565b8152602001600081525090565b803561ffff81168114612f9657600080fd5b919050565b634e487b7160e01b600052604160045260246000fd5b604051601f8201601f191681016001600160401b0381118282101715612fd957612fd9612f9b565b604052919050565b600082601f830112612ff257600080fd5b81356001600160401b0381111561300b5761300b612f9b565b61301e601f8201601f1916602001612fb1565b81815284602083860101111561303357600080fd5b816020850160208301376000918101602001919091529392505050565b6000806000806080858703121561306657600080fd5b61306f85612f84565b935061307d60208601612f84565b925060408501356001600160401b038082111561309957600080fd5b6130a588838901612fe1565b935060608701359150808211156130bb57600080fd5b506130c887828801612fe1565b91505092959194509250565b6000602082840312156130e657600080fd5b5035919050565b6000815180845260005b81811015613113576020818501810151868301820152016130f7565b506000602082860101526020601f19601f83011685010191505092915050565b60208152600061296a60208301846130ed565b6001600160a01b038116811461161757600080fd5b6000806040838503121561316e57600080fd5b823561317981613146565b946020939093013593505050565b60008060006060848603121561319c57600080fd5b8335925060208401356001600160401b03808211156131ba57600080fd5b6131c687838801612fe1565b935060408601359150808211156131dc57600080fd5b506131e986828701612fe1565b9150509250925092565b60006020828403121561320557600080fd5b61296a82612f84565b60008083601f84011261322057600080fd5b5081356001600160401b0381111561323757600080fd5b60208301915083602082850101111561324f57600080fd5b9250929050565b60008060008060006080868803121561326e57600080fd5b853561327981613146565b9450602086013561328981613146565b9350604086013561329981613146565b925060608601356001600160401b038111156132b457600080fd5b6132c08882890161320e565b969995985093965092949392505050565b6000806000606084860312156132e657600080fd5b83356132f181613146565b9250602084013561330181613146565b929592945050506040919091013590565b6000806040838503121561332557600080fd5b50508035926020909101359150565b60006020828403121561334657600080fd5b813561296a81613146565b60008060008060008060008060e0898b03121561336d57600080fd5b88359750602089013561337f81613146565b9650604089013561338f81613146565b9550606089013561339f81613146565b945060808901356001600160401b038111156133ba57600080fd5b6133c68b828c0161320e565b999c989b5096999598969760a08701359660c0013595509350505050565b600080604083850312156133f757600080fd5b61317983612f84565b6000806040838503121561341357600080fd5b823561341e81613146565b9150602083013561342e81613146565b809150509250929050565b60006001600160401b0382111561345257613452612f9b565b5060051b60200190565b6000806000806080858703121561347257600080fd5b84356001600160401b038082111561348957600080fd5b61349588838901612fe1565b95506020915081870135818111156134ac57600080fd5b6134b889828a01612fe1565b95505060408701356134c981613146565b93506060870135818111156134dd57600080fd5b87019050601f810188136134f057600080fd5b80356135036134fe82613439565b612fb1565b81815260059190911b8201830190838101908a83111561352257600080fd5b928401925b8284101561355057833560ff811681146135415760008081fd5b82529284019290840190613527565b979a9699509497505050505050565b60006020828403121561357157600080fd5b81356001600160401b0381111561358757600080fd5b8201610140818503121561296a57600080fd5b600061ffff808816835260a060208401526135b860a08401886130ed565b86821660408501526001600160a01b038616606085015283810360808501526135e181866130ed565b9998505050505050505050565b600181811c9082168061360257607f821691505b60208210810361362257634e487b7160e01b600052602260045260246000fd5b50919050565b634e487b7160e01b600052603260045260246000fd5b634e487b7160e01b600052601160045260246000fd5b8082028115828204841417610a0157610a0161363e565b600060ff821660ff81036136815761368161363e565b60010192915050565b60006020828403121561369c57600080fd5b5051919050565b80820180821115610a0157610a0161363e565b634e487b7160e01b600052601260045260246000fd5b6000826136db576136db6136b6565b500490565b6000602082840312156136f257600080fd5b815161296a81613146565b801515811461161757600080fd5b60006020828403121561371d57600080fd5b815161296a816136fd565b600081518084526020808501945080840160005b838110156137615781516001600160a01b03168752958201959082019060010161373c565b509495945050505050565b60a0808252865190820181905260009060209060c0840190828a01845b828110156137a557815184529284019290840190600101613789565b505050838103828501526137b98189613728565b905083810360408501526137cd8188613728565b905083810360608501526137e18187613728565b905083810360808501528085518083528383019150838160051b84010184880160005b8381101561383257601f198684030185526138208383516130ed565b94870194925090860190600101613804565b50909c9b505050505050505050505050565b6000602080838503121561385757600080fd5b82516001600160401b0381111561386d57600080fd5b8301601f8101851361387e57600080fd5b805161388c6134fe82613439565b81815260059190911b820183019083810190878311156138ab57600080fd5b928401925b828410156138c9578351825292840192908401906138b0565b979650505050505050565b601f8211156124a857600081815260208120601f850160051c810160208610156138fb5750805b601f850160051c820191505b818110156109e557828155600101613907565b81516001600160401b0381111561393357613933612f9b565b6139478161394184546135ee565b846138d4565b602080601f83116001811461397c57600084156139645750858301515b600019600386901b1c1916600185901b1785556109e5565b600085815260208120601f198616915b828110156139ab5788860151825594840194600190910190840161398c565b50858210156139c95787850151600019600388901b60f8161c191681555b5050505050600190811b01905550565b6080815260006139ec60808301876130ed565b6020838203818501526139ff82886130ed565b604085018790528481036060860152855180825282870193509082019060005b81811015613a3e57845160ff1683529383019391830191600101613a1f565b50909998505050505050505050565b6000808335601e19843603018112613a6457600080fd5b8301803591506001600160401b03821115613a7e57600080fd5b60200191503681900382131561324f57600080fd5b81835281816020850137506000828201602090810191909152601f909101601f19169091010190565b87815260018060a01b038716602082015285604082015284606082015260c060808201526000613af060c083018587613a93565b90506bffffffffffffffffffffffff60a01b831660a083015298975050505050505050565b606081526000613b2960608301888a613a93565b8281036020840152613b3c818789613a93565b905082810360408401526135e1818587613a93565b600060208284031215613b6357600080fd5b813561296a816136fd565b6000610100808352613b838184018d8f613a93565b61ffff8c1660208501526001600160a01b038b811660408601528a1660608501526080840189905260a0840188905283810360c08501529050613bc7818688613a93565b91505082151560e08301529b9a5050505050505050505050565b81810381811115610a0157610a0161363e565b60ff8181168382160290811690818114613c1057613c1061363e565b5092915050565b60ff8181168382160190811115610a0157610a0161363e565b600082613c3f57613c3f6136b6565b500690565b600060018201613c5657613c5661363e565b5060010190565b600061ffff808316818103613c7457613c7461363e565b6001019392505050565b634e487b7160e01b600052602160045260246000fd5b6001600160401b038616815260a060208201526000613cb660a08301876130ed565b61ffff9590951660408301525063ffffffff92909216606083015260809091015292915050565b60ff8281168282160390811115610a0157610a0161363e565b600181815b80851115613d31578160001904821115613d1757613d1761363e565b80851615613d2457918102915b93841c9390800290613cfb565b509250929050565b600082613d4857506001610a01565b81613d5557506000610a01565b8160018114613d6b5760028114613d7557613d91565b6001915050610a01565b60ff841115613d8657613d8661363e565b50506001821b610a01565b5060208310610133831016604e8410600b8410161715613db4575081810a610a01565b613dbe8383613cf6565b8060001904821115613dd257613dd261363e565b029392505050565b600061296a8383613d3956fea26469706673582212200a1dab118808bd969ee7f459fbecc5961fa3a507e35d7ba33814fbcb5bba4d1564736f6c63430008140033",
  "devdoc": {
    "events": {
      "Approval(address,address,uint256)": {
        "details": "Emitted when the allowance of a `spender` for an `owner` is set by a call to {approve}. `value` is the new allowance."
      },
      "Transfer(address,address,uint256)": {
        "details": "Emitted when `value` tokens are moved from one account (`from`) to another (`to`). Note that `value` may be zero."
      }
    },
    "kind": "dev",
    "methods": {
      "addRewardMechanism(string,string,address,uint8[])": {
        "details": "Only callable by the owner",
        "params": {
          "_functionForwader": "the address to set",
          "_rewardDistributions": "the reward distributions for the topK agents",
          "_sourceCode": "sourceID to Forwarder address",
          "_sourceName": "sourceID to Forwarder address"
        }
      },
      "allowance(address,address)": {
        "details": "See {IERC20-allowance}."
      },
      "approve(address,uint256)": {
        "details": "See {IERC20-approve}. NOTE: If `amount` is the maximum `uint256`, the allowance is not updated on `transferFrom`. This is semantically equivalent to an infinite approval. Requirements: - `spender` cannot be the zero address."
      },
      "balanceOf(address)": {
        "details": "See {IERC20-balanceOf}."
      },
      "constructor": {
        "params": {
          "_donID": "Chainlink's contract chainID => donID ",
          "_oracle": "The address of the Chainlink Function oracle",
          "_subscriptionId": "The subscription ID for Chainlink Functions",
          "_unlockContract": "The address of the Chainlink oracle Automation Forwarder"
        }
      },
      "decimals()": {
        "details": "Returns the number of decimals used to get its user representation. For example, if `decimals` equals `2`, a balance of `505` tokens should be displayed to a user as `5.05` (`505 / 10 ** 2`). Tokens usually opt for a value of 18, imitating the relationship between Ether and Wei. This is the default value returned by this function, unless it's overridden. NOTE: This information is only used for _display_ purposes: it in no way affects any of the arithmetic of the contract, including {IERC20-balanceOf} and {IERC20-transfer}."
      },
      "decreaseAllowance(address,uint256)": {
        "details": "Atomically decreases the allowance granted to `spender` by the caller. This is an alternative to {approve} that can be used as a mitigation for problems described in {IERC20-approve}. Emits an {Approval} event indicating the updated allowance. Requirements: - `spender` cannot be the zero address. - `spender` must have allowance for the caller of at least `subtractedValue`."
      },
      "handleOracleFulfillment(bytes32,bytes,bytes)": {
        "details": "Either response or error parameter will be set, but never both.",
        "params": {
          "err": "Aggregated error either from the request's source code or from the execution pipeline.",
          "requestId": "The requestId returned by FunctionsClient.sendRequest().",
          "response": "Aggregated response from the request's source code."
        }
      },
      "increaseAllowance(address,uint256)": {
        "details": "Atomically increases the allowance granted to `spender` by the caller. This is an alternative to {approve} that can be used as a mitigation for problems described in {IERC20-approve}. Emits an {Approval} event indicating the updated allowance. Requirements: - `spender` cannot be the zero address."
      },
      "name()": {
        "details": "Returns the name of the token."
      },
      "owner()": {
        "details": "Returns the address of the current owner."
      },
      "purchaseSubscription(uint16,uint256)": {
        "details": "PurchaseSubscription function for an agentID",
        "params": {
          "_agentID": "to subscribe",
          "_value": "array of tokens amount to pay for this purchase >= the current keyPrice - any applicable discount"
        }
      },
      "renounceOwnership()": {
        "details": "Leaves the contract without owner. It will not be possible to call `onlyOwner` functions. Can only be called by the current owner. NOTE: Renouncing ownership will leave the contract without an owner, thereby disabling any functionality that is only available to the owner."
      },
      "sendRequest(bytes32)": {
        "params": {
          "sourceID": "The ID of the source to send the request to"
        }
      },
      "symbol()": {
        "details": "Returns the symbol of the token, usually a shorter version of the name."
      },
      "totalSupply()": {
        "details": "See {IERC20-totalSupply}."
      },
      "transfer(address,uint256)": {
        "details": "See {IERC20-transfer}. Requirements: - `to` cannot be the zero address. - the caller must have a balance of at least `amount`."
      },
      "transferFrom(address,address,uint256)": {
        "details": "See {IERC20-transferFrom}. Emits an {Approval} event indicating the updated allowance. This is not required by the EIP. See the note at the beginning of {ERC20}. NOTE: Does not update the allowance if the current allowance is the maximum `uint256`. Requirements: - `from` and `to` cannot be the zero address. - `from` must have a balance of at least `amount`. - the caller must have allowance for ``from``'s tokens of at least `amount`."
      },
      "transferOwnership(address)": {
        "details": "Transfers ownership of the contract to a new account (`newOwner`). Can only be called by the current owner."
      },
      "withdraw(uint16)": {
        "details": "withdraw function for an agentID",
        "params": {
          "_agentID": "to withdraw money from the lock contract"
        }
      }
    },
    "title": "AgentPlace",
    "version": 1
  },
  "userdoc": {
    "kind": "user",
    "methods": {
      "addRewardMechanism(string,string,address,uint8[])": {
        "notice": "Set the setRewardMechanism that `performUpkeep` is called from a trusted address the chainlink forwarder"
      },
      "constructor": {
        "notice": "Initializes the contract"
      },
      "handleOracleFulfillment(bytes32,bytes,bytes)": {
        "notice": "Chainlink Functions response handler called by the Functions Router during fullilment from the designated transmitter node in an OCR round."
      },
      "sendRequest(bytes32)": {
        "notice": "Sends an HTTP request for character information"
      },
      "withdraw(uint16)": {
        "notice": "We give back to the agent creator 70% of the total income from that agent the platform keeps 30% of that amount"
      }
    },
    "version": 1
  },
  "storageLayout": {
    "storage": [
      {
        "astId": 2508,
        "contract": "contracts/AgentPlace.sol:AgentPlace",
        "label": "_owner",
        "offset": 0,
        "slot": "0",
        "type": "t_address"
      },
      {
        "astId": 2629,
        "contract": "contracts/AgentPlace.sol:AgentPlace",
        "label": "_balances",
        "offset": 0,
        "slot": "1",
        "type": "t_mapping(t_address,t_uint256)"
      },
      {
        "astId": 2635,
        "contract": "contracts/AgentPlace.sol:AgentPlace",
        "label": "_allowances",
        "offset": 0,
        "slot": "2",
        "type": "t_mapping(t_address,t_mapping(t_address,t_uint256))"
      },
      {
        "astId": 2637,
        "contract": "contracts/AgentPlace.sol:AgentPlace",
        "label": "_totalSupply",
        "offset": 0,
        "slot": "3",
        "type": "t_uint256"
      },
      {
        "astId": 2639,
        "contract": "contracts/AgentPlace.sol:AgentPlace",
        "label": "_name",
        "offset": 0,
        "slot": "4",
        "type": "t_string_storage"
      },
      {
        "astId": 2641,
        "contract": "contracts/AgentPlace.sol:AgentPlace",
        "label": "_symbol",
        "offset": 0,
        "slot": "5",
        "type": "t_string_storage"
      },
      {
        "astId": 6530,
        "contract": "contracts/AgentPlace.sol:AgentPlace",
        "label": "subscriptionId",
        "offset": 0,
        "slot": "6",
        "type": "t_uint64"
      },
      {
        "astId": 6532,
        "contract": "contracts/AgentPlace.sol:AgentPlace",
        "label": "agentPlaceTreasury",
        "offset": 0,
        "slot": "7",
        "type": "t_uint256"
      },
      {
        "astId": 6534,
        "contract": "contracts/AgentPlace.sol:AgentPlace",
        "label": "oracle",
        "offset": 0,
        "slot": "8",
        "type": "t_address"
      },
      {
        "astId": 6536,
        "contract": "contracts/AgentPlace.sol:AgentPlace",
        "label": "source",
        "offset": 0,
        "slot": "9",
        "type": "t_string_storage"
      },
      {
        "astId": 6539,
        "contract": "contracts/AgentPlace.sol:AgentPlace",
        "label": "gasLimit",
        "offset": 0,
        "slot": "10",
        "type": "t_uint32"
      },
      {
        "astId": 6541,
        "contract": "contracts/AgentPlace.sol:AgentPlace",
        "label": "donID",
        "offset": 0,
        "slot": "11",
        "type": "t_bytes32"
      },
      {
        "astId": 6553,
        "contract": "contracts/AgentPlace.sol:AgentPlace",
        "label": "agents",
        "offset": 0,
        "slot": "12",
        "type": "t_mapping(t_uint16,t_struct(AgentStruct)6548_storage)"
      },
      {
        "astId": 6557,
        "contract": "contracts/AgentPlace.sol:AgentPlace",
        "label": "agentVersions",
        "offset": 0,
        "slot": "13",
        "type": "t_mapping(t_uint16,t_uint16)"
      },
      {
        "astId": 6561,
        "contract": "contracts/AgentPlace.sol:AgentPlace",
        "label": "round_winners",
        "offset": 0,
        "slot": "14",
        "type": "t_mapping(t_bytes32,t_bytes_storage)"
      },
      {
        "astId": 6565,
        "contract": "contracts/AgentPlace.sol:AgentPlace",
        "label": "sources",
        "offset": 0,
        "slot": "15",
        "type": "t_mapping(t_bytes32,t_string_storage)"
      },
      {
        "astId": 6570,
        "contract": "contracts/AgentPlace.sol:AgentPlace",
        "label": "rewardDistributions",
        "offset": 0,
        "slot": "16",
        "type": "t_mapping(t_bytes32,t_array(t_uint8)dyn_storage)"
      },
      {
        "astId": 6574,
        "contract": "contracts/AgentPlace.sol:AgentPlace",
        "label": "requestToSource",
        "offset": 0,
        "slot": "17",
        "type": "t_mapping(t_bytes32,t_bytes32)"
      },
      {
        "astId": 6578,
        "contract": "contracts/AgentPlace.sol:AgentPlace",
        "label": "functionsForwarders",
        "offset": 0,
        "slot": "18",
        "type": "t_mapping(t_bytes32,t_address)"
      },
      {
        "astId": 5848,
        "contract": "contracts/AgentPlace.sol:AgentPlace",
        "label": "unlockContract",
        "offset": 0,
        "slot": "19",
        "type": "t_contract(IUnlockV12)5830"
      }
    ],
    "types": {
      "t_address": {
        "encoding": "inplace",
        "label": "address",
        "numberOfBytes": "20"
      },
      "t_array(t_uint8)dyn_storage": {
        "base": "t_uint8",
        "encoding": "dynamic_array",
        "label": "uint8[]",
        "numberOfBytes": "32"
      },
      "t_bool": {
        "encoding": "inplace",
        "label": "bool",
        "numberOfBytes": "1"
      },
      "t_bytes32": {
        "encoding": "inplace",
        "label": "bytes32",
        "numberOfBytes": "32"
      },
      "t_bytes_storage": {
        "encoding": "bytes",
        "label": "bytes",
        "numberOfBytes": "32"
      },
      "t_contract(IUnlockV12)5830": {
        "encoding": "inplace",
        "label": "contract IUnlockV12",
        "numberOfBytes": "20"
      },
      "t_mapping(t_address,t_mapping(t_address,t_uint256))": {
        "encoding": "mapping",
        "key": "t_address",
        "label": "mapping(address => mapping(address => uint256))",
        "numberOfBytes": "32",
        "value": "t_mapping(t_address,t_uint256)"
      },
      "t_mapping(t_address,t_uint256)": {
        "encoding": "mapping",
        "key": "t_address",
        "label": "mapping(address => uint256)",
        "numberOfBytes": "32",
        "value": "t_uint256"
      },
      "t_mapping(t_bytes32,t_address)": {
        "encoding": "mapping",
        "key": "t_bytes32",
        "label": "mapping(bytes32 => address)",
        "numberOfBytes": "32",
        "value": "t_address"
      },
      "t_mapping(t_bytes32,t_array(t_uint8)dyn_storage)": {
        "encoding": "mapping",
        "key": "t_bytes32",
        "label": "mapping(bytes32 => uint8[])",
        "numberOfBytes": "32",
        "value": "t_array(t_uint8)dyn_storage"
      },
      "t_mapping(t_bytes32,t_bytes32)": {
        "encoding": "mapping",
        "key": "t_bytes32",
        "label": "mapping(bytes32 => bytes32)",
        "numberOfBytes": "32",
        "value": "t_bytes32"
      },
      "t_mapping(t_bytes32,t_bytes_storage)": {
        "encoding": "mapping",
        "key": "t_bytes32",
        "label": "mapping(bytes32 => bytes)",
        "numberOfBytes": "32",
        "value": "t_bytes_storage"
      },
      "t_mapping(t_bytes32,t_string_storage)": {
        "encoding": "mapping",
        "key": "t_bytes32",
        "label": "mapping(bytes32 => string)",
        "numberOfBytes": "32",
        "value": "t_string_storage"
      },
      "t_mapping(t_uint16,t_struct(AgentStruct)6548_storage)": {
        "encoding": "mapping",
        "key": "t_uint16",
        "label": "mapping(uint16 => struct ChainlinkConsumer.AgentStruct)",
        "numberOfBytes": "32",
        "value": "t_struct(AgentStruct)6548_storage"
      },
      "t_mapping(t_uint16,t_uint16)": {
        "encoding": "mapping",
        "key": "t_uint16",
        "label": "mapping(uint16 => uint16)",
        "numberOfBytes": "32",
        "value": "t_uint16"
      },
      "t_string_storage": {
        "encoding": "bytes",
        "label": "string",
        "numberOfBytes": "32"
      },
      "t_struct(AgentStruct)6548_storage": {
        "encoding": "inplace",
        "label": "struct ChainlinkConsumer.AgentStruct",
        "members": [
          {
            "astId": 6543,
            "contract": "contracts/AgentPlace.sol:AgentPlace",
            "label": "creator",
            "offset": 0,
            "slot": "0",
            "type": "t_address"
          },
          {
            "astId": 6545,
            "contract": "contracts/AgentPlace.sol:AgentPlace",
            "label": "lockAddress",
            "offset": 0,
            "slot": "1",
            "type": "t_address"
          },
          {
            "astId": 6547,
            "contract": "contracts/AgentPlace.sol:AgentPlace",
            "label": "isOpenForContributions",
            "offset": 20,
            "slot": "1",
            "type": "t_bool"
          }
        ],
        "numberOfBytes": "64"
      },
      "t_uint16": {
        "encoding": "inplace",
        "label": "uint16",
        "numberOfBytes": "2"
      },
      "t_uint256": {
        "encoding": "inplace",
        "label": "uint256",
        "numberOfBytes": "32"
      },
      "t_uint32": {
        "encoding": "inplace",
        "label": "uint32",
        "numberOfBytes": "4"
      },
      "t_uint64": {
        "encoding": "inplace",
        "label": "uint64",
        "numberOfBytes": "8"
      },
      "t_uint8": {
        "encoding": "inplace",
        "label": "uint8",
        "numberOfBytes": "1"
      }
    }
  }
}