{
  "address": "0x2B4337C01C460ACC1A3a090dCcB0d1b9EDf21ecc",
  "abi": [
    {
      "inputs": [
        {
          "internalType": "address",
          "name": "_oracle",
          "type": "address"
        },
        {
          "internalType": "contract IUnlockV12",
          "name": "_unlockContract",
          "type": "address"
        },
        {
          "internalType": "bytes32",
          "name": "_donID",
          "type": "bytes32"
        },
        {
          "internalType": "uint64",
          "name": "_subscriptionId",
          "type": "uint64"
        },
        {
          "internalType": "string",
          "name": "_source",
          "type": "string"
        },
        {
          "internalType": "uint32",
          "name": "_gasLimit",
          "type": "uint32"
        },
        {
          "internalType": "uint8",
          "name": "_topK",
          "type": "uint8"
        },
        {
          "internalType": "uint8[]",
          "name": "_splits",
          "type": "uint8[]"
        }
      ],
      "stateMutability": "nonpayable",
      "type": "constructor"
    },
    {
      "inputs": [],
      "name": "EmptySource",
      "type": "error"
    },
    {
      "inputs": [],
      "name": "NoInlineSecrets",
      "type": "error"
    },
    {
      "inputs": [],
      "name": "OnlyRouterCanFulfill",
      "type": "error"
    },
    {
      "inputs": [
        {
          "internalType": "bytes32",
          "name": "requestId",
          "type": "bytes32"
        }
      ],
      "name": "UnexpectedRequestID",
      "type": "error"
    },
    {
      "anonymous": false,
      "inputs": [
        {
          "indexed": true,
          "internalType": "address",
          "name": "owner",
          "type": "address"
        },
        {
          "indexed": true,
          "internalType": "address",
          "name": "spender",
          "type": "address"
        },
        {
          "indexed": false,
          "internalType": "uint256",
          "name": "value",
          "type": "uint256"
        }
      ],
      "name": "Approval",
      "type": "event"
    },
    {
      "anonymous": false,
      "inputs": [
        {
          "indexed": true,
          "internalType": "address",
          "name": "previousOwner",
          "type": "address"
        },
        {
          "indexed": true,
          "internalType": "address",
          "name": "newOwner",
          "type": "address"
        }
      ],
      "name": "OwnershipTransferred",
      "type": "event"
    },
    {
      "anonymous": false,
      "inputs": [
        {
          "indexed": true,
          "internalType": "bytes32",
          "name": "id",
          "type": "bytes32"
        }
      ],
      "name": "RequestFulfilled",
      "type": "event"
    },
    {
      "anonymous": false,
      "inputs": [
        {
          "indexed": true,
          "internalType": "bytes32",
          "name": "id",
          "type": "bytes32"
        }
      ],
      "name": "RequestSent",
      "type": "event"
    },
    {
      "anonymous": false,
      "inputs": [
        {
          "indexed": true,
          "internalType": "bytes32",
          "name": "requestId",
          "type": "bytes32"
        },
        {
          "indexed": false,
          "internalType": "bytes",
          "name": "response",
          "type": "bytes"
        }
      ],
      "name": "Response",
      "type": "event"
    },
    {
      "anonymous": false,
      "inputs": [
        {
          "indexed": true,
          "internalType": "address",
          "name": "from",
          "type": "address"
        },
        {
          "indexed": true,
          "internalType": "address",
          "name": "to",
          "type": "address"
        },
        {
          "indexed": false,
          "internalType": "uint256",
          "name": "value",
          "type": "uint256"
        }
      ],
      "name": "Transfer",
      "type": "event"
    },
    {
      "anonymous": false,
      "inputs": [
        {
          "indexed": false,
          "internalType": "uint16",
          "name": "agentID",
          "type": "uint16"
        },
        {
          "indexed": false,
          "internalType": "address",
          "name": "creator",
          "type": "address"
        },
        {
          "indexed": false,
          "internalType": "address",
          "name": "UnlockSubscriptionContract",
          "type": "address"
        },
        {
          "indexed": false,
          "internalType": "bool",
          "name": "isOpenForContributions",
          "type": "bool"
        }
      ],
      "name": "agentRegistered",
      "type": "event"
    },
    {
      "anonymous": false,
      "inputs": [
        {
          "indexed": false,
          "internalType": "uint16",
          "name": "agentID",
          "type": "uint16"
        },
        {
          "indexed": false,
          "internalType": "uint16",
          "name": "agentVersionID",
          "type": "uint16"
        },
        {
          "indexed": false,
          "internalType": "address",
          "name": "creator",
          "type": "address"
        },
        {
          "indexed": false,
          "internalType": "string",
          "name": "agentMetadataCID",
          "type": "string"
        }
      ],
      "name": "agentVersionRegistered",
      "type": "event"
    },
    {
      "inputs": [
        {
          "internalType": "uint16",
          "name": "",
          "type": "uint16"
        }
      ],
      "name": "agents",
      "outputs": [
        {
          "internalType": "address",
          "name": "creator",
          "type": "address"
        },
        {
          "internalType": "address",
          "name": "lockAddress",
          "type": "address"
        },
        {
          "internalType": "bool",
          "name": "isOpenForContributions",
          "type": "bool"
        }
      ],
      "stateMutability": "view",
      "type": "function"
    },
    {
      "inputs": [
        {
          "internalType": "address",
          "name": "owner",
          "type": "address"
        },
        {
          "internalType": "address",
          "name": "spender",
          "type": "address"
        }
      ],
      "name": "allowance",
      "outputs": [
        {
          "internalType": "uint256",
          "name": "",
          "type": "uint256"
        }
      ],
      "stateMutability": "view",
      "type": "function"
    },
    {
      "inputs": [
        {
          "internalType": "address",
          "name": "spender",
          "type": "address"
        },
        {
          "internalType": "uint256",
          "name": "amount",
          "type": "uint256"
        }
      ],
      "name": "approve",
      "outputs": [
        {
          "internalType": "bool",
          "name": "",
          "type": "bool"
        }
      ],
      "stateMutability": "nonpayable",
      "type": "function"
    },
    {
      "inputs": [
        {
          "internalType": "address",
          "name": "account",
          "type": "address"
        }
      ],
      "name": "balanceOf",
      "outputs": [
        {
          "internalType": "uint256",
          "name": "",
          "type": "uint256"
        }
      ],
      "stateMutability": "view",
      "type": "function"
    },
    {
      "inputs": [],
      "name": "decimals",
      "outputs": [
        {
          "internalType": "uint8",
          "name": "",
          "type": "uint8"
        }
      ],
      "stateMutability": "view",
      "type": "function"
    },
    {
      "inputs": [
        {
          "internalType": "address",
          "name": "spender",
          "type": "address"
        },
        {
          "internalType": "uint256",
          "name": "subtractedValue",
          "type": "uint256"
        }
      ],
      "name": "decreaseAllowance",
      "outputs": [
        {
          "internalType": "bool",
          "name": "",
          "type": "bool"
        }
      ],
      "stateMutability": "nonpayable",
      "type": "function"
    },
    {
      "inputs": [
        {
          "internalType": "bytes32",
          "name": "requestId",
          "type": "bytes32"
        },
        {
          "internalType": "bytes",
          "name": "response",
          "type": "bytes"
        },
        {
          "internalType": "bytes",
          "name": "err",
          "type": "bytes"
        }
      ],
      "name": "handleOracleFulfillment",
      "outputs": [],
      "stateMutability": "nonpayable",
      "type": "function"
    },
    {
      "inputs": [
        {
          "internalType": "address",
          "name": "spender",
          "type": "address"
        },
        {
          "internalType": "uint256",
          "name": "addedValue",
          "type": "uint256"
        }
      ],
      "name": "increaseAllowance",
      "outputs": [
        {
          "internalType": "bool",
          "name": "",
          "type": "bool"
        }
      ],
      "stateMutability": "nonpayable",
      "type": "function"
    },
    {
      "inputs": [],
      "name": "interval",
      "outputs": [
        {
          "internalType": "uint256",
          "name": "",
          "type": "uint256"
        }
      ],
      "stateMutability": "view",
      "type": "function"
    },
    {
      "inputs": [
        {
          "internalType": "address",
          "name": "",
          "type": "address"
        },
        {
          "internalType": "address",
          "name": "",
          "type": "address"
        },
        {
          "internalType": "address",
          "name": "",
          "type": "address"
        },
        {
          "internalType": "bytes",
          "name": "",
          "type": "bytes"
        }
      ],
      "name": "keyPurchasePrice",
      "outputs": [
        {
          "internalType": "uint256",
          "name": "minKeyPrice",
          "type": "uint256"
        }
      ],
      "stateMutability": "view",
      "type": "function"
    },
    {
      "inputs": [],
      "name": "lastTimeStamp",
      "outputs": [
        {
          "internalType": "uint256",
          "name": "",
          "type": "uint256"
        }
      ],
      "stateMutability": "view",
      "type": "function"
    },
    {
      "inputs": [],
      "name": "name",
      "outputs": [
        {
          "internalType": "string",
          "name": "",
          "type": "string"
        }
      ],
      "stateMutability": "view",
      "type": "function"
    },
    {
      "inputs": [
        {
          "internalType": "uint256",
          "name": "",
          "type": "uint256"
        },
        {
          "internalType": "address",
          "name": "from",
          "type": "address"
        },
        {
          "internalType": "address",
          "name": "",
          "type": "address"
        },
        {
          "internalType": "address",
          "name": "",
          "type": "address"
        },
        {
          "internalType": "bytes",
          "name": "",
          "type": "bytes"
        },
        {
          "internalType": "uint256",
          "name": "",
          "type": "uint256"
        },
        {
          "internalType": "uint256",
          "name": "",
          "type": "uint256"
        }
      ],
      "name": "onKeyPurchase",
      "outputs": [],
      "stateMutability": "view",
      "type": "function"
    },
    {
      "inputs": [],
      "name": "owner",
      "outputs": [
        {
          "internalType": "address",
          "name": "",
          "type": "address"
        }
      ],
      "stateMutability": "view",
      "type": "function"
    },
    {
      "inputs": [
        {
          "internalType": "uint16",
          "name": "_agentID",
          "type": "uint16"
        },
        {
          "internalType": "uint256[]",
          "name": "_values",
          "type": "uint256[]"
        },
        {
          "internalType": "address[]",
          "name": "_recipients",
          "type": "address[]"
        },
        {
          "internalType": "bytes[]",
          "name": "_data",
          "type": "bytes[]"
        }
      ],
      "name": "purchaseSubscription",
      "outputs": [],
      "stateMutability": "payable",
      "type": "function"
    },
    {
      "inputs": [
        {
          "components": [
            {
              "internalType": "uint16",
              "name": "agentID",
              "type": "uint16"
            },
            {
              "internalType": "uint256",
              "name": "subscriptionExpirationDuration",
              "type": "uint256"
            },
            {
              "internalType": "address",
              "name": "tokenAddress",
              "type": "address"
            },
            {
              "internalType": "uint256",
              "name": "keyPrice",
              "type": "uint256"
            },
            {
              "internalType": "uint256",
              "name": "basisPoint",
              "type": "uint256"
            },
            {
              "internalType": "string",
              "name": "lockName",
              "type": "string"
            },
            {
              "internalType": "string",
              "name": "lockSymbol",
              "type": "string"
            },
            {
              "internalType": "string",
              "name": "baseTokenURI",
              "type": "string"
            },
            {
              "internalType": "bool",
              "name": "isOpenForContributions",
              "type": "bool"
            }
          ],
          "internalType": "struct AgentPlace.AgentInitConfig",
          "name": "agentConfig",
          "type": "tuple"
        }
      ],
      "name": "registerAgent",
      "outputs": [],
      "stateMutability": "nonpayable",
      "type": "function"
    },
    {
      "inputs": [
        {
          "internalType": "uint16",
          "name": "_agentID",
          "type": "uint16"
        },
        {
          "internalType": "uint16",
          "name": "_agentVersionID",
          "type": "uint16"
        },
        {
          "internalType": "string",
          "name": "_agentMetadataCID",
          "type": "string"
        }
      ],
      "name": "registerAgentVersion",
      "outputs": [],
      "stateMutability": "nonpayable",
      "type": "function"
    },
    {
      "inputs": [],
      "name": "renounceOwnership",
      "outputs": [],
      "stateMutability": "nonpayable",
      "type": "function"
    },
    {
      "inputs": [
        {
          "internalType": "bytes32",
          "name": "_requestID",
          "type": "bytes32"
        }
      ],
      "name": "rewardsDistribution",
      "outputs": [],
      "stateMutability": "nonpayable",
      "type": "function"
    },
    {
      "inputs": [],
      "name": "s_forwarderAddress",
      "outputs": [
        {
          "internalType": "address",
          "name": "",
          "type": "address"
        }
      ],
      "stateMutability": "view",
      "type": "function"
    },
    {
      "inputs": [],
      "name": "sendRequest",
      "outputs": [],
      "stateMutability": "nonpayable",
      "type": "function"
    },
    {
      "inputs": [
        {
          "internalType": "address",
          "name": "forwarderAddress",
          "type": "address"
        }
      ],
      "name": "setForwarderAddress",
      "outputs": [],
      "stateMutability": "nonpayable",
      "type": "function"
    },
    {
      "inputs": [],
      "name": "symbol",
      "outputs": [
        {
          "internalType": "string",
          "name": "",
          "type": "string"
        }
      ],
      "stateMutability": "view",
      "type": "function"
    },
    {
      "inputs": [
        {
          "internalType": "uint8",
          "name": "",
          "type": "uint8"
        }
      ],
      "name": "topKAgentsSplitRewards",
      "outputs": [
        {
          "internalType": "uint8",
          "name": "",
          "type": "uint8"
        }
      ],
      "stateMutability": "view",
      "type": "function"
    },
    {
      "inputs": [],
      "name": "totalSupply",
      "outputs": [
        {
          "internalType": "uint256",
          "name": "",
          "type": "uint256"
        }
      ],
      "stateMutability": "view",
      "type": "function"
    },
    {
      "inputs": [
        {
          "internalType": "address",
          "name": "to",
          "type": "address"
        },
        {
          "internalType": "uint256",
          "name": "amount",
          "type": "uint256"
        }
      ],
      "name": "transfer",
      "outputs": [
        {
          "internalType": "bool",
          "name": "",
          "type": "bool"
        }
      ],
      "stateMutability": "nonpayable",
      "type": "function"
    },
    {
      "inputs": [
        {
          "internalType": "address",
          "name": "from",
          "type": "address"
        },
        {
          "internalType": "address",
          "name": "to",
          "type": "address"
        },
        {
          "internalType": "uint256",
          "name": "amount",
          "type": "uint256"
        }
      ],
      "name": "transferFrom",
      "outputs": [
        {
          "internalType": "bool",
          "name": "",
          "type": "bool"
        }
      ],
      "stateMutability": "nonpayable",
      "type": "function"
    },
    {
      "inputs": [
        {
          "internalType": "address",
          "name": "newOwner",
          "type": "address"
        }
      ],
      "name": "transferOwnership",
      "outputs": [],
      "stateMutability": "nonpayable",
      "type": "function"
    },
    {
      "inputs": [
        {
          "internalType": "uint16",
          "name": "_agentID",
          "type": "uint16"
        }
      ],
      "name": "withdraw",
      "outputs": [],
      "stateMutability": "nonpayable",
      "type": "function"
    },
    {
      "inputs": [
        {
          "internalType": "address",
          "name": "tokenAddress",
          "type": "address"
        }
      ],
      "name": "withdraw",
      "outputs": [],
      "stateMutability": "nonpayable",
      "type": "function"
    },
    {
      "stateMutability": "payable",
      "type": "receive"
    }
  ],
  "transactionHash": "0xc74611942da6bab94fcd91a71409543e2041e2efeae9f5ed36ffaba812446cac",
  "args": [
    "0x6E2dc0F9DB014aE19888F539E59285D2Ea04244C",
    "0x1FF7e338d5E582138C46044dc238543Ce555C963",
    "0x66756e2d706f6c79676f6e2d6d756d6261692d31000000000000000000000000",
    785,
    "return Functions.encodeString(\"0x0001b5970001b14d\");",
    300000,
    2,
    [
      200,
      100
    ]
  ],
  "numDeployments": 4,
  "solcInputHash": "c27a98fbbb5b2dbf228aa5a63e58e2fc",
  "bytecode": "0x60a0604052603c60068190556200001890600f6200029a565b6007553480156200002857600080fd5b506040516200412c3803806200412c8339810160408190526200004b9162000466565b604080518082018252600b81526a445f41495f4147454e545360a81b602080830191909152825180840190935260048352634441494160e01b908301526001600160a01b038a166080528991889188918891889188918891620000ae3362000234565b6004620000bc8382620005d3565b506005620000cb8282620005d3565b50505080518260ff1614620001265760405162461bcd60e51b815260206004820152601360248201527f6572726f72206d75737420626520657175616c00000000000000000000000000604482015260640160405180910390fd5b60005b8260ff168160ff1610156200019557818160ff16815181106200015057620001506200069f565b60209081029190910181015160ff838116600090815260119093526040909220805460ff191692909116919091179055806200018c81620006b5565b91505062000129565b506013805460ff191660ff841617905560098054600160a01b600160e01b031916600160a01b6001600160401b03881602179055600c620001d78582620005d3565b50504260085550600d805463ffffffff90921663ffffffff199092169190911790555050600e555050601380546001600160a01b0390971661010002610100600160a81b03199097169690961790955550620006d7945050505050565b600080546001600160a01b038381166001600160a01b0319831681178455604051919092169283917f8be0079c531659141344cd1fd0a4f28419497f9722a3daafe3b4186f6b6457e09190a35050565b634e487b7160e01b600052601160045260246000fd5b8082028115828204841417620002b457620002b462000284565b92915050565b6001600160a01b0381168114620002d057600080fd5b50565b634e487b7160e01b600052604160045260246000fd5b604051601f8201601f191681016001600160401b0381118282101715620003145762000314620002d3565b604052919050565b600082601f8301126200032e57600080fd5b81516001600160401b038111156200034a576200034a620002d3565b602062000360601f8301601f19168201620002e9565b82815285828487010111156200037557600080fd5b60005b838110156200039557858101830151828201840152820162000378565b506000928101909101919091529392505050565b805163ffffffff81168114620003be57600080fd5b919050565b805160ff81168114620003be57600080fd5b600082601f830112620003e757600080fd5b815160206001600160401b03821115620004055762000405620002d3565b8160051b62000416828201620002e9565b92835284810182019282810190878511156200043157600080fd5b83870192505b848310156200045b576200044b83620003c3565b8252918301919083019062000437565b979650505050505050565b600080600080600080600080610100898b0312156200048457600080fd5b88516200049181620002ba565b60208a0151909850620004a481620002ba565b60408a015160608b015191985096506001600160401b038082168214620004ca57600080fd5b60808b015191965080821115620004e057600080fd5b620004ee8c838d016200031c565b9550620004fe60a08c01620003a9565b94506200050e60c08c01620003c3565b935060e08b01519150808211156200052557600080fd5b50620005348b828c01620003d5565b9150509295985092959890939650565b600181811c908216806200055957607f821691505b6020821081036200057a57634e487b7160e01b600052602260045260246000fd5b50919050565b601f821115620005ce57600081815260208120601f850160051c81016020861015620005a95750805b601f850160051c820191505b81811015620005ca57828155600101620005b5565b5050505b505050565b81516001600160401b03811115620005ef57620005ef620002d3565b620006078162000600845462000544565b8462000580565b602080601f8311600181146200063f5760008415620006265750858301515b600019600386901b1c1916600185901b178555620005ca565b600085815260208120601f198616915b8281101562000670578886015182559484019460019091019084016200064f565b50858210156200068f5787850151600019600388901b60f8161c191681555b5050505050600190811b01905550565b634e487b7160e01b600052603260045260246000fd5b600060ff821660ff8103620006ce57620006ce62000284565b60010192915050565b608051613a32620006fa6000396000818161081a01526120eb0152613a326000f3fe6080604052600436106101d15760003560e01c80633f3b3b27116100f757806395d89b4111610095578063dd62ed3e11610064578063dd62ed3e1461058e578063e78752b6146105ae578063f2fde38b146105ce578063f9991b01146105ee57600080fd5b806395d89b4114610519578063a457c2d71461052e578063a9059cbb1461054e578063d777cc6d1461056e57600080fd5b806370a08231116100d157806370a082311461049a578063715018a6146104d05780638da5cb5b146104e5578063947a36fb1461050357600080fd5b80633f3b3b271461044457806351cff8d91461045a5780635e895f291461047a57600080fd5b80631bee2f2a1161016f578063313ce5671161013e578063313ce567146103dd57806332b0a6b3146103f157806339509351146104045780633d9728391461042457600080fd5b80631bee2f2a14610350578063221c1fd11461036557806323b872dd146103855780633070fbf8146103a557600080fd5b80630b935de5116101ab5780630b935de51461025a5780630ca761751461029c578063140b3eff146102bc57806318160ddd1461033157600080fd5b806306fdde03146101dd57806307e3290414610208578063095ea7b31461022a57600080fd5b366101d857005b600080fd5b3480156101e957600080fd5b506101f261060e565b6040516101ff9190612c2b565b60405180910390f35b34801561021457600080fd5b50610228610223366004612c3e565b6106a0565b005b34801561023657600080fd5b5061024a610245366004612c6c565b6107f5565b60405190151581526020016101ff565b34801561026657600080fd5b5061028a610275366004612c98565b60116020526000908152604090205460ff1681565b60405160ff90911681526020016101ff565b3480156102a857600080fd5b506102286102b7366004612d78565b61080f565b3480156102c857600080fd5b506103096102d7366004612dfb565b600f60205260009081526040902080546001909101546001600160a01b0391821691811690600160a01b900460ff1683565b604080516001600160a01b0394851681529390921660208401521515908201526060016101ff565b34801561033d57600080fd5b506003545b6040519081526020016101ff565b34801561035c57600080fd5b50610228610893565b34801561037157600080fd5b50610342610380366004612e5e565b6109aa565b34801561039157600080fd5b5061024a6103a0366004612ed9565b610a18565b3480156103b157600080fd5b506009546103c5906001600160a01b031681565b6040516001600160a01b0390911681526020016101ff565b3480156103e957600080fd5b50601261028a565b6102286103ff366004612ff5565b610a3c565b34801561041057600080fd5b5061024a61041f366004612c6c565b610dc6565b34801561043057600080fd5b5061022861043f366004612dfb565b610de8565b34801561045057600080fd5b5061034260085481565b34801561046657600080fd5b506102286104753660046130da565b610fc6565b34801561048657600080fd5b506102286104953660046130f7565b6110d0565b3480156104a657600080fd5b506103426104b53660046130da565b6001600160a01b031660009081526001602052604090205490565b3480156104dc57600080fd5b506102286110ef565b3480156104f157600080fd5b506000546001600160a01b03166103c5565b34801561050f57600080fd5b5061034260075481565b34801561052557600080fd5b506101f2611103565b34801561053a57600080fd5b5061024a610549366004612c6c565b611112565b34801561055a57600080fd5b5061024a610569366004612c6c565b611192565b34801561057a57600080fd5b506102286105893660046130da565b6111a0565b34801561059a57600080fd5b506103426105a936600461318a565b6111ca565b3480156105ba57600080fd5b506102286105c93660046131c3565b6111f5565b3480156105da57600080fd5b506102286105e93660046130da565b6115bc565b3480156105fa57600080fd5b506102286106093660046131fe565b611635565b60606004805461061d90613265565b80601f016020809104026020016040519081016040528092919081815260200182805461064990613265565b80156106965780601f1061066b57610100808354040283529160200191610696565b820191906000526020600020905b81548152906001019060200180831161067957829003601f168201915b5050505050905090565b600081815260126020526040812080546106b990613265565b80601f01602080910402602001604051908101604052809291908181526020018280546106e590613265565b80156107325780601f1061070757610100808354040283529160200191610732565b820191906000526020600020905b81548152906001019060200180831161071557829003601f168201915b5050505050905060006107448261179d565b9050600061075182611a2d565b905060005b81518160ff1610156107ee576000600f6000848460ff168151811061077d5761077d61329f565b60209081029190910181015161ffff16825281810192909252604090810160009081205460ff80871683526011909452919020546001600160a01b039091169250166107d9826107d483662386f26fc100006132cb565b611bc6565b505080806107e6906132e2565b915050610756565b5050505050565b600033610803818585611c87565b60019150505b92915050565b336001600160a01b037f000000000000000000000000000000000000000000000000000000000000000016146108585760405163c6829f8360e01b815260040160405180910390fd5b610863838383611dab565b60405183907f85e1543bf2f84fe80c6badbce3648c8539ad1df4d2b3d822938ca0538be727e690600090a2505050565b6108d46040805160e0810190915280600081526020016000815260200160008152602001606081526020016060815260200160608152602001606081525090565b610971600c80546108e490613265565b80601f016020809104026020016040519081016040528092919081815260200182805461091090613265565b801561095d5780601f106109325761010080835404028352916020019161095d565b820191906000526020600020905b81548152906001019060200180831161094057829003601f168201915b505050505082611e0190919063ffffffff16565b6109a661097d82611e0e565b600954600d54600e54600160a01b9092046001600160401b03169163ffffffff909116906120e6565b5050565b6000336001600160a01b03166310e569736040518163ffffffff1660e01b8152600401602060405180830381865afa1580156109ea573d6000803e3d6000fd5b505050506040513d601f19601f82011682018060405250810190610a0e9190613301565b9695505050505050565b600033610a268582856121b8565b610a3185858561222c565b506001949350505050565b600084516001600160401b03811115610a5757610a57612cbb565b604051908082528060200260200182016040528015610a80578160200160208202803683370190505b509050600085516001600160401b03811115610a9e57610a9e612cbb565b604051908082528060200260200182016040528015610ac7578160200160208202803683370190505b5061ffff88166000908152600f60205260409020600101549091506001600160a01b03811690600160a01b900460ff16610b635761ffff88166000908152600f60205260408120546001600160a01b0316905b8451811015610b605781858281518110610b3657610b3661329f565b6001600160a01b039092166020928302919091019091015280610b588161331a565b915050610b1a565b50505b6000816001600160a01b0316639d76ea586040518163ffffffff1660e01b8152600401602060405180830381865afa158015610ba3573d6000803e3d6000fd5b505050506040513d601f19601f82011682018060405250810190610bc79190613333565b90506000826001600160a01b03166310e569736040518163ffffffff1660e01b8152600401602060405180830381865afa158015610c09573d6000803e3d6000fd5b505050506040513d601f19601f82011682018060405250810190610c2d9190613301565b90506001600160a01b03821615610d39576040516323b872dd60e01b8152336004820152306024820152604481018290526001600160a01b038316906323b872dd906064016020604051808303816000875af1158015610c91573d6000803e3d6000fd5b505050506040513d601f19601f82011682018060405250810190610cb5919061335e565b50604051633381899760e01b81526001600160a01b03841690633381899790610cec908c908c908a908a908e908e906004016133e8565b6000604051808303816000875af1158015610d0b573d6000803e3d6000fd5b505050506040513d6000823e601f3d908101601f19168201604052610d3391908101906134fb565b50610dba565b604051633381899760e01b81526001600160a01b038416906333818997903490610d71908d908d908b908b908f908f906004016133e8565b60006040518083038185885af1158015610d8f573d6000803e3d6000fd5b50505050506040513d6000823e601f3d908101601f19168201604052610db891908101906134fb565b505b50505050505050505050565b600033610803818585610dd983836111ca565b610de3919061358b565b611c87565b61ffff81166000908152600f60209081526040808320815160608101835281546001600160a01b039081168252600190920154918216938101849052600160a01b90910460ff1615159181019190915291813190610e47600a836135b4565b610e529060076132cb565b90506000836001600160a01b0316639d76ea586040518163ffffffff1660e01b8152600401602060405180830381865afa158015610e94573d6000803e3d6000fd5b505050506040513d601f19601f82011682018060405250810190610eb89190613333565b604051636ce5768960e11b81526001600160a01b038083166004830152306024830152604482018690529192509085169063d9caed1290606401600060405180830381600087803b158015610f0c57600080fd5b505af1158015610f20573d6000803e3d6000fd5b505086519150506001600160a01b038216610f4457610f3f81846123d7565b610fbd565b60405163a9059cbb60e01b81526001600160a01b0382811660048301526024820185905283919082169063a9059cbb906044016020604051808303816000875af1158015610f96573d6000803e3d6000fd5b505050506040513d601f19601f82011682018060405250810190610fba919061335e565b50505b50505050505050565b610fce6124f5565b336001600160a01b038216610fe7576109a681476123d7565b6040516370a0823160e01b815230600482015282906001600160a01b0382169063a9059cbb90849083906370a0823190602401602060405180830381865afa158015611037573d6000803e3d6000fd5b505050506040513d601f19601f8201168201806040525081019061105b9190613301565b6040516001600160e01b031960e085901b1681526001600160a01b03909216600483015260248201526044016020604051808303816000875af11580156110a6573d6000803e3d6000fd5b505050506040513d601f19601f820116820180604052508101906110ca919061335e565b50505050565b6001600160a01b03871630146110e557600080fd5b5050505050505050565b6110f76124f5565b611101600061254f565b565b60606005805461061d90613265565b6000338161112082866111ca565b9050838110156111855760405162461bcd60e51b815260206004820152602560248201527f45524332303a2064656372656173656420616c6c6f77616e63652062656c6f77604482015264207a65726f60d81b60648201526084015b60405180910390fd5b610a318286868403611c87565b60003361080381858561222c565b6111a86124f5565b600980546001600160a01b0319166001600160a01b0392909216919091179055565b6001600160a01b03918216600090815260026020908152604080832093909416825291909152205490565b6000600f816112076020850185612dfb565b61ffff1681526020810191909152604001600020546001600160a01b0316146112695760405162461bcd60e51b81526020600482015260146024820152736167656e7420616c72656164792065786973747360601b604482015260640161117c565b60135460009061010090046001600160a01b03166342d92106602084013561129760608601604087016130da565b60608601356000196112ac60a08901896135c8565b6040516001600160e01b031960e089901b1681526112d59695949392919060009060040161360e565b6020604051808303816000875af11580156112f4573d6000803e3d6000fd5b505050506040513d601f19601f820116820180604052508101906113189190613333565b90506001600160a01b03811663d1b8759b61133660a08501856135c8565b61134360c08701876135c8565b61135060e08901896135c8565b6040518763ffffffff1660e01b815260040161137196959493929190613667565b600060405180830381600087803b15801561138b57600080fd5b505af115801561139f573d6000803e3d6000fd5b505050506080820135156114125760405163debe2b0d60e01b815260006004820152608083013560248201526001600160a01b0382169063debe2b0d90604401600060405180830381600087803b1580156113f957600080fd5b505af115801561140d573d6000803e3d6000fd5b505050505b6040516374cac47d60e01b815230600482015260006024820181905260448201819052606482018190526084820181905260a4820181905260c48201526001600160a01b038216906374cac47d9060e401600060405180830381600087803b15801561147d57600080fd5b505af1158015611491573d6000803e3d6000fd5b5050604080516060810182523381526001600160a01b03851660208201529250820190506114c7610120850161010086016136b0565b15159052600f60006114dc6020860186612dfb565b61ffff1681526020808201929092526040908101600020835181546001600160a01b039182166001600160a01b0319909116178255848401516001909201805495909301511515600160a01b026001600160a81b0319909516911617929092179091557f6cc1064765bbeb5e44874153dcc5101239b833ad02097d8d66ecd02957a1a6699061156d90840184612dfb565b3383611581610120870161010088016136b0565b6040805161ffff9590951685526001600160a01b03938416602086015291909216908301521515606082015260800160405180910390a15050565b6115c46124f5565b6001600160a01b0381166116295760405162461bcd60e51b815260206004820152602660248201527f4f776e61626c653a206e6577206f776e657220697320746865207a65726f206160448201526564647265737360d01b606482015260840161117c565b6116328161254f565b50565b61ffff83166000908152600f6020526040902060010154600160a01b900460ff166116ae5760405162461bcd60e51b815260206004820152602360248201527f6167656e74206973206e6f74206f70656e20666f7220636f6e747269627574696044820152626f6e7360e81b606482015260840161117c565b604080516060810182523380825261ffff8087166000908152600f60208181528683206001908101546001600160a01b03908116838901908152888a01868152968c1686529390925292879020955186549082166001600160a01b0319909116178655905194909101805492511515600160a01b026001600160a81b031990931694909116939093171790915590517fb2b72f5c5f3f0055339188c91c7a897460d1ecf93eebc72bd1622d025db0e5ee9161176e918691869186906136cd565b60405180910390a15061ffff908116600090815260106020526040902080549190921661ffff19909116179055565b606060008290506002815110156118045760405162461bcd60e51b815260206004820152602560248201527f536f7572636520737472696e67206e6f742070726f7065726c7920666f726d616044820152643a3a32b21760d91b606482015260840161117c565b806000815181106118175761181761329f565b6020910101516001600160f81b031916600360fc1b14801561188d5750806001815181106118475761184761329f565b6020910101516001600160f81b031916600f60fb1b148061188d5750806001815181106118765761187661329f565b6020910101516001600160f81b031916600b60fb1b145b6118e55760405162461bcd60e51b815260206004820152602360248201527f536f7572636520737472696e67206d75737420737461727420776974682027306044820152623c139760e91b606482015260840161117c565b8051600203611904575050604080516000815260208101909152919050565b600060028083516119159190613703565b61191f91906135b4565b90506000816001600160401b0381111561193b5761193b612cbb565b6040519080825280601f01601f191660200182016040528015611965576020820181803683370190505b50905060025b8351811015611a24576119a78461198383600161358b565b815181106119935761199361329f565b01602001516001600160f81b03191661259f565b6119bc8583815181106119935761199361329f565b6119c7906010613716565b6119d19190613739565b60f81b8260026119e18185613703565b6119eb91906135b4565b815181106119fb576119fb61329f565b60200101906001600160f81b031916908160001a905350611a1d60028261358b565b905061196b565b50949350505050565b606060048251611a3d9190613752565b15611a965760405162461bcd60e51b815260206004820152602360248201527f44617461206c656e677468206d7573742062652061206d756c7469706c65206f60448201526219880d60ea1b606482015260840161117c565b6000805b8351811015611ad5576000611aaf8583612675565b9050611abf61ffff82168461358b565b9250611ace905060048261358b565b9050611a9a565b506000816001600160401b03811115611af057611af0612cbb565b604051908082528060200260200182016040528015611b19578160200160208202803683370190505b5090506000805b8551811015611bbc576000611b358783612675565b90506000611b4d88611b4885600261358b565b612675565b905060005b8261ffff168161ffff161015611ba557818686611b6e8161331a565b975081518110611b8057611b8061329f565b61ffff9092166020928302919091019091015280611b9d81613766565b915050611b52565b505050600481611bb5919061358b565b9050611b20565b5090949350505050565b6001600160a01b038216611c1c5760405162461bcd60e51b815260206004820152601f60248201527f45524332303a206d696e7420746f20746865207a65726f206164647265737300604482015260640161117c565b8060036000828254611c2e919061358b565b90915550506001600160a01b0382166000818152600160209081526040808320805486019055518481527fddf252ad1be2c89b69c2b068fc378daa952ba7f163c4a11628f55a4df523b3ef910160405180910390a35050565b6001600160a01b038316611ce95760405162461bcd60e51b8152602060048201526024808201527f45524332303a20617070726f76652066726f6d20746865207a65726f206164646044820152637265737360e01b606482015260840161117c565b6001600160a01b038216611d4a5760405162461bcd60e51b815260206004820152602260248201527f45524332303a20617070726f766520746f20746865207a65726f206164647265604482015261737360f01b606482015260840161117c565b6001600160a01b0383811660008181526002602090815260408083209487168084529482529182902085905590518481527f8c5be1e5ebec7d5bd14f71427d1e84f3dd0314c0f7b2291e5b200ac8c7c3b925910160405180910390a3505050565b6000838152601260205260409020611dc383826137d5565b50827f9f87a8bdffc6b3f1a785d49b122c82d1202938cbecfdd5b26fc975ff923a892a83604051611df49190612c2b565b60405180910390a2505050565b6109a682600080846126d2565b60606000611e1d610100612750565b9050611e566040518060400160405280600c81526020016b31b7b232a637b1b0ba34b7b760a11b8152508261277190919063ffffffff16565b8251611e74906002811115611e6d57611e6d613894565b829061278a565b6040805180820190915260088152676c616e677561676560c01b6020820152611e9e908290612771565b6040830151611eb5908015611e6d57611e6d613894565b604080518082019091526006815265736f7572636560d01b6020820152611edd908290612771565b6060830151611eed908290612771565b60a08301515115611f81576040805180820190915260048152636172677360e01b6020820152611f1e908290612771565b611f27816127c3565b60005b8360a0015151811015611f7757611f678460a001518281518110611f5057611f5061329f565b60200260200101518361277190919063ffffffff16565b611f708161331a565b9050611f2a565b50611f81816127e7565b6080830151511561204557600083602001516002811115611fa457611fa4613894565b03611fc25760405163a80d31f760e01b815260040160405180910390fd5b60408051808201909152600f81526e39b2b1b932ba39a637b1b0ba34b7b760891b6020820152611ff3908290612771565b61200c83602001516002811115611e6d57611e6d613894565b6040805180820190915260078152667365637265747360c81b6020820152612035908290612771565b6080830151612045908290612805565b60c083015151156120de5760408051808201909152600981526862797465734172677360b81b602082015261207b908290612771565b612084816127c3565b60005b8360c00151518110156120d4576120c48460c0015182815181106120ad576120ad61329f565b60200260200101518361280590919063ffffffff16565b6120cd8161331a565b9050612087565b506120de816127e7565b515192915050565b6000807f00000000000000000000000000000000000000000000000000000000000000006001600160a01b031663461d27628688600188886040518663ffffffff1660e01b815260040161213e9594939291906138aa565b6020604051808303816000875af115801561215d573d6000803e3d6000fd5b505050506040513d601f19601f820116820180604052508101906121819190613301565b60405190915081907f1131472297a800fee664d1d89cfa8f7676ff07189ecc53f80bbb5f4969099db890600090a295945050505050565b60006121c484846111ca565b905060001981146110ca578181101561221f5760405162461bcd60e51b815260206004820152601d60248201527f45524332303a20696e73756666696369656e7420616c6c6f77616e6365000000604482015260640161117c565b6110ca8484848403611c87565b6001600160a01b0383166122905760405162461bcd60e51b815260206004820152602560248201527f45524332303a207472616e736665722066726f6d20746865207a65726f206164604482015264647265737360d81b606482015260840161117c565b6001600160a01b0382166122f25760405162461bcd60e51b815260206004820152602360248201527f45524332303a207472616e7366657220746f20746865207a65726f206164647260448201526265737360e81b606482015260840161117c565b6001600160a01b0383166000908152600160205260409020548181101561236a5760405162461bcd60e51b815260206004820152602660248201527f45524332303a207472616e7366657220616d6f756e7420657863656564732062604482015265616c616e636560d01b606482015260840161117c565b6001600160a01b0380851660008181526001602052604080822086860390559286168082529083902080548601905591517fddf252ad1be2c89b69c2b068fc378daa952ba7f163c4a11628f55a4df523b3ef906123ca9086815260200190565b60405180910390a36110ca565b804710156124275760405162461bcd60e51b815260206004820152601d60248201527f416464726573733a20696e73756666696369656e742062616c616e6365000000604482015260640161117c565b6000826001600160a01b03168260405160006040518083038185875af1925050503d8060008114612474576040519150601f19603f3d011682016040523d82523d6000602084013e612479565b606091505b50509050806124f05760405162461bcd60e51b815260206004820152603a60248201527f416464726573733a20756e61626c6520746f2073656e642076616c75652c207260448201527f6563697069656e74206d61792068617665207265766572746564000000000000606482015260840161117c565b505050565b6000546001600160a01b031633146111015760405162461bcd60e51b815260206004820181905260248201527f4f776e61626c653a2063616c6c6572206973206e6f7420746865206f776e6572604482015260640161117c565b600080546001600160a01b038381166001600160a01b0319831681178455604051919092169283917f8be0079c531659141344cd1fd0a4f28419497f9722a3daafe3b4186f6b6457e09190a35050565b600060f882901c603081108015906125bb575060398160ff1611155b156125d2576125cb6030826138f3565b9392505050565b60618160ff16101580156125ea575060668160ff1611155b15612605576125fa6061826138f3565b6125cb90600a613739565b60418160ff161015801561261d575060468160ff1611155b1561262d576125fa6041826138f3565b60405162461bcd60e51b815260206004820152601b60248201527f496e76616c69642063686172616374657220696e20737472696e670000000000604482015260640161117c565b815160009061268583600261358b565b11156126c95760405162461bcd60e51b8152602060048201526013602482015272496e646578206f7574206f6620626f756e647360681b604482015260640161117c565b50016002015190565b80516000036126f4576040516322ce3edd60e01b815260040160405180910390fd5b8383600281111561270757612707613894565b9081600281111561271a5761271a613894565b9052506040840182801561273057612730613894565b9081801561274057612740613894565b9052506060909301929092525050565b612758612bb0565b80516127649083612812565b5060006020820152919050565b61277e8260038351612889565b81516124f090826129a2565b81516127979060c26129c3565b506109a682826040516020016127af91815260200190565b604051602081830303815290604052612805565b6127ce816004612a2c565b6001816020018181516127e1919061358b565b90525050565b6127f2816007612a2c565b6001816020018181516127e19190613703565b61277e8260028351612889565b604080518082019091526060815260006020820152612832602083613752565b1561285a57612842602083613752565b61284d906020613703565b612857908361358b565b91505b60208084018390526040518085526000815290818401018181101561287e57600080fd5b604052509192915050565b6017816001600160401b0316116128af5782516110ca9060e0600585901b1683176129c3565b60ff816001600160401b0316116128ef5782516128d7906018611fe0600586901b16176129c3565b5082516110ca906001600160401b0383166001612a43565b61ffff816001600160401b031611612930578251612918906019611fe0600586901b16176129c3565b5082516110ca906001600160401b0383166002612a43565b63ffffffff816001600160401b03161161297357825161295b90601a611fe0600586901b16176129c3565b5082516110ca906001600160401b0383166004612a43565b825161298a90601b611fe0600586901b16176129c3565b5082516110ca906001600160401b0383166008612a43565b6040805180820190915260608152600060208201526125cb83838451612ac8565b60408051808201909152606081526000602082015282515160006129e882600161358b565b905084602001518210612a0957612a0985612a048360026132cb565b612b99565b8451602083820101858153508051821115612a22578181525b5093949350505050565b81516124f090601f611fe0600585901b16176129c3565b6040805180820190915260608152600060208201528351516000612a67828561358b565b90508560200151811115612a8457612a8486612a048360026132cb565b60006001612a94866101006139f0565b612a9e9190613703565b90508651828101878319825116178152508051831115612abc578281525b50959695505050505050565b6040805180820190915260608152600060208201528251821115612aeb57600080fd5b8351516000612afa848361358b565b90508560200151811115612b1757612b1786612a048360026132cb565b855180518382016020019160009180851115612b31578482525b505050602086015b60208610612b715780518252612b5060208361358b565b9150612b5d60208261358b565b9050612b6a602087613703565b9550612b39565b51815160001960208890036101000a0190811690199190911617905250849150509392505050565b8151612ba58383612812565b506110ca83826129a2565b6040518060400160405280612bd8604051806040016040528060608152602001600081525090565b8152602001600081525090565b6000815180845260005b81811015612c0b57602081850181015186830182015201612bef565b506000602082860101526020601f19601f83011685010191505092915050565b6020815260006125cb6020830184612be5565b600060208284031215612c5057600080fd5b5035919050565b6001600160a01b038116811461163257600080fd5b60008060408385031215612c7f57600080fd5b8235612c8a81612c57565b946020939093013593505050565b600060208284031215612caa57600080fd5b813560ff811681146125cb57600080fd5b634e487b7160e01b600052604160045260246000fd5b604051601f8201601f191681016001600160401b0381118282101715612cf957612cf9612cbb565b604052919050565b60006001600160401b03831115612d1a57612d1a612cbb565b612d2d601f8401601f1916602001612cd1565b9050828152838383011115612d4157600080fd5b828260208301376000602084830101529392505050565b600082601f830112612d6957600080fd5b6125cb83833560208501612d01565b600080600060608486031215612d8d57600080fd5b8335925060208401356001600160401b0380821115612dab57600080fd5b612db787838801612d58565b93506040860135915080821115612dcd57600080fd5b50612dda86828701612d58565b9150509250925092565b803561ffff81168114612df657600080fd5b919050565b600060208284031215612e0d57600080fd5b6125cb82612de4565b60008083601f840112612e2857600080fd5b5081356001600160401b03811115612e3f57600080fd5b602083019150836020828501011115612e5757600080fd5b9250929050565b600080600080600060808688031215612e7657600080fd5b8535612e8181612c57565b94506020860135612e9181612c57565b93506040860135612ea181612c57565b925060608601356001600160401b03811115612ebc57600080fd5b612ec888828901612e16565b969995985093965092949392505050565b600080600060608486031215612eee57600080fd5b8335612ef981612c57565b92506020840135612f0981612c57565b929592945050506040919091013590565b60006001600160401b03821115612f3357612f33612cbb565b5060051b60200190565b600082601f830112612f4e57600080fd5b81356020612f63612f5e83612f1a565b612cd1565b82815260059290921b84018101918181019086841115612f8257600080fd5b8286015b84811015612fa6578035612f9981612c57565b8352918301918301612f86565b509695505050505050565b60008083601f840112612fc357600080fd5b5081356001600160401b03811115612fda57600080fd5b6020830191508360208260051b8501011115612e5757600080fd5b60008060008060006080868803121561300d57600080fd5b61301686612de4565b94506020808701356001600160401b038082111561303357600080fd5b818901915089601f83011261304757600080fd5b8135613055612f5e82612f1a565b81815260059190911b8301840190848101908c83111561307457600080fd5b938501935b8285101561309257843582529385019390850190613079565b9850505060408901359250808311156130aa57600080fd5b6130b68a848b01612f3d565b955060608901359250808311156130cc57600080fd5b5050612ec888828901612fb1565b6000602082840312156130ec57600080fd5b81356125cb81612c57565b60008060008060008060008060e0898b03121561311357600080fd5b88359750602089013561312581612c57565b9650604089013561313581612c57565b9550606089013561314581612c57565b945060808901356001600160401b0381111561316057600080fd5b61316c8b828c01612e16565b999c989b5096999598969760a08701359660c0013595509350505050565b6000806040838503121561319d57600080fd5b82356131a881612c57565b915060208301356131b881612c57565b809150509250929050565b6000602082840312156131d557600080fd5b81356001600160401b038111156131eb57600080fd5b820161012081850312156125cb57600080fd5b60008060006060848603121561321357600080fd5b61321c84612de4565b925061322a60208501612de4565b915060408401356001600160401b0381111561324557600080fd5b8401601f8101861361325657600080fd5b612dda86823560208401612d01565b600181811c9082168061327957607f821691505b60208210810361329957634e487b7160e01b600052602260045260246000fd5b50919050565b634e487b7160e01b600052603260045260246000fd5b634e487b7160e01b600052601160045260246000fd5b8082028115828204841417610809576108096132b5565b600060ff821660ff81036132f8576132f86132b5565b60010192915050565b60006020828403121561331357600080fd5b5051919050565b60006001820161332c5761332c6132b5565b5060010190565b60006020828403121561334557600080fd5b81516125cb81612c57565b801515811461163257600080fd5b60006020828403121561337057600080fd5b81516125cb81613350565b600081518084526020808501945080840160005b838110156133b45781516001600160a01b03168752958201959082019060010161338f565b509495945050505050565b81835281816020850137506000828201602090810191909152601f909101601f19169091010190565b60a0808252875190820181905260009060209060c0840190828b01845b8281101561342157815184529284019290840190600101613405565b50505083810382850152613435818a61337b565b90508381036040850152613449818961337b565b9050838103606085015261345d818861337b565b84810360808601528581529050818101600586901b820183018760005b888110156134e957848303601f190184528135368b9003601e190181126134a057600080fd5b8a0186810190356001600160401b038111156134bb57600080fd5b8036038213156134ca57600080fd5b6134d58582846133bf565b95880195945050509085019060010161347a565b50909c9b505050505050505050505050565b6000602080838503121561350e57600080fd5b82516001600160401b0381111561352457600080fd5b8301601f8101851361353557600080fd5b8051613543612f5e82612f1a565b81815260059190911b8201830190838101908783111561356257600080fd5b928401925b8284101561358057835182529284019290840190613567565b979650505050505050565b80820180821115610809576108096132b5565b634e487b7160e01b600052601260045260246000fd5b6000826135c3576135c361359e565b500490565b6000808335601e198436030181126135df57600080fd5b8301803591506001600160401b038211156135f957600080fd5b602001915036819003821315612e5757600080fd5b87815260018060a01b038716602082015285604082015284606082015260c06080820152600061364260c0830185876133bf565b90506bffffffffffffffffffffffff60a01b831660a083015298975050505050505050565b60608152600061367b60608301888a6133bf565b828103602084015261368e8187896133bf565b905082810360408401526136a38185876133bf565b9998505050505050505050565b6000602082840312156136c257600080fd5b81356125cb81613350565b61ffff8581168252841660208201526001600160a01b0383166040820152608060608201819052600090610a0e90830184612be5565b81810381811115610809576108096132b5565b60ff8181168382160290811690818114613732576137326132b5565b5092915050565b60ff8181168382160190811115610809576108096132b5565b6000826137615761376161359e565b500690565b600061ffff80831681810361377d5761377d6132b5565b6001019392505050565b601f8211156124f057600081815260208120601f850160051c810160208610156137ae5750805b601f850160051c820191505b818110156137cd578281556001016137ba565b505050505050565b81516001600160401b038111156137ee576137ee612cbb565b613802816137fc8454613265565b84613787565b602080601f831160018114613837576000841561381f5750858301515b600019600386901b1c1916600185901b1785556137cd565b600085815260208120601f198616915b8281101561386657888601518255948401946001909101908401613847565b50858210156138845787850151600019600388901b60f8161c191681555b5050505050600190811b01905550565b634e487b7160e01b600052602160045260246000fd5b6001600160401b038616815260a0602082015260006138cc60a0830187612be5565b61ffff9590951660408301525063ffffffff92909216606083015260809091015292915050565b60ff8281168282160390811115610809576108096132b5565b600181815b8085111561394757816000190482111561392d5761392d6132b5565b8085161561393a57918102915b93841c9390800290613911565b509250929050565b60008261395e57506001610809565b8161396b57506000610809565b8160018114613981576002811461398b576139a7565b6001915050610809565b60ff84111561399c5761399c6132b5565b50506001821b610809565b5060208310610133831016604e8410600b84101617156139ca575081810a610809565b6139d4838361390c565b80600019048211156139e8576139e86132b5565b029392505050565b60006125cb838361394f56fea2646970667358221220b8695148951b310c35602851afe0f24136c7d2fc16b9db6696f430b1c84122ff64736f6c63430008140033",
  "devdoc": {
    "events": {
      "Approval(address,address,uint256)": {
        "details": "Emitted when the allowance of a `spender` for an `owner` is set by a call to {approve}. `value` is the new allowance."
      },
      "Transfer(address,address,uint256)": {
        "details": "Emitted when `value` tokens are moved from one account (`from`) to another (`to`). Note that `value` may be zero."
      }
    },
    "kind": "dev",
    "methods": {
      "allowance(address,address)": {
        "details": "See {IERC20-allowance}."
      },
      "approve(address,uint256)": {
        "details": "See {IERC20-approve}. NOTE: If `amount` is the maximum `uint256`, the allowance is not updated on `transferFrom`. This is semantically equivalent to an infinite approval. Requirements: - `spender` cannot be the zero address."
      },
      "balanceOf(address)": {
        "details": "See {IERC20-balanceOf}."
      },
      "constructor": {
        "params": {
          "_donID": "Chainlink's contract chainID => donID ",
          "_gasLimit": "The gas limit for the Chainlink Functions request callback",
          "_oracle": "The address of the Chainlink Function oracle",
          "_source": "The source code for the Chainlink Functions request",
          "_subscriptionId": "The subscription ID for Chainlink Functions",
          "_unlockContract": "The address of the Chainlink oracle Automation Forwarder"
        }
      },
      "decimals()": {
        "details": "Returns the number of decimals used to get its user representation. For example, if `decimals` equals `2`, a balance of `505` tokens should be displayed to a user as `5.05` (`505 / 10 ** 2`). Tokens usually opt for a value of 18, imitating the relationship between Ether and Wei. This is the default value returned by this function, unless it's overridden. NOTE: This information is only used for _display_ purposes: it in no way affects any of the arithmetic of the contract, including {IERC20-balanceOf} and {IERC20-transfer}."
      },
      "decreaseAllowance(address,uint256)": {
        "details": "Atomically decreases the allowance granted to `spender` by the caller. This is an alternative to {approve} that can be used as a mitigation for problems described in {IERC20-approve}. Emits an {Approval} event indicating the updated allowance. Requirements: - `spender` cannot be the zero address. - `spender` must have allowance for the caller of at least `subtractedValue`."
      },
      "handleOracleFulfillment(bytes32,bytes,bytes)": {
        "details": "Either response or error parameter will be set, but never both.",
        "params": {
          "err": "Aggregated error either from the request's source code or from the execution pipeline.",
          "requestId": "The requestId returned by FunctionsClient.sendRequest().",
          "response": "Aggregated response from the request's source code."
        }
      },
      "increaseAllowance(address,uint256)": {
        "details": "Atomically increases the allowance granted to `spender` by the caller. This is an alternative to {approve} that can be used as a mitigation for problems described in {IERC20-approve}. Emits an {Approval} event indicating the updated allowance. Requirements: - `spender` cannot be the zero address."
      },
      "name()": {
        "details": "Returns the name of the token."
      },
      "owner()": {
        "details": "Returns the address of the current owner."
      },
      "purchaseSubscription(uint16,uint256[],address[],bytes[])": {
        "details": "PurchaseSubscription function for an agentIDSetting _value to keyPrice exactly doubles as a security feature. That way if the lock owner increases the price while my transaction is pending I can't be charged more than I expected (only applicable to ERC-20 when more than keyPrice is approved for spending).",
        "params": {
          "_agentID": "to subscribe",
          "_data": "arbitrary data populated by the front-end which initiated the sale",
          "_recipients": "array of addresses of the recipients of the purchased key",
          "_values": "array of tokens amount to pay for this purchase >= the current keyPrice - any applicable discount (_values is ignored when using ETH)"
        }
      },
      "renounceOwnership()": {
        "details": "Leaves the contract without owner. It will not be possible to call `onlyOwner` functions. Can only be called by the current owner. NOTE: Renouncing ownership will leave the contract without an owner, thereby disabling any functionality that is only available to the owner."
      },
      "setForwarderAddress(address)": {
        "details": "Only callable by the owner",
        "params": {
          "forwarderAddress": "the address to set"
        }
      },
      "symbol()": {
        "details": "Returns the symbol of the token, usually a shorter version of the name."
      },
      "totalSupply()": {
        "details": "See {IERC20-totalSupply}."
      },
      "transfer(address,uint256)": {
        "details": "See {IERC20-transfer}. Requirements: - `to` cannot be the zero address. - the caller must have a balance of at least `amount`."
      },
      "transferFrom(address,address,uint256)": {
        "details": "See {IERC20-transferFrom}. Emits an {Approval} event indicating the updated allowance. This is not required by the EIP. See the note at the beginning of {ERC20}. NOTE: Does not update the allowance if the current allowance is the maximum `uint256`. Requirements: - `from` and `to` cannot be the zero address. - `from` must have a balance of at least `amount`. - the caller must have allowance for ``from``'s tokens of at least `amount`."
      },
      "transferOwnership(address)": {
        "details": "Transfers ownership of the contract to a new account (`newOwner`). Can only be called by the current owner."
      },
      "withdraw(uint16)": {
        "details": "withdraw function for an agentID",
        "params": {
          "_agentID": "to withdraw money from the lock contract"
        }
      }
    },
    "title": "AgentPlace",
    "version": 1
  },
  "userdoc": {
    "kind": "user",
    "methods": {
      "constructor": {
        "notice": "Initializes the contract"
      },
      "handleOracleFulfillment(bytes32,bytes,bytes)": {
        "notice": "Chainlink Functions response handler called by the Functions Router during fullilment from the designated transmitter node in an OCR round."
      },
      "purchaseSubscription(uint16,uint256[],address[],bytes[])": {
        "notice": "when called for an existing and non-expired key, the `_keyManager` param will be ignored "
      },
      "sendRequest()": {
        "notice": "Sends an HTTP request for character information"
      },
      "setForwarderAddress(address)": {
        "notice": "Set the address that `performUpkeep` is called from"
      },
      "withdraw(uint16)": {
        "notice": "We give back to the agent creator 70% of the total income from that agent the platform keeps 30% of that amount"
      }
    },
    "version": 1
  },
  "storageLayout": {
    "storage": [
      {
        "astId": 2508,
        "contract": "contracts/AgentPlace.sol:AgentPlace",
        "label": "_owner",
        "offset": 0,
        "slot": "0",
        "type": "t_address"
      },
      {
        "astId": 2629,
        "contract": "contracts/AgentPlace.sol:AgentPlace",
        "label": "_balances",
        "offset": 0,
        "slot": "1",
        "type": "t_mapping(t_address,t_uint256)"
      },
      {
        "astId": 2635,
        "contract": "contracts/AgentPlace.sol:AgentPlace",
        "label": "_allowances",
        "offset": 0,
        "slot": "2",
        "type": "t_mapping(t_address,t_mapping(t_address,t_uint256))"
      },
      {
        "astId": 2637,
        "contract": "contracts/AgentPlace.sol:AgentPlace",
        "label": "_totalSupply",
        "offset": 0,
        "slot": "3",
        "type": "t_uint256"
      },
      {
        "astId": 2639,
        "contract": "contracts/AgentPlace.sol:AgentPlace",
        "label": "_name",
        "offset": 0,
        "slot": "4",
        "type": "t_string_storage"
      },
      {
        "astId": 2641,
        "contract": "contracts/AgentPlace.sol:AgentPlace",
        "label": "_symbol",
        "offset": 0,
        "slot": "5",
        "type": "t_string_storage"
      },
      {
        "astId": 6480,
        "contract": "contracts/AgentPlace.sol:AgentPlace",
        "label": "MIN",
        "offset": 0,
        "slot": "6",
        "type": "t_uint256"
      },
      {
        "astId": 6485,
        "contract": "contracts/AgentPlace.sol:AgentPlace",
        "label": "interval",
        "offset": 0,
        "slot": "7",
        "type": "t_uint256"
      },
      {
        "astId": 6487,
        "contract": "contracts/AgentPlace.sol:AgentPlace",
        "label": "lastTimeStamp",
        "offset": 0,
        "slot": "8",
        "type": "t_uint256"
      },
      {
        "astId": 6489,
        "contract": "contracts/AgentPlace.sol:AgentPlace",
        "label": "s_forwarderAddress",
        "offset": 0,
        "slot": "9",
        "type": "t_address"
      },
      {
        "astId": 6491,
        "contract": "contracts/AgentPlace.sol:AgentPlace",
        "label": "subscriptionId",
        "offset": 20,
        "slot": "9",
        "type": "t_uint64"
      },
      {
        "astId": 6493,
        "contract": "contracts/AgentPlace.sol:AgentPlace",
        "label": "agentPlaceTreasury",
        "offset": 0,
        "slot": "10",
        "type": "t_uint256"
      },
      {
        "astId": 6495,
        "contract": "contracts/AgentPlace.sol:AgentPlace",
        "label": "oracle",
        "offset": 0,
        "slot": "11",
        "type": "t_address"
      },
      {
        "astId": 6497,
        "contract": "contracts/AgentPlace.sol:AgentPlace",
        "label": "source",
        "offset": 0,
        "slot": "12",
        "type": "t_string_storage"
      },
      {
        "astId": 6499,
        "contract": "contracts/AgentPlace.sol:AgentPlace",
        "label": "gasLimit",
        "offset": 0,
        "slot": "13",
        "type": "t_uint32"
      },
      {
        "astId": 6501,
        "contract": "contracts/AgentPlace.sol:AgentPlace",
        "label": "donID",
        "offset": 0,
        "slot": "14",
        "type": "t_bytes32"
      },
      {
        "astId": 6513,
        "contract": "contracts/AgentPlace.sol:AgentPlace",
        "label": "agents",
        "offset": 0,
        "slot": "15",
        "type": "t_mapping(t_uint16,t_struct(AgentStruct)6508_storage)"
      },
      {
        "astId": 6517,
        "contract": "contracts/AgentPlace.sol:AgentPlace",
        "label": "agentVersions",
        "offset": 0,
        "slot": "16",
        "type": "t_mapping(t_uint16,t_uint16)"
      },
      {
        "astId": 6521,
        "contract": "contracts/AgentPlace.sol:AgentPlace",
        "label": "topKAgentsSplitRewards",
        "offset": 0,
        "slot": "17",
        "type": "t_mapping(t_uint8,t_uint8)"
      },
      {
        "astId": 6525,
        "contract": "contracts/AgentPlace.sol:AgentPlace",
        "label": "round_winners",
        "offset": 0,
        "slot": "18",
        "type": "t_mapping(t_bytes32,t_bytes_storage)"
      },
      {
        "astId": 6527,
        "contract": "contracts/AgentPlace.sol:AgentPlace",
        "label": "topK",
        "offset": 0,
        "slot": "19",
        "type": "t_uint8"
      },
      {
        "astId": 5848,
        "contract": "contracts/AgentPlace.sol:AgentPlace",
        "label": "unlockContract",
        "offset": 1,
        "slot": "19",
        "type": "t_contract(IUnlockV12)5830"
      }
    ],
    "types": {
      "t_address": {
        "encoding": "inplace",
        "label": "address",
        "numberOfBytes": "20"
      },
      "t_bool": {
        "encoding": "inplace",
        "label": "bool",
        "numberOfBytes": "1"
      },
      "t_bytes32": {
        "encoding": "inplace",
        "label": "bytes32",
        "numberOfBytes": "32"
      },
      "t_bytes_storage": {
        "encoding": "bytes",
        "label": "bytes",
        "numberOfBytes": "32"
      },
      "t_contract(IUnlockV12)5830": {
        "encoding": "inplace",
        "label": "contract IUnlockV12",
        "numberOfBytes": "20"
      },
      "t_mapping(t_address,t_mapping(t_address,t_uint256))": {
        "encoding": "mapping",
        "key": "t_address",
        "label": "mapping(address => mapping(address => uint256))",
        "numberOfBytes": "32",
        "value": "t_mapping(t_address,t_uint256)"
      },
      "t_mapping(t_address,t_uint256)": {
        "encoding": "mapping",
        "key": "t_address",
        "label": "mapping(address => uint256)",
        "numberOfBytes": "32",
        "value": "t_uint256"
      },
      "t_mapping(t_bytes32,t_bytes_storage)": {
        "encoding": "mapping",
        "key": "t_bytes32",
        "label": "mapping(bytes32 => bytes)",
        "numberOfBytes": "32",
        "value": "t_bytes_storage"
      },
      "t_mapping(t_uint16,t_struct(AgentStruct)6508_storage)": {
        "encoding": "mapping",
        "key": "t_uint16",
        "label": "mapping(uint16 => struct ChainlinkConsumer.AgentStruct)",
        "numberOfBytes": "32",
        "value": "t_struct(AgentStruct)6508_storage"
      },
      "t_mapping(t_uint16,t_uint16)": {
        "encoding": "mapping",
        "key": "t_uint16",
        "label": "mapping(uint16 => uint16)",
        "numberOfBytes": "32",
        "value": "t_uint16"
      },
      "t_mapping(t_uint8,t_uint8)": {
        "encoding": "mapping",
        "key": "t_uint8",
        "label": "mapping(uint8 => uint8)",
        "numberOfBytes": "32",
        "value": "t_uint8"
      },
      "t_string_storage": {
        "encoding": "bytes",
        "label": "string",
        "numberOfBytes": "32"
      },
      "t_struct(AgentStruct)6508_storage": {
        "encoding": "inplace",
        "label": "struct ChainlinkConsumer.AgentStruct",
        "members": [
          {
            "astId": 6503,
            "contract": "contracts/AgentPlace.sol:AgentPlace",
            "label": "creator",
            "offset": 0,
            "slot": "0",
            "type": "t_address"
          },
          {
            "astId": 6505,
            "contract": "contracts/AgentPlace.sol:AgentPlace",
            "label": "lockAddress",
            "offset": 0,
            "slot": "1",
            "type": "t_address"
          },
          {
            "astId": 6507,
            "contract": "contracts/AgentPlace.sol:AgentPlace",
            "label": "isOpenForContributions",
            "offset": 20,
            "slot": "1",
            "type": "t_bool"
          }
        ],
        "numberOfBytes": "64"
      },
      "t_uint16": {
        "encoding": "inplace",
        "label": "uint16",
        "numberOfBytes": "2"
      },
      "t_uint256": {
        "encoding": "inplace",
        "label": "uint256",
        "numberOfBytes": "32"
      },
      "t_uint32": {
        "encoding": "inplace",
        "label": "uint32",
        "numberOfBytes": "4"
      },
      "t_uint64": {
        "encoding": "inplace",
        "label": "uint64",
        "numberOfBytes": "8"
      },
      "t_uint8": {
        "encoding": "inplace",
        "label": "uint8",
        "numberOfBytes": "1"
      }
    }
  }
}