{
  "address": "0xBd1767206D13601f162cd18eA006B798775f798b",
  "abi": [
    {
      "inputs": [
        {
          "internalType": "address",
          "name": "_oracle",
          "type": "address"
        },
        {
          "internalType": "contract IUnlockV12",
          "name": "_unlockContract",
          "type": "address"
        },
        {
          "internalType": "bytes32",
          "name": "_donID",
          "type": "bytes32"
        },
        {
          "internalType": "uint64",
          "name": "_subscriptionId",
          "type": "uint64"
        }
      ],
      "stateMutability": "nonpayable",
      "type": "constructor"
    },
    {
      "inputs": [],
      "name": "EmptySource",
      "type": "error"
    },
    {
      "inputs": [],
      "name": "NoInlineSecrets",
      "type": "error"
    },
    {
      "inputs": [],
      "name": "OnlyRouterCanFulfill",
      "type": "error"
    },
    {
      "anonymous": false,
      "inputs": [
        {
          "indexed": true,
          "internalType": "address",
          "name": "owner",
          "type": "address"
        },
        {
          "indexed": true,
          "internalType": "address",
          "name": "spender",
          "type": "address"
        },
        {
          "indexed": false,
          "internalType": "uint256",
          "name": "value",
          "type": "uint256"
        }
      ],
      "name": "Approval",
      "type": "event"
    },
    {
      "anonymous": false,
      "inputs": [
        {
          "indexed": true,
          "internalType": "address",
          "name": "previousOwner",
          "type": "address"
        },
        {
          "indexed": true,
          "internalType": "address",
          "name": "newOwner",
          "type": "address"
        }
      ],
      "name": "OwnershipTransferred",
      "type": "event"
    },
    {
      "anonymous": false,
      "inputs": [
        {
          "indexed": true,
          "internalType": "bytes32",
          "name": "id",
          "type": "bytes32"
        }
      ],
      "name": "RequestFulfilled",
      "type": "event"
    },
    {
      "anonymous": false,
      "inputs": [
        {
          "indexed": true,
          "internalType": "bytes32",
          "name": "id",
          "type": "bytes32"
        }
      ],
      "name": "RequestSent",
      "type": "event"
    },
    {
      "anonymous": false,
      "inputs": [
        {
          "indexed": false,
          "internalType": "bytes32",
          "name": "requestId",
          "type": "bytes32"
        },
        {
          "indexed": false,
          "internalType": "bytes32",
          "name": "sourceID",
          "type": "bytes32"
        },
        {
          "indexed": false,
          "internalType": "uint32[]",
          "name": "topkAgents",
          "type": "uint32[]"
        },
        {
          "indexed": false,
          "internalType": "address[]",
          "name": "topkUsers",
          "type": "address[]"
        }
      ],
      "name": "RoundRewardsDistributed",
      "type": "event"
    },
    {
      "anonymous": false,
      "inputs": [
        {
          "indexed": false,
          "internalType": "bytes32",
          "name": "requestId",
          "type": "bytes32"
        },
        {
          "indexed": false,
          "internalType": "bytes32",
          "name": "sourceID",
          "type": "bytes32"
        },
        {
          "indexed": false,
          "internalType": "bytes",
          "name": "response",
          "type": "bytes"
        }
      ],
      "name": "RoundWinners",
      "type": "event"
    },
    {
      "anonymous": false,
      "inputs": [
        {
          "indexed": true,
          "internalType": "address",
          "name": "from",
          "type": "address"
        },
        {
          "indexed": true,
          "internalType": "address",
          "name": "to",
          "type": "address"
        },
        {
          "indexed": false,
          "internalType": "uint256",
          "name": "value",
          "type": "uint256"
        }
      ],
      "name": "Transfer",
      "type": "event"
    },
    {
      "anonymous": false,
      "inputs": [
        {
          "indexed": false,
          "internalType": "string",
          "name": "agentName",
          "type": "string"
        },
        {
          "indexed": false,
          "internalType": "uint32",
          "name": "agentID",
          "type": "uint32"
        },
        {
          "indexed": false,
          "internalType": "address",
          "name": "creator",
          "type": "address"
        },
        {
          "indexed": false,
          "internalType": "address",
          "name": "unlockSubscriptionContract",
          "type": "address"
        },
        {
          "indexed": false,
          "internalType": "uint256",
          "name": "keyPrice",
          "type": "uint256"
        },
        {
          "indexed": false,
          "internalType": "uint256",
          "name": "basisPoint",
          "type": "uint256"
        },
        {
          "indexed": false,
          "internalType": "string",
          "name": "rewardCategory",
          "type": "string"
        },
        {
          "indexed": false,
          "internalType": "string",
          "name": "actualCategory",
          "type": "string"
        },
        {
          "indexed": false,
          "internalType": "bool",
          "name": "isOpenForContributions",
          "type": "bool"
        }
      ],
      "name": "agentRegistered",
      "type": "event"
    },
    {
      "anonymous": false,
      "inputs": [
        {
          "indexed": false,
          "internalType": "uint32",
          "name": "agentID",
          "type": "uint32"
        },
        {
          "indexed": false,
          "internalType": "uint256",
          "name": "tokenId",
          "type": "uint256"
        },
        {
          "indexed": false,
          "internalType": "string",
          "name": "threadID",
          "type": "string"
        },
        {
          "indexed": false,
          "internalType": "address",
          "name": "agentCreator",
          "type": "address"
        },
        {
          "indexed": false,
          "internalType": "address",
          "name": "subscriber",
          "type": "address"
        }
      ],
      "name": "agentSubscriptionPurchased",
      "type": "event"
    },
    {
      "anonymous": false,
      "inputs": [
        {
          "indexed": false,
          "internalType": "uint32",
          "name": "agentID",
          "type": "uint32"
        },
        {
          "indexed": false,
          "internalType": "string",
          "name": "agentVersionName",
          "type": "string"
        },
        {
          "indexed": false,
          "internalType": "uint32",
          "name": "agentVersionID",
          "type": "uint32"
        },
        {
          "indexed": false,
          "internalType": "address",
          "name": "creator",
          "type": "address"
        },
        {
          "indexed": false,
          "internalType": "string",
          "name": "agentMetadataCID",
          "type": "string"
        }
      ],
      "name": "agentVersionRegistered",
      "type": "event"
    },
    {
      "anonymous": false,
      "inputs": [
        {
          "indexed": false,
          "internalType": "string",
          "name": "sourceName",
          "type": "string"
        },
        {
          "indexed": false,
          "internalType": "string",
          "name": "sourceCode",
          "type": "string"
        },
        {
          "indexed": false,
          "internalType": "bytes32",
          "name": "sourceID",
          "type": "bytes32"
        },
        {
          "indexed": false,
          "internalType": "uint256[]",
          "name": "rewardDistributions",
          "type": "uint256[]"
        }
      ],
      "name": "rewardMechanismRegistered",
      "type": "event"
    },
    {
      "inputs": [
        {
          "internalType": "string",
          "name": "_sourceName",
          "type": "string"
        },
        {
          "internalType": "string",
          "name": "_sourceCode",
          "type": "string"
        },
        {
          "internalType": "address",
          "name": "_functionForwader",
          "type": "address"
        },
        {
          "internalType": "uint256[]",
          "name": "_rewardDistributions",
          "type": "uint256[]"
        }
      ],
      "name": "addRewardMechanism",
      "outputs": [],
      "stateMutability": "nonpayable",
      "type": "function"
    },
    {
      "inputs": [
        {
          "internalType": "uint32",
          "name": "",
          "type": "uint32"
        }
      ],
      "name": "agentVersions",
      "outputs": [
        {
          "internalType": "uint32",
          "name": "",
          "type": "uint32"
        }
      ],
      "stateMutability": "view",
      "type": "function"
    },
    {
      "inputs": [
        {
          "internalType": "uint32",
          "name": "",
          "type": "uint32"
        }
      ],
      "name": "agents",
      "outputs": [
        {
          "internalType": "address",
          "name": "creator",
          "type": "address"
        },
        {
          "internalType": "address",
          "name": "lockAddress",
          "type": "address"
        },
        {
          "internalType": "bool",
          "name": "isOpenForContributions",
          "type": "bool"
        }
      ],
      "stateMutability": "view",
      "type": "function"
    },
    {
      "inputs": [
        {
          "internalType": "address",
          "name": "owner",
          "type": "address"
        },
        {
          "internalType": "address",
          "name": "spender",
          "type": "address"
        }
      ],
      "name": "allowance",
      "outputs": [
        {
          "internalType": "uint256",
          "name": "",
          "type": "uint256"
        }
      ],
      "stateMutability": "view",
      "type": "function"
    },
    {
      "inputs": [
        {
          "internalType": "address",
          "name": "spender",
          "type": "address"
        },
        {
          "internalType": "uint256",
          "name": "amount",
          "type": "uint256"
        }
      ],
      "name": "approve",
      "outputs": [
        {
          "internalType": "bool",
          "name": "",
          "type": "bool"
        }
      ],
      "stateMutability": "nonpayable",
      "type": "function"
    },
    {
      "inputs": [
        {
          "internalType": "address",
          "name": "account",
          "type": "address"
        }
      ],
      "name": "balanceOf",
      "outputs": [
        {
          "internalType": "uint256",
          "name": "",
          "type": "uint256"
        }
      ],
      "stateMutability": "view",
      "type": "function"
    },
    {
      "inputs": [
        {
          "components": [
            {
              "internalType": "uint256",
              "name": "index",
              "type": "uint256"
            },
            {
              "internalType": "uint256",
              "name": "timestamp",
              "type": "uint256"
            },
            {
              "internalType": "bytes32",
              "name": "txHash",
              "type": "bytes32"
            },
            {
              "internalType": "uint256",
              "name": "blockNumber",
              "type": "uint256"
            },
            {
              "internalType": "bytes32",
              "name": "blockHash",
              "type": "bytes32"
            },
            {
              "internalType": "address",
              "name": "source",
              "type": "address"
            },
            {
              "internalType": "bytes32[]",
              "name": "topics",
              "type": "bytes32[]"
            },
            {
              "internalType": "bytes",
              "name": "data",
              "type": "bytes"
            }
          ],
          "internalType": "struct ILogAutomation.Log",
          "name": "log",
          "type": "tuple"
        },
        {
          "internalType": "bytes",
          "name": "",
          "type": "bytes"
        }
      ],
      "name": "checkLog",
      "outputs": [
        {
          "internalType": "bool",
          "name": "upkeepNeeded",
          "type": "bool"
        },
        {
          "internalType": "bytes",
          "name": "performData",
          "type": "bytes"
        }
      ],
      "stateMutability": "pure",
      "type": "function"
    },
    {
      "inputs": [],
      "name": "decimals",
      "outputs": [
        {
          "internalType": "uint8",
          "name": "",
          "type": "uint8"
        }
      ],
      "stateMutability": "view",
      "type": "function"
    },
    {
      "inputs": [
        {
          "internalType": "address",
          "name": "spender",
          "type": "address"
        },
        {
          "internalType": "uint256",
          "name": "subtractedValue",
          "type": "uint256"
        }
      ],
      "name": "decreaseAllowance",
      "outputs": [
        {
          "internalType": "bool",
          "name": "",
          "type": "bool"
        }
      ],
      "stateMutability": "nonpayable",
      "type": "function"
    },
    {
      "inputs": [
        {
          "internalType": "uint256",
          "name": "_value",
          "type": "uint256"
        },
        {
          "internalType": "uint256",
          "name": "_tokenId",
          "type": "uint256"
        },
        {
          "internalType": "uint32",
          "name": "_agentID",
          "type": "uint32"
        }
      ],
      "name": "extendSubscription",
      "outputs": [],
      "stateMutability": "payable",
      "type": "function"
    },
    {
      "inputs": [
        {
          "internalType": "bytes32",
          "name": "",
          "type": "bytes32"
        }
      ],
      "name": "functionData",
      "outputs": [
        {
          "internalType": "address",
          "name": "functionForwarder",
          "type": "address"
        },
        {
          "internalType": "uint8",
          "name": "numberOfWinners",
          "type": "uint8"
        },
        {
          "internalType": "bool",
          "name": "usersOrAgents",
          "type": "bool"
        }
      ],
      "stateMutability": "view",
      "type": "function"
    },
    {
      "inputs": [
        {
          "internalType": "bytes32",
          "name": "requestId",
          "type": "bytes32"
        },
        {
          "internalType": "bytes",
          "name": "response",
          "type": "bytes"
        },
        {
          "internalType": "bytes",
          "name": "err",
          "type": "bytes"
        }
      ],
      "name": "handleOracleFulfillment",
      "outputs": [],
      "stateMutability": "nonpayable",
      "type": "function"
    },
    {
      "inputs": [
        {
          "internalType": "address",
          "name": "spender",
          "type": "address"
        },
        {
          "internalType": "uint256",
          "name": "addedValue",
          "type": "uint256"
        }
      ],
      "name": "increaseAllowance",
      "outputs": [
        {
          "internalType": "bool",
          "name": "",
          "type": "bool"
        }
      ],
      "stateMutability": "nonpayable",
      "type": "function"
    },
    {
      "inputs": [
        {
          "internalType": "address",
          "name": "",
          "type": "address"
        },
        {
          "internalType": "address",
          "name": "",
          "type": "address"
        },
        {
          "internalType": "address",
          "name": "",
          "type": "address"
        },
        {
          "internalType": "bytes",
          "name": "",
          "type": "bytes"
        }
      ],
      "name": "keyPurchasePrice",
      "outputs": [
        {
          "internalType": "uint256",
          "name": "minKeyPrice",
          "type": "uint256"
        }
      ],
      "stateMutability": "view",
      "type": "function"
    },
    {
      "inputs": [],
      "name": "name",
      "outputs": [
        {
          "internalType": "string",
          "name": "",
          "type": "string"
        }
      ],
      "stateMutability": "view",
      "type": "function"
    },
    {
      "inputs": [
        {
          "internalType": "uint256",
          "name": "",
          "type": "uint256"
        },
        {
          "internalType": "address",
          "name": "from",
          "type": "address"
        },
        {
          "internalType": "address",
          "name": "",
          "type": "address"
        },
        {
          "internalType": "address",
          "name": "",
          "type": "address"
        },
        {
          "internalType": "bytes",
          "name": "",
          "type": "bytes"
        },
        {
          "internalType": "uint256",
          "name": "",
          "type": "uint256"
        },
        {
          "internalType": "uint256",
          "name": "",
          "type": "uint256"
        }
      ],
      "name": "onKeyPurchase",
      "outputs": [],
      "stateMutability": "view",
      "type": "function"
    },
    {
      "inputs": [],
      "name": "owner",
      "outputs": [
        {
          "internalType": "address",
          "name": "",
          "type": "address"
        }
      ],
      "stateMutability": "view",
      "type": "function"
    },
    {
      "inputs": [
        {
          "internalType": "bytes",
          "name": "performData",
          "type": "bytes"
        }
      ],
      "name": "performUpkeep",
      "outputs": [],
      "stateMutability": "nonpayable",
      "type": "function"
    },
    {
      "inputs": [
        {
          "internalType": "uint32",
          "name": "_agentID",
          "type": "uint32"
        },
        {
          "internalType": "uint256",
          "name": "_value",
          "type": "uint256"
        },
        {
          "internalType": "string",
          "name": "_threadID",
          "type": "string"
        }
      ],
      "name": "purchaseSubscription",
      "outputs": [],
      "stateMutability": "payable",
      "type": "function"
    },
    {
      "inputs": [
        {
          "components": [
            {
              "internalType": "string",
              "name": "agentName",
              "type": "string"
            },
            {
              "internalType": "uint32",
              "name": "agentID",
              "type": "uint32"
            },
            {
              "internalType": "uint256",
              "name": "subscriptionExpirationDuration",
              "type": "uint256"
            },
            {
              "internalType": "address",
              "name": "tokenAddress",
              "type": "address"
            },
            {
              "internalType": "uint256",
              "name": "keyPrice",
              "type": "uint256"
            },
            {
              "internalType": "uint256",
              "name": "basisPoint",
              "type": "uint256"
            },
            {
              "internalType": "string",
              "name": "lockName",
              "type": "string"
            },
            {
              "internalType": "string",
              "name": "lockSymbol",
              "type": "string"
            },
            {
              "internalType": "string",
              "name": "baseTokenURI",
              "type": "string"
            },
            {
              "internalType": "string",
              "name": "rewardCategory",
              "type": "string"
            },
            {
              "internalType": "string",
              "name": "actualCategory",
              "type": "string"
            },
            {
              "internalType": "bool",
              "name": "isOpenForContributions",
              "type": "bool"
            }
          ],
          "internalType": "struct DAIM.AgentInitConfig",
          "name": "agentConfig",
          "type": "tuple"
        }
      ],
      "name": "registerAgent",
      "outputs": [],
      "stateMutability": "nonpayable",
      "type": "function"
    },
    {
      "inputs": [
        {
          "internalType": "uint32",
          "name": "_agentID",
          "type": "uint32"
        },
        {
          "internalType": "uint32",
          "name": "_agentVersionID",
          "type": "uint32"
        },
        {
          "internalType": "string",
          "name": "_agentVersionName",
          "type": "string"
        },
        {
          "internalType": "string",
          "name": "_agentMetadataCID",
          "type": "string"
        }
      ],
      "name": "registerAgentVersion",
      "outputs": [],
      "stateMutability": "nonpayable",
      "type": "function"
    },
    {
      "inputs": [],
      "name": "renounceOwnership",
      "outputs": [],
      "stateMutability": "nonpayable",
      "type": "function"
    },
    {
      "inputs": [
        {
          "internalType": "bytes32",
          "name": "",
          "type": "bytes32"
        }
      ],
      "name": "requestData",
      "outputs": [
        {
          "internalType": "bool",
          "name": "executed",
          "type": "bool"
        },
        {
          "internalType": "bytes32",
          "name": "sourceID",
          "type": "bytes32"
        }
      ],
      "stateMutability": "view",
      "type": "function"
    },
    {
      "inputs": [
        {
          "internalType": "bytes32",
          "name": "",
          "type": "bytes32"
        },
        {
          "internalType": "uint8",
          "name": "",
          "type": "uint8"
        }
      ],
      "name": "rewardDistributions",
      "outputs": [
        {
          "internalType": "uint256",
          "name": "",
          "type": "uint256"
        }
      ],
      "stateMutability": "view",
      "type": "function"
    },
    {
      "inputs": [
        {
          "internalType": "bytes32",
          "name": "_requestID",
          "type": "bytes32"
        }
      ],
      "name": "rewardsDistribution",
      "outputs": [],
      "stateMutability": "nonpayable",
      "type": "function"
    },
    {
      "inputs": [
        {
          "internalType": "bytes32",
          "name": "",
          "type": "bytes32"
        }
      ],
      "name": "roundWinners",
      "outputs": [
        {
          "internalType": "bytes",
          "name": "",
          "type": "bytes"
        }
      ],
      "stateMutability": "view",
      "type": "function"
    },
    {
      "inputs": [
        {
          "internalType": "bytes32",
          "name": "sourceID",
          "type": "bytes32"
        }
      ],
      "name": "sendRequest",
      "outputs": [],
      "stateMutability": "nonpayable",
      "type": "function"
    },
    {
      "inputs": [
        {
          "internalType": "bytes32",
          "name": "",
          "type": "bytes32"
        }
      ],
      "name": "sources",
      "outputs": [
        {
          "internalType": "string",
          "name": "",
          "type": "string"
        }
      ],
      "stateMutability": "view",
      "type": "function"
    },
    {
      "inputs": [],
      "name": "symbol",
      "outputs": [
        {
          "internalType": "string",
          "name": "",
          "type": "string"
        }
      ],
      "stateMutability": "view",
      "type": "function"
    },
    {
      "inputs": [
        {
          "internalType": "address",
          "name": "lockAddress",
          "type": "address"
        },
        {
          "internalType": "address",
          "name": "operator",
          "type": "address"
        },
        {
          "internalType": "address",
          "name": "owner",
          "type": "address"
        },
        {
          "internalType": "uint256",
          "name": "keyId",
          "type": "uint256"
        },
        {
          "internalType": "uint256",
          "name": "expirationTimestamp",
          "type": "uint256"
        }
      ],
      "name": "tokenURI",
      "outputs": [
        {
          "internalType": "string",
          "name": "",
          "type": "string"
        }
      ],
      "stateMutability": "pure",
      "type": "function"
    },
    {
      "inputs": [],
      "name": "totalSupply",
      "outputs": [
        {
          "internalType": "uint256",
          "name": "",
          "type": "uint256"
        }
      ],
      "stateMutability": "view",
      "type": "function"
    },
    {
      "inputs": [
        {
          "internalType": "address",
          "name": "to",
          "type": "address"
        },
        {
          "internalType": "uint256",
          "name": "amount",
          "type": "uint256"
        }
      ],
      "name": "transfer",
      "outputs": [
        {
          "internalType": "bool",
          "name": "",
          "type": "bool"
        }
      ],
      "stateMutability": "nonpayable",
      "type": "function"
    },
    {
      "inputs": [
        {
          "internalType": "address",
          "name": "from",
          "type": "address"
        },
        {
          "internalType": "address",
          "name": "to",
          "type": "address"
        },
        {
          "internalType": "uint256",
          "name": "amount",
          "type": "uint256"
        }
      ],
      "name": "transferFrom",
      "outputs": [
        {
          "internalType": "bool",
          "name": "",
          "type": "bool"
        }
      ],
      "stateMutability": "nonpayable",
      "type": "function"
    },
    {
      "inputs": [
        {
          "internalType": "address",
          "name": "newOwner",
          "type": "address"
        }
      ],
      "name": "transferOwnership",
      "outputs": [],
      "stateMutability": "nonpayable",
      "type": "function"
    },
    {
      "inputs": [
        {
          "internalType": "address",
          "name": "tokenAddress",
          "type": "address"
        }
      ],
      "name": "withdraw",
      "outputs": [],
      "stateMutability": "nonpayable",
      "type": "function"
    },
    {
      "inputs": [
        {
          "internalType": "uint32",
          "name": "_agentID",
          "type": "uint32"
        }
      ],
      "name": "withdraw",
      "outputs": [],
      "stateMutability": "nonpayable",
      "type": "function"
    },
    {
      "stateMutability": "payable",
      "type": "receive"
    }
  ],
  "transactionHash": "0xc2c41bbbd5d0c864e4a60cfa9e71ef3d79d6a8f8aba220b173c88acc1a8707d6",
  "args": [
    "0x6E2dc0F9DB014aE19888F539E59285D2Ea04244C",
    "0x1FF7e338d5E582138C46044dc238543Ce555C963",
    "0x66756e2d706f6c79676f6e2d6d756d6261692d31000000000000000000000000",
    785
  ],
  "numDeployments": 2,
  "solcInputHash": "514c4d8b785e8d0a73899144639720e9",
  "bytecode": "0x60a0346200040c57601f90601f19906001600160401b0362005409388190038581018516840191908383118584101762000411578085926080946040528339810103126200040c5781516001600160a01b0393848216918290036200040c5760209283850151968688168098036200040c5760606040870151960151948286168096036200040c576200009162000427565b93601785527f444543454e5452414c495a4544204149204d41524b455400000000000000000082860152620000c562000427565b91600496878452634441494d60e01b82850152608052600091825460018060a01b03199b338d83161785553391167f8be0079c531659141344cd1fd0a4f28419497f9722a3daafe3b4186f6b6457e08580a38651868111620003f9578854976001988981811c91168015620003ee575b85821014620003db5790818884931162000388575b508490888311600114620003275786926200031b575b5050600019600383901b1c191690881b1788555b835195861162000308576005978854908882811c92168015620002fd575b84831014620002ea5750858111620002a4575b50819486116001146200023e5750509183949184939462000232575b50501b916000199060031b1c19161790555b61249f60a51b63ffffffff60a01b1960085416176008556000196009556228de80600a5560018060401b03196006541617600655600b556013541617601355604051614fc190816200044882396080518181816106550152612c920152f35b015192503880620001c1565b8783528183209493928692918316915b888383106200028957505050106200026f575b505050811b019055620001d3565b015160001960f88460031b161c1916905538808062000261565b8587015188559096019594850194879350908101906200024e565b888452828420868089018b1c820192858a10620002e0575b018a1c019088905b828110620002d4575050620001a5565b858155018890620002c4565b92508192620002bc565b634e487b7160e01b855260229052602484fd5b91607f169162000192565b634e487b7160e01b835260418852602483fd5b01519050388062000160565b90848b9416918c885286882092885b8882821062000371575050841162000357575b505050811b01885562000174565b015160001960f88460031b161c1916905538808062000349565b8385015186558e9790950194938401930162000336565b9091508a86528486208880850160051c820192878610620003d1575b918c91869594930160051c01915b828110620003c25750506200014a565b8881558594508c9101620003b2565b92508192620003a4565b634e487b7160e01b865260228b52602486fd5b90607f169062000135565b634e487b7160e01b845260418952602484fd5b600080fd5b634e487b7160e01b600052604160045260246000fd5b60408051919082016001600160401b03811183821017620004115760405256fe6080604052600436101561001b575b361561001957600080fd5b005b60003560e01c806306fdde031461025b57806307e3290414610256578063095ea7b3146102515780630c92ecf71461024c5780630ca761751461024757806318160ddd14610242578063221c1fd11461023d57806323b872dd14610238578063313ce567146102335780633661346b1461022e578063395093511461022957806340691db4146102245780634585e33b1461021f57806351cff8d91461021a578063584992de146102155780635e895f29146102105780635f1d78ae1461020b57806362e16bd31461020657806370a0823114610201578063715018a6146101fc57806381bb4250146101f75780638c3d86b4146101f25780638da5cb5b146101ed57806395d89b41146101e8578063988b93ad146101e35780639d58754f146101de5780639f1ea81b146101d9578063a457c2d7146101d4578063a9059cbb146101cf578063a9cf7519146101ca578063aa9224cd146101c5578063ba30621e146101c0578063dd62ed3e146101bb578063e9239117146101b6578063f2fde38b146101b15763fe5f49ac0361000e57612495565b6123ce565b612055565b611ff2565b611f93565b611e31565b611bee565b611bc4565b611b12565b611adc565b611a8f565b6115f3565b61154c565b611523565b61143b565b6110ca565b61106f565b611032565b610e8e565b610e3d565b610ceb565b610cae565b610bb0565b610b68565b610aa5565b610a31565b6109f7565b6109db565b610908565b610849565b6107fe565b610606565b61053b565b6103de565b6103b1565b6102cc565b600091031261026b57565b600080fd5b60005b8381106102835750506000910152565b8181015183820152602001610273565b906020916102ac81518092818552858086019101610270565b601f01601f1916010190565b9060206102c9928181520190610293565b90565b3461026b576000806003193601126103ae5760405190806004546102ef81610d52565b808552916001918083169081156103845750600114610329575b6103258561031981870382610492565b604051918291826102b8565b0390f35b9250600483527f8a35acfbc15ff81a39ae7d344fd709f28e8600b4aa8c65c6b64bfe7fe36bd19b5b82841061036c57505050810160200161031982610325610309565b80546020858701810191909152909301928101610351565b8695506103259693506020925061031994915060ff191682840152151560051b8201019293610309565b80fd5b3461026b57602036600319011261026b57610019600435613ca8565b6001600160a01b0381160361026b57565b3461026b57604036600319011261026b576104086004356103fe816103cd565b602435903361274c565b602060405160018152f35b634e487b7160e01b600052604160045260246000fd5b6001600160401b03811161043c57604052565b610413565b604081019081106001600160401b0382111761043c57604052565b606081019081106001600160401b0382111761043c57604052565b602081019081106001600160401b0382111761043c57604052565b90601f801991011681019081106001600160401b0382111761043c57604052565b604051906104c08261045c565b565b6001600160401b03811161043c57601f01601f191660200190565b81601f8201121561026b578035906104f4826104c2565b926105026040519485610492565b8284526020838301011161026b57816000926020809301838601378301015290565b6001600160401b03811161043c5760051b60200190565b3461026b57608036600319011261026b576001600160401b0360043581811161026b5761056c9036906004016104dd565b9060243581811161026b576105859036906004016104dd565b60443590610592826103cd565b60643592831161026b573660238401121561026b578260040135936105b685610524565b936105c46040519586610492565b85855260209560248787019160051b8301019136831161026b57602401905b8282106105f7575050506100199450612877565b813581529087019087016105e3565b3461026b57606036600319011261026b576001600160401b0360043560243582811161026b5761063a9036906004016104dd565b60443583811161026b576106529036906004016104dd565b507f00000000000000000000000000000000000000000000000000000000000000006001600160a01b031633036107ec57600092828452602090600e82526040852091835191821161043c576106b2826106ac8554610d52565b85612a3e565b80601f831160011461075d575090807f873142285a75d241914f10e28387168bc800ee523453237b118e63b0fba46f379493928791610752575b508160011b916000199060031b1c19161790555b6001610716846000526012602052604060002090565b01546107286040519283928684613b63565b0390a17f85e1543bf2f84fe80c6badbce3648c8539ad1df4d2b3d822938ca0538be727e68280a280f35b9050830151386106ec565b90601f19831661077285600052602060002090565b9288905b8282106107d45750509183917f873142285a75d241914f10e28387168bc800ee523453237b118e63b0fba46f37969594600194106107bb575b5050811b019055610700565b85015160001960f88460031b161c1916905538806107af565b80600185968294968b01518155019501930190610776565b60405163c6829f8360e01b8152600490fd5b3461026b57600036600319011261026b576020600354604051908152f35b9181601f8401121561026b578235916001600160401b03831161026b576020838186019501011161026b57565b3461026b57608036600319011261026b576108656004356103cd565b6108706024356103cd565b61087b6044356103cd565b6064356001600160401b03811161026b5761089a90369060040161081c565b50506040516310e5697360e01b8152602081600481335afa801561090357610325916000916108d5575b506040519081529081906020820190565b6108f6915060203d81116108fc575b6108ee8183610492565b810190612c1f565b386108c4565b503d6108e4565b612c2e565b3461026b57606036600319011261026b57600435610925816103cd565b602435610931816103cd565b6001600160a01b03821660009081526002602090815260408083203384529091529020604435919054926001840161097a575b61096e9350612632565b60405160018152602090f35b828410610996576109918361096e9503338361274c565b610964565b60405162461bcd60e51b815260206004820152601d60248201527f45524332303a20696e73756666696369656e7420616c6c6f77616e63650000006044820152606490fd5b3461026b57600036600319011261026b57602060405160128152f35b3461026b57602036600319011261026b576004356000526012602052604080600020600160ff825416910154825191151582526020820152f35b3461026b57604036600319011261026b57600435610a4e816103cd565b3360009081526002602090815260408083206001600160a01b03851684529091529020546024358101809111610a8857610408913361274c565b612532565b9060406102c992600181528160208201520190610293565b3461026b5760031960403682011261026b576001600160401b039060043582811161026b576101008136039283011261026b5760243583811161026b57610af09036906004016104dd565b5060c4810135916022190182121561026b570190600482013590811161026b578060051b3603602483011361026b5760011015610b63576044610b5761032592610b496040519384920135602083019190602083019252565b03601f198101835282610492565b60405191829182610a8d565b612b71565b3461026b57602036600319011261026b576004356001600160401b03811161026b57610b9a602091369060040161081c565b908092918101031261026b576100199035613ca8565b3461026b5760208060031936011261026b57600435610bce816103cd565b610bd66124da565b6001600160a01b031680610bf05750506100194733614557565b6040516370a0823160e01b81523060048201528281602481855afa908115610903576000928492610c4d928591610c83575b5060405163a9059cbb60e01b8152336004820152602481019190915293849283919082906044820190565b03925af1801561090357610c5d57005b8161001992903d10610c7c575b610c748183610492565b810190614457565b503d610c6a565b610c9a9150843d86116108fc576108ee8183610492565b38610c22565b63ffffffff81160361026b57565b3461026b57602036600319011261026b576020600435610ccd81610ca0565b63ffffffff809116600052600d825260406000205416604051908152f35b3461026b5760e036600319011261026b57602435610d08816103cd565b610d136044356103cd565b610d1e6064356103cd565b6084356001600160401b03811161026b57610d3d90369060040161081c565b5050306001600160a01b039091160361026b57005b90600182811c92168015610d82575b6020831014610d6c57565b634e487b7160e01b600052602260045260246000fd5b91607f1691610d61565b9060009291805491610d9d83610d52565b918282526001938481169081600014610dff5750600114610dbf575b50505050565b90919394506000526020928360002092846000945b838610610deb575050505001019038808080610db9565b805485870183015294019385908201610dd4565b9294505050602093945060ff191683830152151560051b01019038808080610db9565b906104c0610e369260405193848092610d8c565b0383610492565b3461026b57602036600319011261026b57600435600052600f602052610325610e73610e7a604060002060405192838092610d8c565b0382610492565b604051918291602083526020830190610293565b3461026b57608036600319011261026b57600435610eab81610ca0565b60243590610eb882610ca0565b6001600160401b039160443583811161026b57610ed99036906004016104dd565b9060643593841161026b577f57bff0a79faaabef73281bdf7021d3758548f9c97bfc303a2be1a4c6406a352061101d92610f1a6100199636906004016104dd565b9063ffffffff8616600052600c602052610f4160ff60016040600020015460a01c16614218565b610f7c60018060a01b03610f75610f688763ffffffff16600052600c602052604060002090565b546001600160a01b031690565b1615614007565b610ff1610fac6001610f9e8963ffffffff16600052600c602052604060002090565b01546001600160a01b031690565b610fcb610fb76104b3565b338152916001600160a01b03166020830152565b60006040820152610fec8663ffffffff16600052600c602052604060002090565b614147565b6110046040519283928633918a86614270565b0390a163ffffffff16600052600d602052604060002090565b9063ffffffff1663ffffffff19825416179055565b3461026b57602036600319011261026b5760043561104f816103cd565b60018060a01b031660005260016020526020604060002054604051908152f35b3461026b576000806003193601126103ae576110896124da565b80546001600160a01b03198116825581906001600160a01b03167f8be0079c531659141344cd1fd0a4f28419497f9722a3daafe3b4186f6b6457e08280a380f35b606036600319011261026b5760048035906110e482610ca0565b6044356001600160401b03811161026b5761110290369083016104dd565b9060018060a01b03926111348461112c610f688463ffffffff16600052600c602052604060002090565b1615156142ba565b61113c613bbe565b93611145613bbe565b61114d613bbe565b611155613bbe565b61115d6142fe565b95611166613bbe565b50846111876001610f9e8963ffffffff16600052600c602052604060002090565b6111b86111b460016111a98b63ffffffff16600052600c602052604060002090565b015460a01c60ff1690565b1590565b61140d575b6024356111c985612b87565b526111e6336111d788612b87565b6001600160a01b039091169052565b169260409788516313aedd4b60e31b8152602097888286818a5afa918215610903576000926113de575b508a516310e5697360e01b815291898387818b5afa928315610903576000936113bf575b5016908115611358578a516323b872dd60e01b81523381870190815230602082015260408101929092529493929189918691908290600090829060600103925af19182156109035760009889956112a69461133a575b50508a51633381899760e01b81529c8d988997889687016143ac565b03925af1908115610903576112e8611314927fb13fba94df0630efb53e320abed1d27b8117a85ac9090a9e5cc3edd534b22bd196600091611319575b50612b87565b5192611307610f688363ffffffff16600052600c602052604060002090565b905194859433938661446c565b0390a1005b611334913d8091833e61132c8183610492565b810190614333565b386112e2565b8161135092903d10610c7c57610c748183610492565b50388061128a565b50506000965061137c9189519b8c9788968796633381899760e01b885287016143ac565b039134905af1908115610903576112e8611314927fb13fba94df0630efb53e320abed1d27b8117a85ac9090a9e5cc3edd534b22bd1966000916113195750612b87565b6113d79193508a3d8c116108fc576108ee8183610492565b9138611234565b6113ff919250893d8b11611406575b6113f78183610492565b810190614086565b9038611210565b503d6113ed565b61143661142d610f688a63ffffffff16600052600c602052604060002090565b6111d78d612b87565b6111bd565b3461026b57602036600319011261026b576004356000818152601160205260409020546001600160a01b0316330361026b5760405160e081018181106001600160401b0382111761043c5761150f6114ed60019361151f9360405260008152600060208201526000604082015260608082015260606080820152606060a0820152606060c08201526114e86114e26114dd88600052600f602052604060002090565b610e22565b82613025565b612e52565b6006546001600160401b031660085460a01c63ffffffff1690600b5492612c3a565b6000526012602052604060002090565b0155005b3461026b57600036600319011261026b576000546040516001600160a01b039091168152602090f35b3461026b576000806003193601126103ae57604051908060055461156f81610d52565b808552916001918083169081156103845750600114611598576103258561031981870382610492565b9250600583527f036b6384b5eca791c62761152d0c79bb0604c104a5fb6f4eb0703f3154bb3db05b8284106115db57505050810160200161031982610325610309565b805460208587018101919091529093019281016115c0565b3461026b5760a036600319011261026b5761160f6004356103cd565b61161a6024356103cd565b604435611626816103cd565b61162f906147d9565b61163a606435614696565b611645608435614696565b91604051928391602083016116ae906041907f3c73766720786d6c6e733d22687474703a2f2f7777772e77332e6f72672f323081527f30302f737667222077696474683d2235313222206865696768743d22353132226020820152601f60f91b60408201520190565b7f3c726563742077696474683d223130302522206865696768743d223130302522815271103334b6361e9111a2a322a322a31110179f60711b60208201526032017f3c7465787420783d223530252220793d223333252220666f6e742d66616d696c81527f793d2256657264616e612220666f6e742d73697a653d223138222066696c6c3d60208201527f22626c61636b2220666f6e742d7765696768743d22626f6c642220746578742d60408201527f616e63686f723d226d6964646c65223e4f776e65723a20000000000000000000606082015260770161179091614657565b661e17ba32bc3a1f60c91b81526007017f3c7465787420783d223530252220793d223438252220666f6e742d66616d696c81527f793d2256657264616e612220666f6e742d73697a653d223138222066696c6c3d60208201527f22626c61636b2220666f6e742d7765696768743d22626f6c642220746578742d60408201527f616e63686f723d226d6964646c65223e4b65792049443a20000000000000000060608201526078016118429084614657565b661e17ba32bc3a1f60c91b81526007017f3c7465787420783d223530252220793d223633252220666f6e742d66616d696c81527f793d2256657264616e612220666f6e742d73697a653d223138222066696c6c3d60208201527f22626c61636b2220666f6e742d7765696768743d22626f6c642220746578742d60408201527f616e63686f723d226d6964646c65223e45787069726174696f6e2054696d657360608201526503a30b6b81d160d51b608082015260860161190291614657565b661e17ba32bc3a1f60c91b8152600701651e17b9bb339f60d11b81526006010391601f199283810182526119369082610492565b61193f90614976565b604051607b60f81b602082015291829190602183017f226e616d65223a22596f757220546f6b656e204e616d65202300000000000000815260190161198391614657565b61088b60f21b81526002017f226465736372697074696f6e223a22537562736372697074696f6e20746f6b658152741b88199bdc881d1a194810524813585c9ad95d088b605a1b6020820152603501691134b6b0b3b2911d101160b11b8152600a017f646174613a696d6167652f7376672b786d6c3b6261736536342c0000000000008152601a01611a1491614657565b607d60f81b8152600101038281018252611a2e9082610492565b611a3790614976565b6040517f646174613a6170706c69636174696f6e2f6a736f6e3b6261736536342c000000602082015291908290603d8201611a7191614657565b039081018252611a819082610492565b6040516103258192826102b8565b3461026b57602036600319011261026b576004356000526011602052606060406000205460ff6040519160018060a01b0381168352818160a01c16602084015260a81c1615156040820152f35b3461026b57602036600319011261026b57600435600052600e602052610325610e73610e7a604060002060405192838092610d8c565b3461026b57604036600319011261026b57600435611b2f816103cd565b60243590336000526002602052611b5c8160406000209060018060a01b0316600052602052604060002090565b5491808310611b715761096e9203903361274c565b60405162461bcd60e51b815260206004820152602560248201527f45524332303a2064656372656173656420616c6c6f77616e63652062656c6f77604482015264207a65726f60d81b6064820152608490fd5b3461026b57604036600319011261026b57610408600435611be4816103cd565b6024359033612632565b606036600319011261026b576004803590602435604435611c0e81610ca0565b60018060a01b0393611c378561112c610f688563ffffffff16600052600c602052604060002090565b600094611c6b611c5f611c5f6001610f9e8763ffffffff16600052600c602052604060002090565b6001600160a01b031690565b92604051916313aedd4b60e31b835260209283818981895afa908115610903578991611e14575b506040516310e5697360e01b81529284848a818a5afa938415610903578a94611df5575b50611cd96111b460016111a98463ffffffff16600052600c602052604060002090565b611dce575b50168015611d9157604080516323b872dd60e01b81523389820190815230602082015291820193909352839183918290600090829060600103925af1801561090357611d73575b5050813b1561026b5760008094611d506040519788968795869463d813cc1960e01b865285016144ae565b03925af1801561090357611d6057005b80611d6d61001992610429565b80610260565b81611d8992903d10610c7c57610c748183610492565b503880611d25565b505050813b1561026b57600093611dbc6040519687958694859463d813cc1960e01b865285016144ae565b039134905af1801561090357611d6057005b611dee919950610f689063ffffffff16600052600c602052604060002090565b9738611cde565b611e0d919450853d87116108fc576108ee8183610492565b9238611cb6565b611e2b9150843d8611611406576113f78183610492565b38611c92565b3461026b5760208060031936011261026b57611e70611e6b600435611e5581610ca0565b63ffffffff16600052600c602052604060002090565b614510565b818101516001600160a01b0390811692908331611e8f600a82046131c9565b93604051956313aedd4b60e31b87528487600481845afa96871561090357600097611f74575b50803b1561026b57604051636ce5768960e11b81526001600160a01b038816600482015230602482015260448101939093526000908390606490829084905af190811561090357611f1792611c5f92611f61575b50516001600160a01b031690565b931680611f2957505061001991614557565b60405163a9059cbb60e01b81526001600160a01b03909416600485015260248401929092529190829082908160008160448101610c4d565b80611d6d611f6e92610429565b38611f09565b611f8c919750853d8711611406576113f78183610492565b9538611eb5565b3461026b57602036600319011261026b5763ffffffff600435611fb581610ca0565b16600052600c6020526060604060002060ff60018060a01b03600181845416930154906040519384528116602084015260a01c1615156040820152f35b3461026b57604036600319011261026b57602061204c600435612014816103cd565b60243590612021826103cd565b60018060a01b03166000526002835260406000209060018060a01b0316600052602052604060002090565b54604051908152f35b3461026b5760031960203682011261026b5760048035916001600160401b03831161026b5761018083830191843603011261026b5760248301926001600160a01b036120aa81610f75610f68611e5589613ffd565b6013546120bf906001600160a01b0316611c5f565b94600a546120cf6064850161404a565b9160848501359460095493602060c48301948a61210c6120ef888d614054565b9060409a8d8c51988997889763216c908360e11b895288016140bc565b03816000809e5af1958615610903578a9182976123aa575b506121329087169489614054565b919061214160e485018b614054565b9061215061010487018d614054565b90893b156123a6578e93612176938c51988997889763d1b8759b60e01b895288016140f9565b038183885af1801561090357612393575b5060a4810135978861233b575b833b156123375784516374cac47d60e01b8152308282018181526000602082018190526040820181905260608201929092526080810182905260a0810182905260c08101919091529091908b908390819060e001038183895af1918215610903578b92612324575b50600a549460095495813b156123205783879361223d8a51998a968795869463282478df60e01b865285016040919493926060820195825260208201520152565b03925af1908115610903577f82b43af44085d027d16b4c42d5c208613ba231f47e559cdc31dd104804309601986122d997612307976122fa966101449561230d575b506101648401956122c46122928861413d565b6122b861229d6104b3565b338152916001600160a01b03861660208401521515828d0152565b610fec611e5584613ffd565b6122f26122d18d80614054565b9c9092613ffd565b9c6122e8610124880182614054565b9890970190614054565b98909761413d565b98519b8c9b33928d61419f565b0390a180f35b80611d6d61231a92610429565b3861227f565b8380fd5b80611d6d61233192610429565b386121fc565b8980fd5b833b1561233757845163debe2b0d60e01b81528a81806123698d868301919060206040840193600081520152565b038183895af1801561090357612380575b50612194565b80611d6d61238d92610429565b3861237a565b80611d6d6123a092610429565b38612187565b8580fd5b6121329197506123c79060203d8111611406576113f78183610492565b9690612124565b3461026b57602036600319011261026b576004356123eb816103cd565b6123f36124da565b6001600160a01b03908116801561244157600080546001600160a01b03198116831782559092167f8be0079c531659141344cd1fd0a4f28419497f9722a3daafe3b4186f6b6457e08380a380f35b60405162461bcd60e51b815260206004820152602660248201527f4f776e61626c653a206e6577206f776e657220697320746865207a65726f206160448201526564647265737360d01b6064820152608490fd5b3461026b57604036600319011261026b5760243560ff8116810361026b5761204c6020916004356000526010835260406000209060ff16600052602052604060002090565b6000546001600160a01b031633036124ee57565b606460405162461bcd60e51b815260206004820152602060248201527f4f776e61626c653a2063616c6c6572206973206e6f7420746865206f776e65726044820152fd5b634e487b7160e01b600052601160045260246000fd5b9060208201809211610a8857565b9060028201809211610a8857565b9060018201809211610a8857565b91908201809211610a8857565b1561258657565b60405162461bcd60e51b815260206004820152602360248201527f45524332303a207472616e7366657220746f20746865207a65726f206164647260448201526265737360e81b6064820152608490fd5b156125de57565b60405162461bcd60e51b815260206004820152602660248201527f45524332303a207472616e7366657220616d6f756e7420657863656564732062604482015265616c616e636560d01b6064820152608490fd5b916001600160a01b0380841692909183156126f9576126de827fddf252ad1be2c89b69c2b068fc378daa952ba7f163c4a11628f55a4df523b3ef946126f494169661267e88151561257f565b6001600160a01b03811660009081526001602052604090206126c3908590546126a9828210156125d7565b039160018060a01b03166000526001602052604060002090565b556001600160a01b0316600090815260016020526040902090565b8054820190556040519081529081906020820190565b0390a3565b60405162461bcd60e51b815260206004820152602560248201527f45524332303a207472616e736665722066726f6d20746865207a65726f206164604482015264647265737360d81b6064820152608490fd5b6001600160a01b0380821692919083156128265782169384156127d657806127c57f8c5be1e5ebec7d5bd14f71427d1e84f3dd0314c0f7b2291e5b200ac8c7c3b925946127ae6126f49560018060a01b03166000526002602052604060002090565b9060018060a01b0316600052602052604060002090565b556040519081529081906020820190565b60405162461bcd60e51b815260206004820152602260248201527f45524332303a20617070726f766520746f20746865207a65726f206164647265604482015261737360f01b6064820152608490fd5b60405162461bcd60e51b8152602060048201526024808201527f45524332303a20617070726f76652066726f6d20746865207a65726f206164646044820152637265737360e01b6064820152608490fd5b929091936128836124da565b61288c84613fda565b926128c260405161289c81610441565b601481527375736572735265776172644d656368616e69736d60601b6020820152613fda565b84146129f8575b6129446128da849796975160ff1690565b95612911876128f3886000526011602052604060002090565b8054909160ff60a01b1990911660a09190911b60ff60a01b16179055565b612925866000526011602052604060002090565b80546001600160a01b0319166001600160a01b03909216919091179055565b6129618161295c86600052600f602052604060002090565b612a92565b60ff9485169560005b868116888110156129b957906129836129b49287612b94565b516129ae8261299c8a6000526010602052604060002090565b9060ff16600052602052604060002090565b55612b60565b61296a565b50509290936129f39296507f75667fad75521b835344aca3b0eea672769f8704aa6bebba7ed3d59ae740f07a955060405194859485612bdc565b0390a1565b612a22612a0f856000526011602052604060002090565b805460ff60a81b1916600160a81b179055565b6128c9565b60405190612a3482610477565b60008252565b9055565b90601f8111612a4c57505050565b600091825260208220906020601f850160051c83019410612a88575b601f0160051c01915b828110612a7d57505050565b818155600101612a71565b9092508290612a68565b91909182516001600160401b03811161043c57612ab981612ab38454610d52565b84612a3e565b602080601f8311600114612af5575081929394600092612aea575b50508160011b916000199060031b1c1916179055565b015190503880612ad4565b90601f19831695612b0b85600052602060002090565b926000905b888210612b4857505083600195969710612b2f575b505050811b019055565b015160001960f88460031b161c19169055388080612b25565b80600185968294968601518155019501930190612b10565b60ff1660ff8114610a885760010190565b634e487b7160e01b600052603260045260246000fd5b805115610b635760200190565b8051821015610b635760209160051b010190565b90815180825260208080930193019160005b828110612bc8575050505090565b835185529381019392810192600101612bba565b906102c99492612bf7612c0592608085526080850190610293565b908382036020850152610293565b9260408201526060818403910152612ba8565b1561026b57565b9081602091031261026b575190565b6040513d6000823e3d90fd5b92906020926001600160401b039263ffffffff612c79604051978896879663230e93b160e11b885216600487015260a0602487015260a4860190610293565b60016044860152921660648401526084830152038160007f00000000000000000000000000000000000000000000000000000000000000006001600160a01b03165af190811561090357600091612cf5575b50807f1131472297a800fee664d1d89cfa8f7676ff07189ecc53f80bbb5f4969099db8600080a290565b612d0d915060203d81116108fc576108ee8183610492565b38612ccb565b60405190612d2082610441565b600c82526b31b7b232a637b1b0ba34b7b760a11b6020830152565b634e487b7160e01b600052602160045260246000fd5b60031115612d5b57565b612d3b565b60405190612d6d82610441565b60088252676c616e677561676560c01b6020830152565b60011115612d5b57565b60405190612d9b82610441565b6006825265736f7572636560d01b6020830152565b60405190612dbd82610441565b60048252636172677360e01b6020830152565b6000198114610a885760010190565b60405190612dec82610441565b600f82526e39b2b1b932ba39a637b1b0ba34b7b760891b6020830152565b60405190612e1782610441565b60078252667365637265747360c81b6020830152565b60405190612e3a82610441565b600982526862797465734172677360b81b6020830152565b612e5a613068565b90612e6c612e66612d13565b83613824565b612e898151612e7a81612d51565b612e8381612d51565b83613128565b612e94612e66612d60565b612eae6040820151612ea581612d84565b612e8381612d84565b612eb9612e66612d8e565b612ec7606082015183613824565b60a08101805151612fcc575b506080810190815151612f4c575b60c0915001805151612ef4575b50515190565b91612f00612e66612e2d565b612f09826138a8565b60005b83518051821015612f395790612f2f612f2882612f3494612b94565b518561376f565b612dd0565b612f0c565b50509150612f4681613934565b38612eee565b602081018051612f5b81612d51565b612f6481612d51565b15612fba5760c092612f9d612fb592612f84612f7e612ddf565b88613824565b51612f8e81612d51565b612f9781612d51565b86613128565b612fae612fa8612e0a565b86613824565b518461376f565b612ee1565b60405163a80d31f760e01b8152600490fd5b92612fde612fd8612db0565b84613824565b612fe7836138a8565b60005b845180518210156130125790612f2f6130068261300d94612b94565b5186613824565b612fea565b5050925061301f82613934565b38612ed3565b81511561303c576000808252604082015260600152565b6040516322ce3edd60e01b8152600490fd5b6040519061305b82610441565b6000602083606081520152565b60405161307481610441565b61307c61304e565b808252602082016000815261308f61304e565b50610100602083015260405180925260008252610120820191821061026b576000916040525290565b601f19810191908211610a8857565b600119810191908211610a8857565b906130df61304e565b50601f81168061310e575b508060208301526040519081835260008252810160200190811061026b5760405290565b60200360208111610a88578101809111610a8857386130ea565b9081519161313461304e565b508251516001810190818111610a8857602085015181101561318d575b60c260206104c09651928301015380518211613185575b50506040519160208301526020825261318082610441565b61376f565b523880613168565b8160011b9482860460021483151715610a88576020816131bf6104c0986131b860c2955191846130d6565b50826136be565b5096505050613151565b90600782029180830460071490151715610a8857565b908160011b9180830460021490151715610a8857565b90670de0b6b3a764000091828102928184041490151715610a8857565b600281901b91906001600160fe1b03811603610a8857565b908160021b9180830460041490151715610a8857565b90601482029180830460141490151715610a8857565b61325e61304e565b508051516001810190818111610a88576020830151811015613297575b605b6020845192830101538051821161329357505090565b5290565b8160011b82810460021483151715610a88576132c0906132b9855191866130d6565b50846136be565b5061327b565b6132ce61304e565b508051516001810190818111610a88576020830151811015613303575b605a6020845192830101538051821161329357505090565b8160011b82810460021483151715610a8857613325906132b9855191866130d6565b506132eb565b61333361304e565b508051516001810190818111610a88576020830151811015613368575b60596020845192830101538051821161329357505090565b8160011b82810460021483151715610a885761338a906132b9855191866130d6565b50613350565b61339861304e565b508051516001810190818111610a885760208301518110156133cd575b60586020845192830101538051821161329357505090565b8160011b82810460021483151715610a88576133ef906132b9855191866130d6565b506133b5565b6133fd61304e565b508051516001810190818111610a88576020830151811015613432575b607b6020845192830101538051821161329357505090565b8160011b82810460021483151715610a8857613454906132b9855191866130d6565b5061341a565b61346261304e565b508051516001810190818111610a88576020830151811015613497575b607a6020845192830101538051821161329357505090565b8160011b82810460021483151715610a88576134b9906132b9855191866130d6565b5061347f565b6134c761304e565b508051516001810190818111610a885760208301518110156134fc575b60796020845192830101538051821161329357505090565b8160011b82810460021483151715610a885761351e906132b9855191866130d6565b506134e4565b61352c61304e565b508051516001810190818111610a88576020830151811015613561575b60786020845192830101538051821161329357505090565b8160011b82810460021483151715610a8857613583906132b9855191866130d6565b50613549565b9061359261304e565b508151516001810191828211610a885760208401518210156135c5575b6020845192830101538051821161329357505090565b8260011b83810460021484151715610a88576135ee906135e7865191876130d6565b50856136be565b506135af565b90613601825191836130d6565b5061360a61304e565b5080519061361661304e565b506136248151831115612c18565b825151926136328385612572565b9160209282848094015182116136a7575b518381519782010196821161369f575b505001915b818110156136795760001991036101000a0190811990511690825116179052565b919261369461368e61369a9286518152612548565b94612548565b926130b8565b613658565b523880613653565b6136b96136b3836131df565b826135f4565b613643565b906136c761304e565b5080516136d261304e565b506136e08251821115612c18565b825151916136ee8284612572565b6020918291828701518111613758575b865183815197820101968211613750575b505001915b818110156137365760001991036101000a019081199051169082511617905290565b919261369461368e61374b9286518152612548565b613714565b52388061370f565b61376a613764826131df565b886135f4565b6136fe565b81516137a69291906001600160401b03811690601782116137a95761379e9150604060ff845192161790613589565b505b516136be565b50565b5060ff81116137ce576137c8906137c08351613390565b508251613afd565b506137a0565b61ffff81116137ed576137c8906137e5835161332b565b508251613a96565b63ffffffff811161380e576137c89061380683516132c6565b508251613a2d565b6137c89061381c8351613256565b5082516139c1565b81516137a69291906001600160401b03811690601782116138535761379e9150606060ff845192161790613589565b5060ff811161386a576137c8906137c08351613524565b61ffff8111613881576137c8906137e583516134bf565b63ffffffff811161389a576137c890613806835161345a565b6137c89061381c83516133f5565b8051906138b361304e565b508151516001810190818111610a88576020840151811015613901575b609f60208095519283010153805182116138f9575b50500180519060018201809211610a885752565b5238806138e5565b8160011b9382850460021483151715610a885760208161392a82976131b8609f955191846130d6565b50955050506138d0565b80519061393f61304e565b508151516001810190818111610a8857602084015181101561398e575b60ff6020809551928301015380518211613986575b5050018051600019810191908211610a885752565b523880613971565b8160011b9382850460021483151715610a88576020816139b782976131b860ff955191846130d6565b509550505061395c565b906139ca61304e565b50815151806008019182600811610a885760208401518311613a0c575b6008845192830101906001600160401b03198251161790528051821161329357505090565b8260011b83810460021484151715610a8857613a2890856135f4565b6139e7565b90613a3661304e565b50815151806004019182600411610a885760208401518311613a75575b60048451928301019063ffffffff198251161790528051821161329357505090565b8260011b83810460021484151715610a8857613a9190856135f4565b613a53565b90613a9f61304e565b50815151806002019182600211610a885760208401518311613adc575b60028451928301019061ffff198251161790528051821161329357505090565b8260011b83810460021484151715610a8857613af890856135f4565b613abc565b90613b0661304e565b50815151806001019182600111610a885760208401518311613b42575b60018451928301019060ff198251161790528051821161329357505090565b8260011b83810460021484151715610a8857613b5e90856135f4565b613b23565b6102c99392606092825260208201528160408201520190610293565b15613b8657565b60405162461bcd60e51b815260206004820152601060248201526f105b1c9958591e48195e1958dd5d195960821b6044820152606490fd5b60405190613bcb82610441565b6001825260203681840137565b90613be282610524565b613bef6040519182610492565b8281528092613c00601f1991610524565b0190602036910137565b90815180825260208080930193019160005b828110613c2a575050505090565b83516001600160a01b031685529381019392810192600101613c1c565b909493919460808201908252602095868301526080604083015283518091528560a0830194019060005b818110613c8e575050506102c99394506060818403910152613c0a565b825163ffffffff1686529487019491870191600101613c71565b90613cd0613cca613cc3846000526012602052604060002090565b5460ff1690565b15613b7f565b613cf4613ce7836000526012602052604060002090565b805460ff19166001179055565b60019182613d0c826000526012602052604060002090565b015490613d30613d26836000526011602052604060002090565b5460a01c60ff1690565b613d51613d47846000526011602052604060002090565b5460a81c60ff1690565b15613e2a5793613d5f613bbe565b9080613d80613d7b6114dd86600052600e602052604060002090565b614e90565b96600060ff809216925b613dc6575b505050507f20b6c14dda6c40c205794d98587c7cce19676f970b5bc3d8e0badf35dcf50b5793946129f39160405194859485613c47565b81811683811015613e245790613e19613df2613de5613e1e948d612b94565b516001600160a01b031690565b613e13613e0d8461299c8d6000526010602052604060002090565b546131f5565b90613f20565b612b60565b83613d8a565b50613d8f565b613e4b613e466114dd849794600052600e602052604060002090565b614a5f565b90613e5960ff809216613bd8565b926000815b613e9a575b5050507f20b6c14dda6c40c205794d98587c7cce19676f970b5bc3d8e0badf35dcf50b579394916129f39160405194859485613c47565b613eba613eb4613d26886000526011602052604060002090565b60ff1690565b83821690811015613f1a5790613e196111d7613ef984613ef0610f68611e55613ee6613f14998d612b94565b5163ffffffff1690565b9283918b612b94565b613e13613e0d8461299c8c6000526010602052604060002090565b81613e5e565b50613e63565b6001600160a01b03811691908215613f955760035490828201809211610a8857600092613f866020927fddf252ad1be2c89b69c2b068fc378daa952ba7f163c4a11628f55a4df523b3ef9460035560018060a01b03166000526001602052604060002090565b818154019055604051908152a3565b60405162461bcd60e51b815260206004820152601f60248201527f45524332303a206d696e7420746f20746865207a65726f2061646472657373006044820152606490fd5b604051613ff781610b496020820194602086526040830190610293565b51902090565b356102c981610ca0565b1561400e57565b60405162461bcd60e51b81526020600482015260146024820152736167656e7420616c72656164792065786973747360601b6044820152606490fd5b356102c9816103cd565b903590601e198136030182121561026b57018035906001600160401b03821161026b5760200191813603831361026b57565b9081602091031261026b57516102c9816103cd565b908060209392818452848401376000828201840152601f01601f1916010190565b969590936140f4936000969360a0968a52600180881b031660208a01526040890152606088015260c0608088015260c087019161409b565b930152565b949290936141176102c997956141259460608952606089019161409b565b91868303602088015261409b565b92604081850391015261409b565b8015150361026b57565b356102c981614133565b815181546001600160a01b03199081166001600160a01b0392831617835560208401516001909301805493909216921691909117815590612a3a9060400151825460ff60a01b191690151560a01b60ff60a01b161790565b9a9691936101009a9893958c9d9e9d602063ffffffff6141d06142029b966142109f9a61012080875286019161409b565b99169101526001600160a01b0391821660408e01521660608c015260808b015260a08a015288830360c08a015261409b565b9185830360e087015261409b565b931515910152565b1561421f57565b60405162461bcd60e51b815260206004820152602360248201527f6167656e74206973206e6f74206f70656e20666f7220636f6e747269627574696044820152626f6e7360e81b6064820152608490fd5b91906142976102c99694959263ffffffff809316855260a0602086015260a0850190610293565b941660408301526001600160a01b03166060820152808303608090910152610293565b156142c157565b60405162461bcd60e51b81526020600482015260156024820152746167656e7420646f6573206e6f742065786973747360581b6044820152606490fd5b60405161430a81610441565b600181528060005b60208082101561432d57906060602092828501015201614312565b50505090565b602090818184031261026b578051906001600160401b03821161026b57019180601f8401121561026b57825161436881610524565b936143766040519586610492565b818552838086019260051b82010192831161026b578301905b82821061439d575050505090565b8151815290830190830161438f565b93906143f692936143da6143cb6143e89360a0895260a0890190612ba8565b602096888203888a0152613c0a565b908682036040880152613c0a565b908482036060860152613c0a565b9160808184039101528251908183528083019281808460051b8301019501936000915b8483106144295750505050505090565b9091929394958480614447600193601f198682030187528a51610293565b9801930193019194939290614419565b9081602091031261026b57516102c981614133565b93919260809363ffffffff61449793989798168652602086015260a0604086015260a0850190610293565b6001600160a01b0391821660608501529416910152565b9193929082526020938483015260018060a01b03166040820152608080606083015260605190818184015260005b8281106144fe57505060a09293506000838284010152601f8019910116010190565b8181015184820160a0015285016144dc565b90604051606081018181106001600160401b0382111761043c57604052604060ff82946001808060a01b03918281541686520154908116602085015260a01c161515910152565b814710614612576000918291829182916001600160a01b03165af13d1561460d573d614582816104c2565b906145906040519283610492565b8152600060203d92013e5b156145a257565b60405162461bcd60e51b815260206004820152603a60248201527f416464726573733a20756e61626c6520746f2073656e642076616c75652c207260448201527f6563697069656e74206d617920686176652072657665727465640000000000006064820152608490fd5b61459b565b60405162461bcd60e51b815260206004820152601d60248201527f416464726573733a20696e73756666696369656e742062616c616e63650000006044820152606490fd5b9061466a60209282815194859201610270565b0190565b90614678826104c2565b6146856040519182610492565b8281528092613c00601f19916104c2565b806000917a184f03e93ff9f4daa797ed6e38ed64bf6a1f010000000000000000808210156147cb575b506d04ee2d6d415b85acef8100000000808310156147bc575b50662386f26fc10000808310156147ad575b506305f5e1008083101561479e575b506127108083101561478f575b50606482101561477f575b600a80921015614775575b60019081602161472d82870161466e565b95860101905b61473f575b5050505090565b600019019083906f181899199a1a9b1b9c1cb0b131b232b360811b8282061a83530491821561477057919082614733565b614738565b916001019161471c565b9190606460029104910191614711565b60049193920491019138614706565b600891939204910191386146f9565b601091939204910191386146ea565b602091939204910191386146d8565b6040935081049150386146bf565b604051906001600160a01b03166147ef8261045c565b602a82526040366020840137603061480683612b87565b5360786148128361489e565b536029905b6001821161482a576102c99150156148cc565b600f8116906010821015610b6357614866916f181899199a1a9b1b9c1cb0b131b232b360811b901a61485c84866148ae565b5360041c916148bf565b90614817565b60405161487881610477565b60008152906000368137565b6040519061489182610441565b6014825260203681840137565b805160011015610b635760210190565b908151811015610b63570160200190565b8015610a88576000190190565b156148d357565b606460405162461bcd60e51b815260206004820152602060248201527f537472696e67733a20686578206c656e67746820696e73756666696369656e746044820152fd5b604051906149248261045c565b604082527f6768696a6b6c6d6e6f707172737475767778797a303132333435363738392b2f6040837f4142434445464748494a4b4c4d4e4f505152535455565758595a61626364656660208201520152565b805115614a5657614985614917565b6149a161499c6149958451612556565b6003900490565b613212565b916149b36149ae84612548565b61466e565b92835280815182019060208501935b828210614a04575050506003905106806001146149f3576002146149e4575090565b603d60f81b6000199091015290565b50613d3d60f01b6001199091015290565b9091936004906003809401938451600190603f9082828260121c16880101518553828282600c1c16880101518386015382828260061c16880101516002860153168501015190820153019391906149c2565b506102c9612a27565b614a6890614c07565b6003815116614ac957614a84614a7f825160021c90565b613bd8565b9060005b8251811015614ac45780612f2f614aaa614aa4614abf9461322a565b85614e3a565b614ab48387612b94565b9063ffffffff169052565b614a88565b505090565b60405162461bcd60e51b815260206004820152602360248201527f44617461206c656e677468206d7573742062652061206d756c7469706c65206f60448201526219880d60ea1b6064820152608490fd5b15614b2157565b60405162461bcd60e51b815260206004820152602560248201527f536f7572636520737472696e67206e6f742070726f7065726c7920666f726d616044820152643a3a32b21760d91b6064820152608490fd5b15614b7b57565b60405162461bcd60e51b815260206004820152602360248201527f536f7572636520737472696e67206d75737420737461727420776974682027306044820152623c139760e91b6064820152608490fd5b60041b90610ff060f0831692168203610a8857565b60ff600a9116019060ff8211610a8857565b9060ff8091169116019060ff8211610a8857565b90614c16600283511015614b1a565b614c516001600160f81b0319600360fc1b81614c42614c3487612b87565b516001600160f81b03191690565b16149081614d05575b50614b74565b6002825114614cfb57614c706149ae614c6a84516130c7565b60011c90565b60025b8351811015614cf65780614cd1614cc1614ca3614c9e614c99614c34614cf1978b6148ae565b614d7e565b614bcc565b614cbb614c99614c34614cb587612564565b8b6148ae565b90614bf3565b60f81b6001600160f81b03191690565b614ceb614ce0614c6a846130c7565b9160001a91856148ae565b53612556565b614c73565b509150565b90506102c961486c565b9050600f60fb1b81614d19614c348761489e565b1614908115614d2a575b5038614c4b565b600b60fb1b9150614d3d614c348661489e565b161438614d23565b60ff602f199116019060ff8211610a8857565b60ff6060199116019060ff8211610a8857565b60ff6040199116019060ff8211610a8857565b60f81c603081101580614e2f575b614e2657606181101580614e1b575b614e0f57604181101580614e04575b614df35760405162461bcd60e51b815260206004820152601b60248201527f496e76616c69642063686172616374657220696e20737472696e6700000000006044820152606490fd5b614dff6102c991614d6b565b614be1565b506046811115614daa565b614dff6102c991614d58565b506066811115614d9b565b6102c990614d45565b506039811115614d8c565b9060048101808211610a8857825110614e5557016004015190565b60405162461bcd60e51b8152602060048201526013602482015272496e646578206f7574206f6620626f756e647360681b6044820152606490fd5b614e9990614c07565b601480825106614f335781516014900490614eb382613bd8565b92600090815b848110614ec857505050505090565b83614ed1614884565b845b828110614ef55750614ef09291612f2f9101516111d7838a612b94565b614eb9565b614f2b919250614f19614c34614f1383614f0e88613240565b612572565b876148ae565b861a614f2582856148ae565b53612dd0565b908591614ed3565b60405162461bcd60e51b815260206004820152602a60248201527f44617461206c656e677468206d7573742062652061206d756c7469706c65206f6044820152696620323020627974657360b01b6064820152608490fdfea2646970667358221220d7a9db026cc41d59c3613494e5259feaa63dba38f6ab01124fefd28de4ffb33164736f6c63430008140033",
  "devdoc": {
    "events": {
      "Approval(address,address,uint256)": {
        "details": "Emitted when the allowance of a `spender` for an `owner` is set by a call to {approve}. `value` is the new allowance."
      },
      "Transfer(address,address,uint256)": {
        "details": "Emitted when `value` tokens are moved from one account (`from`) to another (`to`). Note that `value` may be zero."
      }
    },
    "kind": "dev",
    "methods": {
      "addRewardMechanism(string,string,address,uint256[])": {
        "details": "Only callable by the owner",
        "params": {
          "_functionForwader": "chainlink automation forwarder address",
          "_rewardDistributions": "the reward distributions for the topK agents",
          "_sourceCode": "sourceID to Forwarder address",
          "_sourceName": "sourceID to Forwarder address"
        }
      },
      "allowance(address,address)": {
        "details": "See {IERC20-allowance}."
      },
      "approve(address,uint256)": {
        "details": "See {IERC20-approve}. NOTE: If `amount` is the maximum `uint256`, the allowance is not updated on `transferFrom`. This is semantically equivalent to an infinite approval. Requirements: - `spender` cannot be the zero address."
      },
      "balanceOf(address)": {
        "details": "See {IERC20-balanceOf}."
      },
      "constructor": {
        "params": {
          "_donID": "Chainlink's contract chainID => donID",
          "_oracle": "The address of the Chainlink Function oracle",
          "_subscriptionId": "The subscription ID for Chainlink Functions",
          "_unlockContract": "The address of the Chainlink oracle Automation Forwarder"
        }
      },
      "decimals()": {
        "details": "Returns the number of decimals used to get its user representation. For example, if `decimals` equals `2`, a balance of `505` tokens should be displayed to a user as `5.05` (`505 / 10 ** 2`). Tokens usually opt for a value of 18, imitating the relationship between Ether and Wei. This is the default value returned by this function, unless it's overridden. NOTE: This information is only used for _display_ purposes: it in no way affects any of the arithmetic of the contract, including {IERC20-balanceOf} and {IERC20-transfer}."
      },
      "decreaseAllowance(address,uint256)": {
        "details": "Atomically decreases the allowance granted to `spender` by the caller. This is an alternative to {approve} that can be used as a mitigation for problems described in {IERC20-approve}. Emits an {Approval} event indicating the updated allowance. Requirements: - `spender` cannot be the zero address. - `spender` must have allowance for the caller of at least `subtractedValue`."
      },
      "handleOracleFulfillment(bytes32,bytes,bytes)": {
        "details": "Either response or error parameter will be set, but never both.",
        "params": {
          "err": "Aggregated error either from the request's source code or from the execution pipeline.",
          "requestId": "The requestId returned by FunctionsClient.sendRequest().",
          "response": "Aggregated response from the request's source code."
        }
      },
      "increaseAllowance(address,uint256)": {
        "details": "Atomically increases the allowance granted to `spender` by the caller. This is an alternative to {approve} that can be used as a mitigation for problems described in {IERC20-approve}. Emits an {Approval} event indicating the updated allowance. Requirements: - `spender` cannot be the zero address."
      },
      "name()": {
        "details": "Returns the name of the token."
      },
      "owner()": {
        "details": "Returns the address of the current owner."
      },
      "purchaseSubscription(uint32,uint256,string)": {
        "details": "PurchaseSubscription function for an agentID",
        "params": {
          "_agentID": "to subscribe",
          "_value": "array of tokens amount to pay for this purchase >= the current keyPrice - any applicable discount"
        }
      },
      "renounceOwnership()": {
        "details": "Leaves the contract without owner. It will not be possible to call `onlyOwner` functions. Can only be called by the current owner. NOTE: Renouncing ownership will leave the contract without an owner, thereby disabling any functionality that is only available to the owner."
      },
      "sendRequest(bytes32)": {
        "params": {
          "sourceID": "The ID of the source to send the request to"
        }
      },
      "symbol()": {
        "details": "Returns the symbol of the token, usually a shorter version of the name."
      },
      "totalSupply()": {
        "details": "See {IERC20-totalSupply}."
      },
      "transfer(address,uint256)": {
        "details": "See {IERC20-transfer}. Requirements: - `to` cannot be the zero address. - the caller must have a balance of at least `amount`."
      },
      "transferFrom(address,address,uint256)": {
        "details": "See {IERC20-transferFrom}. Emits an {Approval} event indicating the updated allowance. This is not required by the EIP. See the note at the beginning of {ERC20}. NOTE: Does not update the allowance if the current allowance is the maximum `uint256`. Requirements: - `from` and `to` cannot be the zero address. - `from` must have a balance of at least `amount`. - the caller must have allowance for ``from``'s tokens of at least `amount`."
      },
      "transferOwnership(address)": {
        "details": "Transfers ownership of the contract to a new account (`newOwner`). Can only be called by the current owner."
      },
      "withdraw(uint32)": {
        "details": "withdraw function for an agentID",
        "params": {
          "_agentID": "to withdraw money from the lock contract"
        }
      }
    },
    "title": "DAIM (Decentralized Artificial Intelligence Marketplace)",
    "version": 1
  },
  "userdoc": {
    "kind": "user",
    "methods": {
      "addRewardMechanism(string,string,address,uint256[])": {
        "notice": "Set the setRewardMechanism that `performUpkeep` is called from a trusted address the chainlink forwarder"
      },
      "constructor": {
        "notice": "Initializes the contract"
      },
      "handleOracleFulfillment(bytes32,bytes,bytes)": {
        "notice": "Chainlink Functions response handler called by the Functions Router during fullilment from the designated transmitter node in an OCR round."
      },
      "sendRequest(bytes32)": {
        "notice": "Sends an HTTP request for character information"
      },
      "withdraw(uint32)": {
        "notice": "We give back to the agent creator 70% of the total income from that agent the platform keeps 30% of that amount"
      }
    },
    "notice": "@dev",
    "version": 1
  },
  "storageLayout": {
    "storage": [
      {
        "astId": 2508,
        "contract": "contracts/DAIM.sol:DAIM",
        "label": "_owner",
        "offset": 0,
        "slot": "0",
        "type": "t_address"
      },
      {
        "astId": 2629,
        "contract": "contracts/DAIM.sol:DAIM",
        "label": "_balances",
        "offset": 0,
        "slot": "1",
        "type": "t_mapping(t_address,t_uint256)"
      },
      {
        "astId": 2635,
        "contract": "contracts/DAIM.sol:DAIM",
        "label": "_allowances",
        "offset": 0,
        "slot": "2",
        "type": "t_mapping(t_address,t_mapping(t_address,t_uint256))"
      },
      {
        "astId": 2637,
        "contract": "contracts/DAIM.sol:DAIM",
        "label": "_totalSupply",
        "offset": 0,
        "slot": "3",
        "type": "t_uint256"
      },
      {
        "astId": 2639,
        "contract": "contracts/DAIM.sol:DAIM",
        "label": "_name",
        "offset": 0,
        "slot": "4",
        "type": "t_string_storage"
      },
      {
        "astId": 2641,
        "contract": "contracts/DAIM.sol:DAIM",
        "label": "_symbol",
        "offset": 0,
        "slot": "5",
        "type": "t_string_storage"
      },
      {
        "astId": 5861,
        "contract": "contracts/DAIM.sol:DAIM",
        "label": "subscriptionId",
        "offset": 0,
        "slot": "6",
        "type": "t_uint64"
      },
      {
        "astId": 5863,
        "contract": "contracts/DAIM.sol:DAIM",
        "label": "agentPlaceTreasury",
        "offset": 0,
        "slot": "7",
        "type": "t_uint256"
      },
      {
        "astId": 5865,
        "contract": "contracts/DAIM.sol:DAIM",
        "label": "oracle",
        "offset": 0,
        "slot": "8",
        "type": "t_address"
      },
      {
        "astId": 5868,
        "contract": "contracts/DAIM.sol:DAIM",
        "label": "gasLimit",
        "offset": 20,
        "slot": "8",
        "type": "t_uint32"
      },
      {
        "astId": 5875,
        "contract": "contracts/DAIM.sol:DAIM",
        "label": "max",
        "offset": 0,
        "slot": "9",
        "type": "t_uint256"
      },
      {
        "astId": 5878,
        "contract": "contracts/DAIM.sol:DAIM",
        "label": "month",
        "offset": 0,
        "slot": "10",
        "type": "t_uint256"
      },
      {
        "astId": 5880,
        "contract": "contracts/DAIM.sol:DAIM",
        "label": "donID",
        "offset": 0,
        "slot": "11",
        "type": "t_bytes32"
      },
      {
        "astId": 5904,
        "contract": "contracts/DAIM.sol:DAIM",
        "label": "agents",
        "offset": 0,
        "slot": "12",
        "type": "t_mapping(t_uint32,t_struct(AgentStruct)5887_storage)"
      },
      {
        "astId": 5908,
        "contract": "contracts/DAIM.sol:DAIM",
        "label": "agentVersions",
        "offset": 0,
        "slot": "13",
        "type": "t_mapping(t_uint32,t_uint32)"
      },
      {
        "astId": 5912,
        "contract": "contracts/DAIM.sol:DAIM",
        "label": "roundWinners",
        "offset": 0,
        "slot": "14",
        "type": "t_mapping(t_bytes32,t_bytes_storage)"
      },
      {
        "astId": 5916,
        "contract": "contracts/DAIM.sol:DAIM",
        "label": "sources",
        "offset": 0,
        "slot": "15",
        "type": "t_mapping(t_bytes32,t_string_storage)"
      },
      {
        "astId": 5922,
        "contract": "contracts/DAIM.sol:DAIM",
        "label": "rewardDistributions",
        "offset": 0,
        "slot": "16",
        "type": "t_mapping(t_bytes32,t_mapping(t_uint8,t_uint256))"
      },
      {
        "astId": 5927,
        "contract": "contracts/DAIM.sol:DAIM",
        "label": "functionData",
        "offset": 0,
        "slot": "17",
        "type": "t_mapping(t_bytes32,t_struct(FunctionData)5899_storage)"
      },
      {
        "astId": 5932,
        "contract": "contracts/DAIM.sol:DAIM",
        "label": "requestData",
        "offset": 0,
        "slot": "18",
        "type": "t_mapping(t_bytes32,t_struct(RequestData)5892_storage)"
      },
      {
        "astId": 6384,
        "contract": "contracts/DAIM.sol:DAIM",
        "label": "unlockContract",
        "offset": 0,
        "slot": "19",
        "type": "t_contract(IUnlockV12)5830"
      }
    ],
    "types": {
      "t_address": {
        "encoding": "inplace",
        "label": "address",
        "numberOfBytes": "20"
      },
      "t_bool": {
        "encoding": "inplace",
        "label": "bool",
        "numberOfBytes": "1"
      },
      "t_bytes32": {
        "encoding": "inplace",
        "label": "bytes32",
        "numberOfBytes": "32"
      },
      "t_bytes_storage": {
        "encoding": "bytes",
        "label": "bytes",
        "numberOfBytes": "32"
      },
      "t_contract(IUnlockV12)5830": {
        "encoding": "inplace",
        "label": "contract IUnlockV12",
        "numberOfBytes": "20"
      },
      "t_mapping(t_address,t_mapping(t_address,t_uint256))": {
        "encoding": "mapping",
        "key": "t_address",
        "label": "mapping(address => mapping(address => uint256))",
        "numberOfBytes": "32",
        "value": "t_mapping(t_address,t_uint256)"
      },
      "t_mapping(t_address,t_uint256)": {
        "encoding": "mapping",
        "key": "t_address",
        "label": "mapping(address => uint256)",
        "numberOfBytes": "32",
        "value": "t_uint256"
      },
      "t_mapping(t_bytes32,t_bytes_storage)": {
        "encoding": "mapping",
        "key": "t_bytes32",
        "label": "mapping(bytes32 => bytes)",
        "numberOfBytes": "32",
        "value": "t_bytes_storage"
      },
      "t_mapping(t_bytes32,t_mapping(t_uint8,t_uint256))": {
        "encoding": "mapping",
        "key": "t_bytes32",
        "label": "mapping(bytes32 => mapping(uint8 => uint256))",
        "numberOfBytes": "32",
        "value": "t_mapping(t_uint8,t_uint256)"
      },
      "t_mapping(t_bytes32,t_string_storage)": {
        "encoding": "mapping",
        "key": "t_bytes32",
        "label": "mapping(bytes32 => string)",
        "numberOfBytes": "32",
        "value": "t_string_storage"
      },
      "t_mapping(t_bytes32,t_struct(FunctionData)5899_storage)": {
        "encoding": "mapping",
        "key": "t_bytes32",
        "label": "mapping(bytes32 => struct ChainlinkConsumer.FunctionData)",
        "numberOfBytes": "32",
        "value": "t_struct(FunctionData)5899_storage"
      },
      "t_mapping(t_bytes32,t_struct(RequestData)5892_storage)": {
        "encoding": "mapping",
        "key": "t_bytes32",
        "label": "mapping(bytes32 => struct ChainlinkConsumer.RequestData)",
        "numberOfBytes": "32",
        "value": "t_struct(RequestData)5892_storage"
      },
      "t_mapping(t_uint32,t_struct(AgentStruct)5887_storage)": {
        "encoding": "mapping",
        "key": "t_uint32",
        "label": "mapping(uint32 => struct ChainlinkConsumer.AgentStruct)",
        "numberOfBytes": "32",
        "value": "t_struct(AgentStruct)5887_storage"
      },
      "t_mapping(t_uint32,t_uint32)": {
        "encoding": "mapping",
        "key": "t_uint32",
        "label": "mapping(uint32 => uint32)",
        "numberOfBytes": "32",
        "value": "t_uint32"
      },
      "t_mapping(t_uint8,t_uint256)": {
        "encoding": "mapping",
        "key": "t_uint8",
        "label": "mapping(uint8 => uint256)",
        "numberOfBytes": "32",
        "value": "t_uint256"
      },
      "t_string_storage": {
        "encoding": "bytes",
        "label": "string",
        "numberOfBytes": "32"
      },
      "t_struct(AgentStruct)5887_storage": {
        "encoding": "inplace",
        "label": "struct ChainlinkConsumer.AgentStruct",
        "members": [
          {
            "astId": 5882,
            "contract": "contracts/DAIM.sol:DAIM",
            "label": "creator",
            "offset": 0,
            "slot": "0",
            "type": "t_address"
          },
          {
            "astId": 5884,
            "contract": "contracts/DAIM.sol:DAIM",
            "label": "lockAddress",
            "offset": 0,
            "slot": "1",
            "type": "t_address"
          },
          {
            "astId": 5886,
            "contract": "contracts/DAIM.sol:DAIM",
            "label": "isOpenForContributions",
            "offset": 20,
            "slot": "1",
            "type": "t_bool"
          }
        ],
        "numberOfBytes": "64"
      },
      "t_struct(FunctionData)5899_storage": {
        "encoding": "inplace",
        "label": "struct ChainlinkConsumer.FunctionData",
        "members": [
          {
            "astId": 5894,
            "contract": "contracts/DAIM.sol:DAIM",
            "label": "functionForwarder",
            "offset": 0,
            "slot": "0",
            "type": "t_address"
          },
          {
            "astId": 5896,
            "contract": "contracts/DAIM.sol:DAIM",
            "label": "numberOfWinners",
            "offset": 20,
            "slot": "0",
            "type": "t_uint8"
          },
          {
            "astId": 5898,
            "contract": "contracts/DAIM.sol:DAIM",
            "label": "usersOrAgents",
            "offset": 21,
            "slot": "0",
            "type": "t_bool"
          }
        ],
        "numberOfBytes": "32"
      },
      "t_struct(RequestData)5892_storage": {
        "encoding": "inplace",
        "label": "struct ChainlinkConsumer.RequestData",
        "members": [
          {
            "astId": 5889,
            "contract": "contracts/DAIM.sol:DAIM",
            "label": "executed",
            "offset": 0,
            "slot": "0",
            "type": "t_bool"
          },
          {
            "astId": 5891,
            "contract": "contracts/DAIM.sol:DAIM",
            "label": "sourceID",
            "offset": 0,
            "slot": "1",
            "type": "t_bytes32"
          }
        ],
        "numberOfBytes": "64"
      },
      "t_uint256": {
        "encoding": "inplace",
        "label": "uint256",
        "numberOfBytes": "32"
      },
      "t_uint32": {
        "encoding": "inplace",
        "label": "uint32",
        "numberOfBytes": "4"
      },
      "t_uint64": {
        "encoding": "inplace",
        "label": "uint64",
        "numberOfBytes": "8"
      },
      "t_uint8": {
        "encoding": "inplace",
        "label": "uint8",
        "numberOfBytes": "1"
      }
    }
  }
}